:020000040800F2
:10000000A8160020A1010008B94600083F3B0008DF
:100010008D420008C5100008495400080000000087
:100020000000000000000000000000005B4A000823
:100030008114000800000000594A00085D4A0008C9
:10004000BB010008BB010008BB010008BB010008A0
:10005000BB010008BB010008BB010008BB01000890
:10006000BB010008BB010008BB010008BB01000880
:10007000C5130008BB010008BB010008BB01000854
:10008000BB010008BB010008BB010008BB01000860
:10009000BB010008BB010008BB010008BB01000850
:1000A000BB010008BB010008BB010008BB01000840
:1000B000BB010008BB010008BB010008BB01000830
:1000C000BB010008BB010008BB010008BB01000820
:1000D000BB010008BB0100081554000821540008AA
:1000E000BB010008BB010008BB010008BB01000800
:1000F000C14B0008B54B0008BB010008BB0100085C
:10010000BB010008BB010008BB010008BB010008DF
:10011000BB010008BB010008BB010008BB010008CF
:10012000BB010008D1130008BB010008BB01000897
:10013000BB010008BB010008BB010008BB010008AF
:10014000BB010008BB010008BB010008BB0100089F
:10015000BB010008BB010008BB01000835540008C2
:10016000BB010008BB010008BB010008BB0100087F
:10017000BB010008BB010008BB0100080000000033
:10018000BB010008BB010008DFF810D000F00CFB39
:1001900000480047E55D0008AFF30080A816002086
:1001A0000648804706480047FEE7FEE7FEE7FEE711
:1001B000FEE7FEE7FEE7FEE7FEE7FEE7014B00088D
:1001C000890100082DE9F05F0546002092469B4614
:1001D00088460646814640241BE02846414647465D
:1001E000224600F0C3F953465A46C01A914110D333
:1001F00011461846224600F0AAF92D1A67EB0108AD
:100200004F4622460120002100F0A1F917EB00091A
:100210004E41201EA4F10104DFDC484631462A4647
:100220004346BDE8F09F40EA01039B0703D009E085
:1002300008C9121F08C0042AFAD203E011F8013BD2
:1002400000F8013B521EF9D27047D2B201E000F82B
:10025000012B491EFBD270470022F6E710B513466A
:100260000A4604461946FFF7F0FF204610BD30B598
:1002700005462A460B4612F8010B13F8014B08B14C
:10028000A042F8D01CB1002802D06D1CF1E728462E
:1002900030BD30B505460020034600E05B1C9342AC
:1002A00005D2EC5CC85C201A01D1002CF6D130BD1F
:1002B0002DE9FE4F804681EA0300C00F0C460090F6
:1002C00021F0004123F00045B8EB0200A94105D21E
:1002D0004046214690461C460B46024623F000400D
:1002E000104347D0270DC7F30A00C3F30A51029009
:1002F000401A019040286BDAC3F3130040F4801BCE
:100300000098924620B10023D2EB030A63EB0B0B5B
:1003100001985946C0F14002504600F018F90646CF
:100320000D4650465946019A00F030F910EB08008E
:100330006141002487EA115284EAE7731A4340D0EE
:10034000009A62B3019A012A4FEA075215DC001B9A
:1003500061EB02014FF0004202EA0752CDE9004290
:10036000001C41F5801132462B4600F030F903B0F5
:10037000BDE8F08F40462146F9E7001B61EB020122
:10038000001C41F5801300185B412018A2F50017EE
:1003900047EB030140EAD570B6196D4111E06D08D5
:1003A0004FEA360645EAC0754FEA0752001B61EB7B
:1003B0000201001C41F5801149084FEA3000001984
:1003C000514132462B4603B0BDE8F04F00F0F0B883
:1003D0000098012240000023D0EB020263EBE0739F
:1003E000009821464FEAE074B8EB000061EB04018D
:1003F000E9E783F000435BE781F0004158E72DE92E
:10040000FE4F81EA030404F0004421F0004100940F
:100410004FF0000B23F0004350EA01045ED052EA93
:1004200003045BD0C3F30A54C1F30A552C44A4F26D
:10043000F3340194A0FB0254C1F3130141F4801181
:10044000C3F3130343F4801301FB024400FB034E88
:10045000840A970A44EA815447EA8357A4FB076851
:1004600002958D0A05FB07854FEA932C04FB0C547B
:100470002705029D4FEA065847EA1637B5EB0805EF
:100480006EEB070C870E920E47EA811742EA831241
:10049000A7FB0201B6EB0B0164EB00042B0D43EA52
:1004A0000C335E1844EB1C50DA465146E7FB020160
:1004B000C5F313044FEA0B3343EA14534FEA0432F3
:1004C000019C43EA0603A4F10C040294009CCDE9CC
:1004D00000B400F07CF803B0BDE8F08F00200146C6
:1004E000F9E70EB540F2334102910021CDE9001148
:1004F0000A460B4600F06BF803B000BD00F0004266
:1005000030F000400AD0C10D01F56071C0F3160053
:1005100042EA0151C20840071143704700200146DA
:10052000704730B50B46014600202022012409E027
:1005300021FA02F59D4205D303FA02F5491B04FA9C
:1005400002F52844151EA2F10102F1DC30BD202A7B
:1005500004DB203A00FA02F1002070479140C2F11A
:10056000200320FA03F3194390407047202A04DB4C
:10057000203A21FA02F00021704721FA02F3D0401C
:10058000C2F120029140084319467047202A06DB39
:10059000CB17203A41FA02F043EAE07306E041FA51
:1005A00002F3D040C2F1200291400843194670473F
:1005B00010B5141E73F1000408DA401C41F100016B
:1005C00092185B411A4301D120F0010010BD2DE9C2
:1005D000F04D92469B4611B1B1FA81F202E0B0FAB9
:1005E00080F220329046FFF7B2FF04460F4640EA01
:1005F0000A0041EA0B0153465A46084313D01146FC
:1006000053EA010019D0C8F140025046FFF7AEFF8F
:1006100005460E46504659464246FFF798FF0843A6
:1006200005D0012004E020463946BDE8F08D0020C9
:10063000054346EAE0762C4337430A986305E40A0B
:10064000A0EB08000022FD0A44EA47540A3002D514
:1006500000200146E9E7010510196941DDE9084577
:1006600000196941BDE8F04DA2E72DE9F04D81EA9E
:10067000030404F0004B21F0004514464FF0000A3B
:1006800023F0004150EA050220D054EA01021DD0B7
:10069000C5F30A570246C5F31303C1F31300C1F3B0
:1006A0000A5640F4801543F48013A7EB0608101B8C
:1006B000D64608F2FD3873EB050002D308F10108B5
:1006C00001E092185B41B8F1000F03DA0020014607
:1006D000BDE8F08D00204FF48011064684460EE000
:1006E000171B73EB050705D3121B63EB05030643CA
:1006F0004CEA010C49084FEA300092185B4150EA7D
:100700000107EDD152EA030012D082EA040083EA25
:100710000501084305D0101BAB4106D2012200237E
:1007200006E000224FF0004302E06FF00102531098
:100730001AEB06004CEB085110EB0A0041EB0B01E1
:10074000BDE8F04DFFF734BFC1F30A52C1F3130106
:1007500040F2FF3341F480119A4202DA0020014650
:10076000704740F233439A42A2F2334202DC5242D3
:10077000FFF7FCBEFFF7EBBE30B5041E71F10004BD
:1007800004DB4FF00044404264EB0101141E73F19E
:10079000000405DB1C464FF00043524263EB0403A8
:1007A000994208BF904230BD064C074D06E0E06814
:1007B00040F0010394E8070098471034AC42F6D3A8
:1007C000FFF7E6FC2C7900084C79000880220249EA
:1007D000024802F070BE0000300100200C11002021
:1007E0002DE9F0410546802900D37F2100266E5473
:1007F00005221BA1FFF74DFD1B4C0127A8B10522C7
:100800001AA12846FFF745FD002817D1042219A197
:10081000681DFFF73EFD00B3062218A1681DFFF713
:1008200038FD00280AD166700EE068794C280FD098
:1008300006DC42280AD0462800D12770BDE8F081A6
:10084000522807D05328F9D12670F7E7022002E09A
:10085000032000E004202070F0E76770EEE700005E
:100860004D4F56453A0000000C0000204D4F4445C6
:100870003A0000004155544F000000004D414E55D4
:10088000414C000010B5054CA078002805D0A18887
:100890000348FFF7A5FF0020A07010BD0C0000204A
:1008A000B0010020AFF300801849194A086890424F
:1008B00003D134221748FFF7B6BC1648B0EE000A41
:1008C000DFED170A026080ED010A9FED130AB0EE1A
:1008D000041A80ED020AB6EE000A80ED030AB7EEB4
:1008E000080A80ED040A9FED0D0A00F1240180ED55
:1008F000050AC0ED060AF1EE040AC0ED070A80ED14
:10090000081A81EC030A80ED0C0A704700000E08FB
:10091000EFBEADDED40A0020CDCCCC3D00000000FF
:10092000CDCC4C3EF0B587B00024059401F0A0FB7F
:10093000022004900B20029001200390009405A94E
:10094000684601F001FB78B9094D0A4F0D2600BF3A
:1009500007EB840155F824200023022001F04AFB14
:1009600010B9641CB442F3D301F03AFB07B0F0BDF8
:10097000D40A002000000E082DE9F0417E4C7F4F84
:1009800000262DED028B60787D4D401CC0B260705A
:10099000142805D366703A7829787AA004F056FDB9
:1009A000287808B9387830B328782178884211D06F
:1009B0007C4804F03FF87B482C3004F03BF8794841
:1009C000583004F037F87748843004F033F8666024
:1009D0002878207028789FED740A50B36068F0EE94
:1009E000402A401CF0EE620A606014287AD26F49F7
:1009F000087870B353E000216D4804F099F80021A5
:100A00006C4804F095F8674804F014F865482C30F9
:100A100004F010F86348583004F00CF86148843052
:100A200004F008F8666028782070BDEC028BBDE801
:100A3000F081B0EE408ADFED600A3878012809D0F5
:100A40009FED5E1A022808D003280BD0042812D18B
:100A50000DE022E0B0EE600A01E0B0EE410AB0EE37
:100A6000408A08E0B0EE410AB0EE608A03E0B0EEE2
:100A7000600AB0EE418ABDEEC00A4D4810EE101A71
:100A800004F056F8BDEEC80ABDEC028B4948BDE83B
:100A9000F04110EE101A04F04BB84878D0B1487805
:100AA000F3EE040A00EE100A3E48B8EE400A03F0E6
:100AB00071FF0878F0EE402A00EE100A3948F8EE8F
:100AC000400A9FED3F0A2C3003F064FFF0EE400A2D
:100AD0000EE007E033482C3003F0ACFF314803F060
:100AE000A9FF05E02F4880ED070A2C3080ED070AAA
:100AF00032EEE00A72EEA00A84ED020AC4ED030AA7
:100B000060680B38092809D2B6EE001A20EE010AF7
:100B100084ED020A20EE810A84ED030A294894ED4F
:100B2000020AD0ED020A1F48583003F033FF26486E
:100B3000F0EE402A94ED030AD0ED020A1948843001
:100B400003F028FFB0EE408ABDEEE20A184810EE2E
:100B5000101A03F0EDFFBDEEC80A164810EE101A89
:100B600003F0E6FFA078401CC0B2A0700A28FFF492
:100B70005CAFA67059E70000580000200C00002070
:100B80000D0000204C6F6F7020416C6976652E203F
:100B90004D6F64653D25642C20436D643D25640DD7
:100BA0000A0000000C080020000000006E00002079
:100BB000300200204C02002000007A4400007AC479
:100BC0000000A0423C000020480000202DE9F04138
:100BD0002DED028B84B0FFF765FE314C9FED312A7D
:100BE000DFED311A314894EC030A241F03F019FF9A
:100BF00010342E48B3EE0E2A94EC030A2C30DFEDAD
:100C00002C1A103C03F00DFF606AFFF777FC0746D3
:100C10008846206AFFF772FC05460E46E069FFF73A
:100C20006DFC8DE8E00141EC100B22A053EC102B81
:100C300004F00CFC9FED2B8ADFED2B8A1C341B4843
:100C4000B0EE482A94EC030AF0EE681A58301C3CC7
:100C500003F0E7FE206BFFF751FC07468846E06A89
:100C6000FFF74CFC05460E46A06AFFF747FC8DE8EF
:100C7000E00141EC100B1DA053EC102B04F0E6FB3F
:100C80002834B0EE482A94EC030A04B0F0EE681A57
:100C9000BDEC028B0548BDE8F041843003F0C1BED5
:100CA000D80A002000004842000016430C0800202B
:100CB0000000A0425B5049445F496E69745D205357
:100CC000706565645F4C3A204B703D252E32662C72
:100CD000204B693D252E32662C204B643D252E325B
:100CE000660D0A000000FA44004083455B50494409
:100CF0005F496E69745D2053706565645F523A2088
:100D00004B703D252E32662C204B693D252E3266D8
:100D10002C204B643D252E32660D0A00014900202F
:100D200048607047580000201A481B4990ED010A9E
:100D300081ED000A90ED020A81ED010A90ED030AAF
:100D400081ED020A90ED040A2C3181ED000A90ED4C
:100D5000050A81ED010A90ED060A81ED020A90ED87
:100D6000070A2C3181ED000A90ED080A81ED010A95
:100D700090ED090A81ED020A90ED0A0A2C3181ED0D
:100D8000000A90ED0B0A81ED010A90ED0C0A81ED4D
:100D9000020A7047D40A00200C08002010B504F0A5
:100DA000D9F8BDE810400249024805F002B9000038
:100DB000606C0008780700202DE9F04F55489BB083
:100DC0000778002F21D05448007800281DD1524CBC
:100DD0000026641C2046217845784FF0010B681EE0
:100DE00000F0FF09681C4FF0020A00F0FF0831B163
:100DF000012927D0022925D0032906D126E0012F79
:100E000004D0042F09D0022F0ED07DE015B184F854
:100E1000019079E084F801A076E0022D02D284F8F6
:100E2000018071E066706FE035B1012D07D0022DB1
:100E3000F8D103202070F5E784F800B0F2E784F8D9
:100E400000A0EFE7032F5FD12670EBE7682233495C
:100E50006846FFF7E8F9E07828B3694601EBC50179
:100E60005DF8350091ED010A18B1012F04D0042F6F
:100E700007D0022F15D047E0D0ED000A30EE800AEF
:100E80000CE0D0ED000A30EEC00A80ED000AB5EEAD
:100E9000C00AF1EE10FA37D29FED210A80ED000A68
:100EA00032E0E67030E01C48401C012F817806D00B
:100EB000042F10D0022F1AD0032F21D024E035B1F7
:100EC000484684F8019089451ED2A0701CE00C2091
:100ED00060700920F9E70C2D07D2091D404684F8FF
:100EE0000180884510D3C01EEFE766700BE00C2D23
:100EF00002D084F803B007E0FFF714FDFFF714FFFA
:100F0000267084F801A0A670034807701BB0BDE8E6
:100F1000F08F00003000002001000020846B0008EA
:100F20000000000010B5FFF747FF0E4804F07BFFFC
:100F30000D48007828B1012806D0022807D00328E0
:100F400008D000F01BFB07E000F064FB04E000F0B9
:100F500099FA01E000F0D2FBBDE81040014805F02D
:100F60001FB80000780700200200002000B587B0FD
:100F700014216846FFF770F90B480021026842F01F
:100F800010020260006800F0100005904FF4D87065
:100F9000CDE900010120CDE902016946034801F0D5
:100FA0007DF807B000BD000030380240001002405C
:100FB0002DE9FC41274C1021204601F067F958B378
:100FC0005FF000008DF801002021204601F05EF95D
:100FD00020B300208DF802008021204601F056F950
:100FE000F0B100208DF803004FF48071204601F02D
:100FF0004DF9B8B15FF00000174A8DF804000120E8
:10100000511D00256E468B1F345C9CB1145C022C74
:101010000AD2641C145417E00120D3E70120D9E759
:101020000120DFE70120E7E70C5C6CB901240C54D8
:10103000187009E015540C5C012C05D10D541F7873
:10104000C4B2BC4200D11D70401C0528DCDBBDE8E9
:10105000FC810000001002403100002070B5084DF6
:10106000002405F1080600BF35F8141056F82400D6
:10107000012201F010F9641C042CF5DB70BD0000A6
:1010800018000020032809D80549054A083231F81C
:10109000101052F82000012201F0FDB87047000046
:1010A00018000020032809D80549054A083231F8FC
:1010B000101052F82000002201F0EDB87047000037
:1010C00018000020FEE7000010B52FA004F0BEF9C4
:1010D00003F0DEF833A004F0B9F900F097FB3AA072
:1010E00004F0B4F904F04CFE41A004F0AFF9FFF7AE
:1010F0006DFB49A004F0AAF900F0E0FC4FA004F059
:10110000A5F9FFF7ABFF56A004F0A0F9FFF72EFFFB
:101110005C4801F061FE5CA004F098F9674803F0B8
:10112000B5FBFFF753FD66A004F090F96F4801F09E
:1011300053FE6FA004F08AF9FFF730FE7CA004F0A4
:1011400085F903F0F5FA83A004F080F9012200216B
:10115000894803F0B3FA01220021884803F0AEFA6F
:1011600001220021864803F0A9FA00221146854891
:1011700003F0A4FA03220021834803F09FFABDE89C
:10118000104082A004F062B95B436F72655F4D61ED
:10119000696E5F496E69745D2053746172742E2E9E
:1011A0002E0D0A005B436F72655F4D61696E5F498A
:1011B0006E69745D204D6F746F7220496E69742082
:1011C000646F6E652E0D0A005B436F72655F4D6143
:1011D000696E5F496E69745D20456E636F64657208
:1011E00020496E697420646F6E652E0D0A00000040
:1011F0005B436F72655F4D61696E5F496E69745DD7
:10120000204457542044656C617920496E697420EC
:10121000646F6E652E0D0A005B436F72655F4D61F2
:10122000696E5F496E69745D20436F6D6D20496E14
:10123000697420646F6E652E0D0A00005B436F7247
:10124000655F4D61696E5F496E69745D20475053FB
:1012500020496E697420646F6E652E0D0A000000CF
:101260005B436F72655F4D61696E5F496E69745D66
:10127000204C454420496E697420646F6E652E0DC4
:101280000A000000341000205B436F72655F4D61FF
:10129000696E5F496E69745D204B657920496E699E
:1012A0007420646F6E65202854494D313320537487
:1012B0006172746564292E0D0A0000009C110020E3
:1012C0005B436F72655F4D61696E5F496E69745D06
:1012D00020466F6C6C6F772050494420496E6974CA
:1012E00020646F6E652E0D0A000000007C10002047
:1012F0005B436F72655F4D61696E5F496E69745DD6
:10130000204F70656E4D5620496E697420646F6E73
:101310006520285553415254362920262054494DE2
:10132000313420537461727465642E0D0A0000001C
:101330005B436F72655F4D61696E5F496E69745D95
:1013400020554920496E697420646F6E652E0D0A20
:10135000000000005B436F72655F4D61696E5F491D
:101360006E69745D204F5320496E697420646F6EFE
:10137000652E0D0A00000000454F0008F11A000814
:1013800031490008B94E0008A74E00085B436F7250
:10139000655F4D61696E5F496E69745D20416C6C7B
:1013A000207461736B7320637265617465642E20B1
:1013B00053797374656D2052656164792E0D0A004E
:1013C00003F002BA014800F03BBC0000E411002029
:1013D000014800F035BC00004412002001681823C9
:1013E000CAB2103AB2FBF3F2054B6FF30901032ABC
:1013F0009B5CC36500D9091D8165084670470000E4
:101400006C78000810B5014600208B698A6A4FF09D
:10141000C07453B1B3F5005F15D072B1012A0CD07E
:10142000022A0AD0032A09D104E01AB1012A06D0FF
:10143000022A03D1C96AC90100D5012010BDC96AB9
:10144000A142FAD010BD002AF7D0012AF2D0022A18
:10145000F3D0032AF3D010BD30B50468256825F415
:1014600080252560046863608368402B036803D08F
:1014700099600068C26030BD9A600068C16030BD8C
:101480007047000010B58CB029492A4804F091FD3E
:1014900029A30C220021274804F062FD80230E229C
:1014A0000021244804F000FD2649224804F081FD73
:1014B000254C94F87800012801D924A300E024A346
:1014C00094F87900009023A2202103A803F0CEFF16
:1014D00003AB1C220021174804F042FD94F8600081
:1014E00000B94E20029094ED160B1EA28DED000B5C
:1014F000202103A803F0BAFF03AB2A2200210D48E4
:1015000004F02EFD94F8700000B94520029094ED8F
:101510001A0B17A28DED000B202103A803F0A6FFE4
:1015200003AB38220021034804F01AFD0CB010BDB3
:10153000EE7000087807002047505320496E666F10
:1015400000000000606C0008680600204649580052
:101550004E4F000053743A202573205361743A258E
:10156000640000004C61743A252E34662563000047
:101570004C6F6E3A252E346625630000FEB51C4A7A
:1015800007CA8DE807001B491B4804F012FD1BA386
:101590000C220021184804F0E3FC80230E220021D5
:1015A000154804F081FC1849134804F002FD00249A
:1015B000164E6F461E257078A04209D1C4EBC400B8
:1015C00005EB400082B212A300210B4804F0C8FCD6
:1015D000C4EBC40005EB400082B257F824300A2166
:1015E000054804F0BDFC641C032CE4DBFEBD0000D8
:1015F000EC6B0008EE700008780700204D61696E02
:10160000204D656E75000000606C0008020000202F
:101610003E00000000B58BB02149224804F0C9FC0F
:1016200021A30C2200211F4804F09AFC80230E22E3
:1016300000211C4804F038FC1F491A4804F0B9FC8A
:101640001E48007848B31EA31C220021154804F050
:1016500087FC1E488068FEF751FFCDE900011CA2FF
:10166000202102A803F002FF02AB2A2200210D482C
:1016700004F076FC19488068FEF740FFCDE90001D0
:1016800017A2202102A803F0F1FE02AB38220021AC
:10169000044804F065FC0BB000BD14A3D4E70000BF
:1016A000EE700008780700204D6F746F72204D6F48
:1016B0006E69746F72000000606C00080D000020FD
:1016C0004D6F64653A204155544F00003C000020A6
:1016D0004C3A20252E31662052504D004800002003
:1016E000523A20252E31662052504D004D6F6465D0
:1016F0003A204D414E55414C000000002DE9F04785
:10170000A4B03549354804F054FC35A30C2200211F
:10171000324804F025FC80230E2200212F4804F0DB
:10172000C3FB32492D4804F044FC6822304902A82A
:10173000FEF779FD2F488178092901D909218170A7
:101740008046CFB200250DF108097C190D2C40DA36
:1017500005EB45001C2101EB800698F80100A04232
:1017600005D1B2B224A300211C4804F0F9FB59F8BA
:101770003430B2B20A21194804F0F2FB09EBC40A72
:10178000DAF8040010B30068FEF7B8FECDE90001F6
:101790001AA220211CA803F069FE98F8031079B161
:1017A00098F80100A0420BD1DAF804000068FEF7B7
:1017B000A5FECDE9000113A220211CA803F056FECE
:1017C000B2B21CAB4621054804F0CAFB6D1C042DC7
:1017D000BBDB24B0BDE8F087EE700008780700207E
:1017E00050494420436F6E6669670000606C0008D2
:1017F000F86B0008020000203E000000252E326633
:10180000000000005B252E32665D000010B53C2113
:10181000044801F02BFCBDE810403C21024801F0D7
:1018200025BC00005C0F0020EC0F0020026812684D
:10183000526A13B20A681268526A9FED151A9FED38
:10184000150A12B203B300EE903ADFED131AF8EE68
:10185000E00A60EE800A80EEA12A80ED022A4AB1F9
:1018600000EE902AF8EEE00A20EE800ADFED0B0A87
:1018700080EE201A002281ED021A006800684262A0
:10188000086800684262704780ED021AE7E70000CE
:1018900000000000000070420000DCC20000DC42DA
:1018A00072B6FEE7002229B101291AD002291BD005
:1018B0004FF440720E490B6823F440730B600B68C1
:1018C00013430B600A6822F078020A600A68022358
:1018D00003EBC00002430A60086840F480300860EF
:1018E00070474FF48072E5E74FF40072E2E70000C2
:1018F000103C02401348016889050FD5016821F4A6
:1019000000710160016841F400610160016821F427
:1019100000610160016841F40071016001684905DE
:101920000FD5016821F480610160016841F48051A4
:101930000160016821F480510160016841F4806117
:1019400001607047003C024008490A6822F4407276
:101950000A600A6842F004020A600A684FF48033A1
:1019600043EA002002430A6070470000103C024036
:10197000064A136823F440731360136813601368F6
:1019800043F001031360017070470000103C0240F7
:10199000094910B50C6824F440740C600C6844F4D8
:1019A00040740C600C6844F001040C600260BFF3EA
:1019B0006F8F436010BD0000103C0240074A13685F
:1019C00023F440731360136843F480731360136847
:1019D00043F001031360018070470000103C024097
:1019E000074A136823F440731360136843F40073C9
:1019F0001360136843F00103136001607047000037
:101A0000103C024017490868C206174805D5C2694C
:101A100042F01002C26110220A600A68920605D5DF
:101A2000C26942F00802C26120220A600A685206B6
:101A300005D5C26942F00402C26140220A600A6808
:101A4000120605D5C26942F00202C26180220A6014
:101A50000A68920705D5C26942F02002C2610220DD
:101A6000086070470C3C02407C00002070B51149B2
:101A700004460020C86100F013FC06460E4D09E044
:101A8000601C07D024B100F00BFC801BA04201D9E0
:101A9000032070BD2868C003F2D42868C00701D0B5
:101AA00001202860286810F0F200F2D0FFF7AAFFAA
:101AB000012070BD7C0000200C3C024010B50122CA
:101AC00054022146074800F0E6FB22460649074833
:101AD00001F0D4FF05480068C16841F01001C16001
:101AE00010BD0000001002406802002054110020C8
:101AF0000A4810B5017859B100210170084901F573
:101B0000007002F045FC064901F5007002F008FC87
:101B1000BDE81040C82002F0F1BD00001200002016
:101B20006804002038B5144C20680168C90622D525
:101B30000168002540680090204601F005FDE06B3B
:101B400000684068C0F500700404240C0BD00B49F9
:101B5000224601F50070FEF766FB09480555094865
:101B6000448001210170BDE838404FF40072034900
:101B7000014801F083BF38BD5411002068020020E5
:101B800068040020120000202DE9F0410446876D12
:101B900000F086FB064694F835000025022806D0A2
:101BA0008020606584F834500120BDE8F081206811
:101BB000016821F0160101602068416921F080016F
:101BC0004161206C08B9A06C20B12068016821F047
:101BD000080101602068016821F0010101600CE04A
:101BE00000F05EFB801B052807D9202060650320DC
:101BF00084F8350084F83450D7E720680068C007BF
:101C0000EED194F85C103F208840B860012084F841
:101C1000350084F834500020C7E790F835100229C9
:101C200003D08021416501207047052180F83510DF
:101C30000068016821F00101016000207047000088
:101C40002DE9F84304464FF00009CDF800906348B1
:101C50004FF41651A56D0068B0FBF1F72E6894F8AB
:101C60005C10082000FA01F131420FD021680A68A7
:101C700052070BD50A6822F004020A6094F85C103F
:101C80008840A860606D40F00100606594F85C10C9
:101C90004FF0010808FA01F0304208D02168496984
:101CA000090604D5A860606D40F00200606594F8F4
:101CB0005C1004208840304208D0216809688907F8
:101CC00004D5A860606D40F00400606594F85C1075
:101CD00010208840304218D021680968090714D5BF
:101CE000A86020680168490304D50068000308D58E
:101CF000A16C07E00168C90503D4016821F008015F
:101D00000160216C09B12046884794F85C102020BE
:101D10008840304231D021680968C9062DD5A860B5
:101D200094F8350005282068016806D0490347D596
:101D3000006800031DD4616C1CE021F016010160F5
:101D40002068416921F080014161206C08B9A06CD4
:101D500020B12068016821F00801016094F85C104E
:101D60003F208840A86084F8358084F83490216D45
:101D70001FE0E16B09B120468847606D00282BD039
:101D8000606DC00714D0052084F835002068016814
:101D900021F0010101600098401C0090B84203D876
:101DA00020680068C007F6D184F8358084F8349044
:101DB000E16C002910D001B02046BDE8F04308478F
:101DC0000168C905D5D4016821F01001016084F8CB
:101DD000358084F83490CCE7BDE8F883A800002073
:101DE0002DE9F041044600F05BFA06465CB10220A2
:101DF00084F83500002584F834502068016821F00B
:101E0000010101600DE00120BDE8F08100F048FA19
:101E1000801B052805D920206065032084F8350043
:101E2000F2E720680068C007F0D1226811682048F6
:101E30000140D4E901031843D4E90336334318437E
:101E400063691843A3691843E3691843236A184375
:101E50000843616A042903D1D4E90B1319430843E9
:101E6000106020684069666A20F0070130460E4322
:101E7000012704280CD1A06A0643E06A40B120463D
:101E8000FFF7C0FA20B14020606584F83570BAE7EA
:101E9000206846612046FFF7A1FA94F85C203F21B4
:101EA00091408160656584F835700020ACE70000E2
:101EB0003F8010F02DE9F0410446866D90F8340023
:101EC000002501280DD0012084F8340094F83570E5
:101ED0000020012F07D084F8340002252846BDE8F1
:101EE000F0810220FBE7022784F835706065204608
:101EF000FFF7B2FA94F85C103F208840B060206889
:101F0000016841F016010160206C20B12068016871
:101F100041F0080101602068016841F001010160A1
:101F2000DCE7000070B5044600F0BAF90546601C15
:101F300002D004480078044400F0B2F9401BA042EB
:101F4000FAD370BD9C0000202DE9F04704462248DA
:101F50000F46017E01290AD00121804601764CF20C
:101F600050394846FFF782FD020003D02FE00220DF
:101F7000BDE8F0874FF0FF3038602068174D01282A
:101F800001D0A6681CE0207C6168FFF7DDFC4846B4
:101F9000FFF76CFD0246286820F00400286014E07A
:101FA000217C3046FFF77EFC4846FFF75FFD0200CC
:101FB000286820F07A00286001D03E6005E0761C99
:101FC000D4E902100844B042EAD8FFF793FC00219C
:101FD00088F818101046CBE77C000020103C024027
:101FE0000348016841F00041016000207047000093
:101FF000103C02402DE9F0471B4E05461446307E4A
:102000001F468946012808D0012030764CF250380E
:102010004046FFF72BFD18B114E00220BDE8F08721
:102020009DB1012D16D0022D19D022463B464846BF
:10203000FFF7AEFC4046FFF719FD0C490A6822F095
:1020400001020A6000213176E8E7E1B24846FFF775
:102050008FFCEFE7A1B24846FFF7B0FCEAE7214664
:102060004846FFF7BDFCE5E77C000020103C02403D
:10207000074900200A68002A09DA054A054B0C3A8C
:102080001360054B13600968002900DA01207047CE
:10209000103C024023016745AB89EFCD2DE9F84F95
:1020A000DFF8BCA10022012503264FF00F090AF139
:1020B000040BAAF1040E00BF0B6805FA02F42340DA
:1020C000A34270D10F7907F00307012F01D0022F2F
:1020D00016D187684FEA420806FA08FC27EA0C077F
:1020E000D1F80CC00CFA08FC4CEA070CC0F808C088
:1020F0004768A7430C79C4F3001494403C43446000
:102100000C79E443A4070AD0C4684FEA420C06FAEB
:102110000CF7BC438F6807FA0CF72743C7600C79AC
:1021200004F00304022C12D1D40800EB840CDCF878
:1021300020405707FF0E09FA07F824EA0804D1F8EF
:10214000108008FA07F848EA0408CCF820800468F0
:102150004FEA420C06FA0CF7BC430F7907F003076D
:1021600007FA0CF7274307604C6814F4403F70D01F
:102170003C4C276847F480472760246822F0030717
:1021800004F480440094384C07EB040CDCF8084855
:1021900097074FEA177809FA08F7BC43334FB8425C
:1021A00002D1002724E054E0314FB84201D1012789
:1021B0001EE0304FB84201D1022719E02E4FB8423D
:1021C00001D1032714E02D4FB84201D104270FE0BD
:1021D0002B4FB84201D105270AE02A4FB84201D15E
:1021E000062705E0284FB84201D1072700E008275D
:1021F00007FA08F72743CCF80878DAF80040574682
:10220000D1F804C09C435FEACC2C00D51C433C6051
:10221000DBF800405F46D1F804C09C435FEA8C2C99
:1022200000D51C433C60DEF800407746D1F804C07E
:102230009C435FEA8C3C00D51C433C60084F083F40
:102240003C68D1F804C09C435FEACC3C00D51C43F9
:102250003C60521C102AFFF42FAFBDE8F88F00003D
:10226000083C014044380240003001400000024078
:102270000004024000080240000C0240001002402E
:102280000014024000180240001C0240006908408F
:1022900000D0012070470AB1816170470904FBE753
:1022A00001488068704700009C00002070B5040061
:1022B00025D094F83D00002520B984F83C502046F4
:1022C00000F04EF9242084F83D002068016821F0D8
:1022D000010101602068016841F40041016020684B
:1022E000016821F40041016000F0A4FA4D4A6168E0
:1022F000914201D84C4900E04C49884201D201206A
:1023000070BD4B492368B0FBF1F15E6826F03F06D3
:102310000E435E606368934206D94FF49673594347
:102320004FF47A73B1FBF3F12368491C1E6A26F05F
:102330003F06314319626168914210D84900401E3E
:10234000B0FBF1F2521CC2F30B02042A01D20420AA
:1023500022E0B0FBF1F0401CC0F30B001CE0A268CF
:10236000F2B301EBC10303EB0116431EB3FBF6F31B
:102370005B1C43F480431B0549D092B301EBC102BF
:1023800002EB0111401EB0FBF1F0401CC0F30B004A
:1023900040F4804040F400402168CA694CF6FF7365
:1023A0009A431043C861D4E90710014320680268CA
:1023B00022F0C00211430160D4E903010143206807
:1023C000826848F2FF339A4311438160D4E90501E2
:1023D00008432168CA6822F0FF021043C86001E088
:1023E0000EE016E02068016841F0010101602564FB
:1023F000202084F83D00256384F83E50002070BD05
:1024000001EB4106431EB3FBF6F35B1CB3E701206F
:10241000C2E701EB4101401EB0FBF1F0401CC0F3EC
:102420000B00B7E7A086010080841E0000093D0074
:1024300040420F002DE9F84F1F4690468A46044659
:10244000DDF82890FFF72CFF054694F83D00202882
:102450007FD11923012240492046009501F002FC5A
:10246000002876D194F83C00012872D0012084F82D
:102470003C0020680168C90703D1016841F00101EF
:1024800001602068016821F400610160212084F866
:102490003D00102084F83E0000262664C4F8248005
:1024A0006785608D20852D48E0622B464A4651465F
:1024B000204601F05DFB90B9206841698069009079
:1024C00036E02A464946204601F072FC50B1206CA5
:1024D000042804D12068016841F4007101600120E2
:1024E000BDE8F88F606A216800780861606A401C66
:1024F0006062618D491E6185218D491E89B22185E9
:1025000022685369DB435B070BD451B1007810613B
:10251000606A401C6062608D401E6085208D401E98
:1025200020852A464946204601F070FB0028CED17E
:10253000208D0028C5D154F83D0B016841F400718D
:102540000160202004F81E09E67766770020C7E7BF
:10255000FFE70220C4E70000020010000000FFFFB8
:1025600010B586B0044614216846FDF775FE14497F
:102570002068884221D113480021026842F00202FB
:102580000260006800F0020005904FF44070009077
:102590001220CDE901010320039004200490694634
:1025A0000948FFF77BFD07481030016841F400112E
:1025B0000160006800F40010059006B010BD000036
:1025C0000054004030380240000402400248816854
:1025D00002781144816070479C0000200B4810B5C0
:1025E000016841F400710160016841F4806101609B
:1025F000016841F480710160032000F06FF80F2042
:1026000000F006F800F024F8002010BD003C024065
:1026100070B50D4D04464FF47A712878B1FBF0F097
:102620000A490968B1FBF0F000F00CFB48B9102C26
:1026300007D200222146501E00F030F800206C60C6
:1026400070BD012070BD00009C000020A80000208B
:102650000A4808B5016841F480410160006800F44F
:10266000804000900548001F016841F080510160E2
:10267000006800F08050009008BD0000443802401F
:10268000002809DB00F01F02012191404009800071
:1026900000F1E020C0F8001170470000F0B40E4BCC
:1026A0001B680C46C3F30223C3F10705042D00D9B0
:1026B0000425191D072901D2002300E0DB1E012695
:1026C00006FA05F1491E214099409E40761E1640AB
:1026D0003143F0BC02F0E4BE0CED00E0064900F02E
:1026E000070208684FF6FF03184040EA0220034A39
:1026F00010430860704700000CED00E00000FA0590
:102700002DE9F0470E46050065D0DFF81481D8F8B2
:102710000000F7B200F00700B04207D288F800705E
:10272000D8F8000000F00700B04254D128683D4CB2
:10273000810712D5400703D5206840F4E05020609F
:102740002878000703D5206840F4604020602068A6
:10275000A96820F0F000084320602878C0072DD039
:10276000304968680839012812D0022813D003289C
:1027700011D00968890700292DDA216821F00301A9
:1027800001432160FFF78CFD814641F2883A0EE05B
:1027900009688903EFE709688901ECE7FFF780FD25
:1027A000A0EB0901514502D90320BDE8F08720685C
:1027B000696800F00C00B0EB810FEFD1D8F8001081
:1027C000404601F00701B14207D90770006800F0E8
:1027D0000700B04201D00120E7E72878400705D57F
:1027E0002068E96820F4E05008432060287800075A
:1027F00006D52068296920F4604040EAC1002060C5
:1028000000F038F82168084AC1F30311515CC84050
:102810000649086006480068FFF7FAFE0020C4E792
:10282000003C02400838024074780008A8000020EC
:10283000A00000200448054900680968044AC1F363
:102840008221515CC8407047A8000020083802402F
:10285000847800080448054900680968044AC1F3FF
:102860004231515CC8407047A8000020083802403F
:1028700084780008154810B5006810F00C02144860
:1028800013D01449042A0FD0082A0ED10F4C241F4C
:102890002268236802F03F025B0207D52068C0F37C
:1028A0008810A0FB010106E0084610BD2168C1F3B5
:1028B0008811A1FB00010023FDF784FC2168C1F30E
:1028C0000141491C4900B0FBF1F010BD083802403D
:1028D0000024F40040787D012DE9F84F04006ED00B
:1028E0002078DFF84C93C007A9F104054AD009F11C
:1028F00004000168C1F38101012908D00068C0F318
:10290000810002280AD1D9F80000400206D52868C3
:10291000800337D560680028E1D033E06068B0F507
:10292000803F10D0B0F5A02F286810D020F4803060
:102930002860286820F4802028606068A8B1FFF72C
:10294000AFFC06460DE0286840F48030F4E740F420
:1029500080202860F7E700BFFFF7A2FC801B6428F7
:1029600073D828688003F7D50CE0FFF799FC06467A
:1029700005E000BFFFF794FC801B6428F0D82868AE
:102980008003F7D42078DFF8AC8280074FF0000A8C
:102990003ED5A748001D016811F00C0F08D0006853
:1029A000C0F3810002280BD1D9F80000400207D4FF
:1029B0002868800716D5E068012800D112E033E1CD
:1029C000E068B8B10120C8F80000FFF769FC0646CE
:1029D00005E000BFFFF764FC801B0228C0D8286810
:1029E0008007F7D52868216920F0F80040EAC10087
:1029F00028600DE0C8F800A0FFF752FC064604E08E
:102A0000FFF74EFC801B02281FD828688007F7D4E8
:102A10002078000722D5864F87486169703771B1E9
:102A200001210160FFF73CFC064604E0FFF738FC9B
:102A3000801B022809D838688007F7D50EE0C0F857
:102A400000A0FFF72DFC064605E082E0FFF728FC1A
:102A5000801B02287DD838688007F7D4207840078B
:102A600068D5DFF8CCB100270BF13C0BDBF8000098
:102A7000C0000BD4DBF8001041F08051CBF80010FF
:102A8000DBF80000012700F0805000906B4E3068AA
:102A9000C00510D4306840F480703060FFF700FC4F
:102AA000009005E0FFF7FCFB0099401A022850D87F
:102AB0003068C005F6D55E4EA0686C3601280FD090
:102AC0000528306810D020F001003060306820F018
:102AD00004003060A068B8B1FFF7E2FB00900FE09F
:102AE000306840F00100F4E740F004003060F7E7A0
:102AF000FFF7D6FB0099411A41F28830814266D82F
:102B000030688007F4D50EE0FFF7CAFB009007E0BD
:102B1000FFF7C6FB0099411A41F28830814256D82E
:102B200030688007F4D42FB1DBF8001021F0805119
:102B3000CBF80010A069C8B33D49091D0968C1F36D
:102B4000810102294AD00228504607D0C8F8600007
:102B500000E03CE0FFF7A4FB04463BE04746C8F832
:102B60006000FFF79DFB064605E000BFFFF798FBFE
:102B7000801B02282BD828688001F7D4D4E90701EC
:102B80000843A16A2E4A490802EB0141626A41EA00
:102B90008211084394F82C1040EA0161C9F8001032
:102BA00001203866FFF77CFB044606E03EE000BFEC
:102BB000FFF776FB001B022809D828688001F7D5AB
:102BC00034E000BFFFF76CFB001B022802D9032092
:102BD000BDE8F88F28688001F4D427E00128F7D0F9
:102BE000D9F80000E26900F4800191421CD1226A08
:102BF00000F03F01914217D147F6C071626A01406F
:102C0000B1EB821F10D1A26A4FF0FF3300F44031C4
:102C100003EB5202B1EB024F06D194F82C1000F0F6
:102C20007060B0EB016F01D00120D1E70020CFE749
:102C30000438024000004742800E474200700040C6
:102C40000000FFFF10B5401EB0F1807F01D30120CE
:102C500010BD4FF0E02460610F21601702F020FCEE
:102C60000020A06107202061002010BD7047704740
:102C700070B590F83C20012A32D0012480F83C4005
:102C8000022280F83D2003685A689D6822F0700691
:102C90000A6832435A60134B02689A4214D0B2F168
:102CA000804F11D0104B9A420ED0104B9A420BD04D
:102CB0000F4B9A4208D00F4B9A4205D00E4B9A42C6
:102CC00002D00E4B9A4204D1496825F08003194383
:102CD000916080F83D40002180F83C10084670BDAE
:102CE000022070BD000001400004004000080040C8
:102CF000000C00400004014000400140001800406A
:102D000010B5040003D094F83D0010B107E0012095
:102D100010BD002084F83C00204600F01FF802207F
:102D200084F83D00211D206801F050FF012084F847
:102D3000460084F83E0084F83F0084F8400084F8A0
:102D4000410084F8420084F8430084F8440084F889
:102D5000450084F83D00002010BD000008B51A4A67
:102D600001681A48914208D1016841F004010160EC
:102D7000006800F00400009008BD154A91420ED191
:102D8000016841F0800101600068002200F08000CD
:102D9000009011462C20FFF781FC2C2010E00D4AFA
:102DA0009142E9D1016841F480710160006800221C
:102DB00000F48070009011462D20FFF76FFC2D204D
:102DC000BDE80840FFF75CBC000800404038024006
:102DD000001C00400020004090F83D10012901D067
:102DE00001207047022180F83D100168CA6842F056
:102DF0000102CA6000681149884214D0B0F1804FC6
:102E000011D00F4988420ED00E4988420BD00E498E
:102E1000884208D00D49884205D00D49884202D029
:102E20000C49884204D1816801F00701062903D0CA
:102E3000016841F00101016000207047000001407D
:102E40000004004000080040000C00400004014065
:102E5000004001400018004070B5044690F83C0066
:102E60000025012817D0012684F83C60022084F850
:102E70003D002068826822F0770222F47F4282605F
:102E80000868502838D00DDC20284FD005DC90B3DE
:102E9000102811D14AE0022070BD302846D04028C9
:102EA0000AD13BE060282FD070280DD0B0F5805FAC
:102EB00003D0B0F5005F12D0012584F83D600020FA
:102EC00084F83C00284670BDCB68D1E90121206818
:102ED00001F0F1FE2068816841F0770109E0CB68DC
:102EE000D1E90121206801F0E6FE2068816841F403
:102EF00080418160E1E719E0CA684968206801F013
:102F0000AFFF5021206806E0CA684968206801F0D8
:102F1000B8FF6021206801F0D8FECEE7CA68496892
:102F2000206801F09DFF40212068F4E722680146F7
:102F30001046F0E72DE9F0410D46040003D094F867
:102F40003D0018B108E00120BDE8F081002084F8C0
:102F50003C00204600F040F8022084F83D00206844
:102F6000816844F2070291438160211D206801F0CD
:102F70002DFE226890689169166A2B68AF69034339
:102F800040F20330814341EA0721A868EF69084312
:102F90004FF6FC418843E96840EA0720014328696D
:102FA0002F6A000140EA0730084369686D6926F01E
:102FB000AA0646EA0515294393602268906154F8F1
:102FC000460B0162012004F81F09E0752076E076C7
:102FD0002077A0750020B7E770B586B004461421AD
:102FE0006846FDF739F91E491C4E256800231C4A26
:102FF000103902241B48B54211D1156845F002056D
:103000001560126802F0020205920A6842F001029D
:103010000A60096801F001010591C02113E0124E18
:10302000B54218D1156845F008051560126802F020
:10303000080205920A6842F001020A60096801F07C
:103040000101059103210091CDE90143CDE903344C
:103050006946FFF723F806B070BD00000004004089
:103060004038024000000240000C004070B590F86B
:103070003E60044690F83F5090F8423090F843206C
:10308000022021B104290ED0012E1BD114E0012E03
:1030900018D1012B16D184F83E0084F84200012299
:1030A0000021206820E0012D0CD1012A0AD184F8EA
:1030B0003F0084F8430014E0012D03D1012B01D11E
:1030C000012A01D0012070BD84F83E0084F83F0041
:1030D00084F8420084F8430001220021206801F0B6
:1030E000DDFD01220421206801F0D8FD206801687F
:1030F00041F001010160002070BD70472DE9F041F1
:1031000004460068C66805694FF00007A90713D593
:10311000B10711D5F91E016101202077206880696F
:103120008007204602D0FFF7E8FF04E000F0A8F88F
:10313000204600F03AF92777680716D5700714D5AE
:1031400021686FF004000861022020772068806900
:1031500010F4407F204602D0FFF7CFFF04E000F0DC
:103160008FF8204600F021F92777280715D530077A
:1031700013D521686FF008000861042020772068CB
:10318000C0698007204602D0FFF7B7FF04E000F0D7
:1031900077F8204600F009F92777E80616D5F006FB
:1031A00014D521686FF0100008610820207720688E
:1031B000C06910F4407F204602D0FFF79EFF04E074
:1031C00000F05EF8204600F0F0F82777E80708D016
:1031D000F00706D021686FF001000861204600F07A
:1031E00049F9280608D5300606D521686FF0800019
:1031F00008612046FFF73AFD680608D5700606D537
:1032000021686FF040000861204600F053F9A806DD
:103210000AD5B00608D521686FF020000861204665
:10322000BDE8F041FFF723BDBDE8F08110B586B0E1
:10323000044614216846FDF70FF80E4920688842BD
:1032400015D10D480021026842F0080202600068B2
:1032500000F0080005904FF4405000900220CDE9A6
:103260000101CDE9031069460448FEF717FF06B0D7
:1032700010BD00000008004030380240000C024041
:10328000704770B5044690F83C0000260D460128B2
:103290000FD0012084F83C006AB1042A1DD0082A0E
:1032A0002FD00C2A3FD00126002084F83C00304665
:1032B00070BD022070BD206801F010FD206881699A
:1032C00041F0080181612068816921F00401816178
:1032D000206881692A69114311E0206801F02EFD00
:1032E0002068816941F4006181612068816921F46D
:1032F00080618161206881692A6941EA02218161D6
:10330000D2E7206801F050FD2068C16941F0080152
:10331000C1612068C16921F00401C1612068C169EF
:103320002A69114311E0206801F072FD2068C1692B
:1033300041F40061C1612068C16921F48061C1610B
:103340002068C1692A6941EA0221C161ACE710B570
:10335000040003D094F83D0010B107E0012010BD37
:10336000002084F83C00204600F01EF8022084F87B
:103370003D00211D206801F029FC012084F8460051
:1033800084F83E0084F83F0084F8400084F841004F
:1033900084F8420084F8430084F8440084F845002F
:1033A00084F83D00002010BD7047704710B50446FA
:1033B000022249B104290ED0082913D094F8410003
:1033C000012816D0012010BD94F83E000128F9D143
:1033D00084F83E200FE094F83F000128F2D184F8F1
:1033E0003F2008E094F840000128EBD184F8402009
:1033F00001E084F841200122206801F04FFC1649C9
:103400002068164A884201D0904203D1436C43F4AD
:10341000004343642068884213D0B0F1804F10D03D
:103420000F4988420DD00F4988420AD00E49884280
:1034300007D0904205D00D49884202D00C498842FD
:1034400004D1816801F00701062903D0016841F029
:1034500001010160002010BD000001400004014096
:103460000004004000080040000C00400040014003
:103470000018004010B500680A49884209D101F0DF
:1034800025FA09490948FEF7D1F9BDE81040FDF7D2
:1034900073BA0749884203D1BDE81040FDF788BDE3
:1034A00010BD000000200040480000203C0000202B
:1034B000001C0040704718B5034690F842002028D1
:1034C00001D0022018BD61B15AB10120186300205B
:1034D0005863184601F04AFF0028F3D1196B0129FF
:1034E00001D0012018BD19680A684968009119685F
:1034F0000C3151E8002F42F0100241E80024002C6A
:10350000F5D118BD10B50C460C4900680968884211
:1035100013D1802C00D980240949224601F1800072
:10352000FCF781FE0748848001218170BDE81040CE
:10353000802203490148FFF7BEBF10BD0C110020D7
:10354000300100200C00002010B5044600684069DE
:1035500094F84110C0F3C010212911D180B1206826
:10356000143050E8001F21F0800140E80012002ACA
:10357000F5D1A06B08B1FEF707FB204601F0B1FDC5
:103580002068406994F84210C0F38010222911D1BC
:1035900080B12068143050E8001F21F0400140E85D
:1035A0000012002AF5D1E06B08B1FEF7EDFA2046D3
:1035B00001F070FD002010BD0549006809688842CF
:1035C00004D1802203490248FFF775BF704700000D
:1035D0000C11002030010020F8B50168044608688D
:1035E000CA684B6910F00F0F4FF0000559D003F077
:1035F000010602F49077374365D0C10705D0D105A5
:1036000003D5616C41F001016164410705D5D9071B
:1036100003D0616C41F002016164810705D5D907CF
:1036200003D0616C41F004016164010707D502F029
:103630002001314303D0616C41F008016164616C89
:1036400000293AD0800604D5900602D5204601F024
:1036500056FD20684069616CC0F38010090700D4F2
:1036600060B3204601F016FD20684069400621D570
:103670002068143050E8001F21F0400140E800129B
:10368000002AF5D1E06BA8B172490165E06BFEF745
:10369000C4FA002811D0E06B016D01B0BDE8F04024
:1036A000084783060FD593060DD52046BDE8F840A0
:1036B00001F025BD2046FFF77FFFF8BD2046FFF74C
:1036C0007BFF6564F8BD266B2023012E7ED1C606E4
:1036D0007CD5D6067AD508684868009048694FF0CE
:1036E000020640064DD5E26B106840684FF48077C3
:1036F0000004000C3AD0A18D814237D9E085D06911
:10370000B8422DD020680C3050E8001F21F48071A1
:1037100040E80012002AF5D12068143050E8001F5C
:1037200021F0010140E80012002AF5D12068143090
:1037300050E8001F21F0400140E80012002AF5D1B6
:1037400084F84230256320680C3050E8001F21F0D7
:10375000100140E80012002AF5D1E06BFEF714FAE0
:103760006663A08DE18D401A81B206E0A18D814291
:10377000A8D1D069B842A5D166632046FFF7C2FE42
:10378000F8BDA08DE18D401A81B2E08D0028F7D000
:103790000029F5D020680C3050E8002F22F49072F8
:1037A00040E80027002FF5D12068143050E8002FA2
:1037B00022F0010240E80027002FF5D184F84230C2
:1037C000256320680C3050E8002F00E006E022F06E
:1037D000100240E80023002BF3D1CDE705062BD5DE
:1037E000150629D594F841002128C9D1A068B0F563
:1037F000805F01D12069B0B1206A411C216221683B
:1038000000784860E08C401E0004000CE084B7D1D2
:103810002068C16821F08001C1602068C16841F062
:103820004001C160F8BD206A0088C0F3080048600C
:10383000206A801C2062E5E74006F3D55006F1D5EA
:10384000CA68204622F04002CA6084F8413000F085
:1038500075F9F8BD994F000870B5040004D094F8CC
:103860004100002510B106E0012070BD84F84050F1
:10387000204600F023F8242084F841002068C16825
:1038800021F40051C160204601F09AFC20680169D2
:1038900021F4904101612068416921F02A014161D0
:1038A0002068C16841F40051C1606564202084F83B
:1038B000410084F842006563002070BD2DE9F043AB
:1038C00087B0054614216846FCF7C6FC6149604A8A
:1038D000D5F800C000245F481439022303260727C7
:1038E000DFF87491944519D1026842F01002026029
:1038F000006800F010000590086840F001000860C2
:103900000868694600F00100059070028DE8D90052
:103910004846FEF7C3FB07B0BDE8F0834D4ADFF829
:103920003C81121FC4451DD1106840F40030106066
:10393000106800F400300590086840F0010008604D
:103940000868694600F0010005900C208DE8D90058
:103950004846FEF7A3FB002211462620FEF79EFEF6
:10396000262039E0DFF8F8804FF48069C44536D16D
:10397000106840F480201060106800F480200590EA
:10398000086840F0020008600868694600F002001C
:1039900005904FF440608DE8D9003248FEF77EFB79
:1039A000324E314830604FF00060C6E90104C6E98C
:1039B00003497461B461F461346230467462FEF7A5
:1039C0000FFA08B1FDF76CFFEE63002211462720C5
:1039D000B563FEF763FE2720FEF752FE9BE7244AFD
:1039E000944598D1026842F020020260006800F01D
:1039F00020000590086840F00400086008686946E7
:103A000000F004000590C0208DE8590008200490C3
:103A10001848FEF743FB154E1748603630608005A6
:103A2000C6E90104C6E903497461B461F461346212
:103A300030467462FEF7D4F908B1FDF731FFEE634A
:103A4000002211464720B563FEF728FE4720C3E752
:103A50000010014044380240000002400044004091
:103A6000004800400004024028600240E4110020A9
:103A700000140140000802402864024090F84230DF
:103A8000202B01D00220704721B11AB1002303631B
:103A900001F01CBC01207047704770472DE9F843C6
:103AA000044690F84100984616460D46202802D05C
:103AB0000220BDE8F88385B17EB10020606421203A
:103AC00084F84100FEF7ECFBA6848146E684A068FA
:103AD0002027B0F5805F02D003E00120E9E72069EC
:103AE00010B12E4600250EE000260CE08021204675
:103AF00001F057FCA8B9C6B116F8010B216848605F
:103B0000E08C401EE084E08C4B464FF00002CDF884
:103B100000800028EAD14FF04001204601F041FC2E
:103B200040B184F841700320C3E735F8020BC0F3BD
:103B30000800E3E784F841700020BAE77047FEE729
:103B400001684A69D24352050FD46FF480624A611A
:103B5000002140F8301F202242738173026942F035
:103B600004020261017301207047002070470000C9
:103B7000F8B50446C06A1E460D461746082807D009
:103B8000012805D010F5803F02D0206B122804D107
:103B90002068016841F480710160134600224FF0F3
:103BA00001112046009600F05DF840B120680068E1
:103BB000C00502D54FF4007020640320F8BD2069D1
:103BC000B0F5804F0ED00620216800EAD51040F0F5
:103BD000F000086133463A460B49204600F08AF867
:103BE00078B902E005F0FE0000E0E8B22168086163
:103BF000054933463A46891F204600F07BF80028E5
:103C0000DCD00120F8BD00000800010070B51646A8
:103C10000D4604461EE02046FFF792FF08B1012042
:103C200070BD681C16D0FEF73BFB801BA84200D875
:103C300085B920684069C04340070BD5002044F88F
:103C4000300F20216173A073216941F020012161AF
:103C50002073E4E720684069C0434007DBD40020BC
:103C600070BD00002DE9F047984617460D46044602
:103C7000C1F30746DDF820902AE000BFB8F1FF3F0E
:103C800026D0FEF70DFBA0EB0901414502D8B8F1A3
:103C9000000F1DD12068012E16D0806925EA000092
:103CA0000004000C12D00020B84211D1002044F8CA
:103CB000300F20216173A073216941F0200121613F
:103CC00020730120BDE8F0874069E7E70120EBE7BA
:103CD0002068012E0AD0806925EA00000004000C4B
:103CE00006D00020B842C9D00020EBE74069F3E7D6
:103CF0000120F7E72DE9F047984616460D460446A1
:103D00004FF000094FF0200AC1F3074723E0206875
:103D10004069C043400515D42068016841F4007132
:103D2000016021686FF480604861C4F8309084F8C5
:103D30003DA084F83E90216C41F00401216484F898
:103D40003C9021E0701C06D0FEF7AAFAA0EB080018
:103D5000B04203D816B1012F1FD021E02068012FF7
:103D600015D0806925EA00000004000C18D000BFBF
:103D700044F8309F84F80DA084F80E90216941F03A
:103D80002001216184F80C900120BDE8F087406992
:103D900025EA00000004000CEAD12068406901E037
:103DA0002068806925EA00000004000CAFD1ECE730
:103DB00070B516460D4604461EE02046FFF7C0FECD
:103DC00008B1012070BD681C16D0FEF769FA801B8F
:103DD000A84200D885B920684069C04300060BD5C9
:103DE000002044F8300F20216173A073216941F055
:103DF000200121612073E4E720684069C043000688
:103E0000DBD4002070BD0000114808B5016841F402
:103E100000110160016801F400110091016841F492
:103E2000800101600068002200F4800000901146CB
:103E30000C20FEF733FC0C20FEF722FC002211467A
:103E40003920FEF72BFCBDE808403920FEF718BCEE
:103E5000303802402DE9F04F87B014216846FCF756
:103E6000FBF941480024016841F01001016001683C
:103E700001F010010591016841F004010160016841
:103E800001F004010591016841F0800101600168C1
:103E900001F080010591016841F0010101600168B4
:103EA00001F001010591016841F002010160016822
:103EB00001F002010591016841F00801016000680C
:103EC000DFF8A89000F008004FF40C550590002290
:103ED00029464846FEF7DFF9DFF894A04FF4007654
:103EE000002231465046FEF7D6F9DFF888B04FF48D
:103EF0007047002239465846FEF7CDF94FF4404846
:103F0000002241461C48FEF7C6F94FF4D870CDE9AF
:103F10000004694650460294FEF7C0F8009501255A
:103F2000CDE90154694648460394FEF7B7F8009678
:103F3000CDE90154694650460394FEF7AFF8009767
:103F4000CDE90154694658460394FEF7A7F8CDF829
:103F50000080CDE90154694607480394FEF79EF8B6
:103F600007B0BDE8F08F0000303802400008024082
:103F70000010024000040240000C02400D4810B541
:103F80000B4901600C49416000214FF4804281607F
:103F9000C0E9031241618161C1610162FEF786F9E6
:103FA000002803D0BDE81040FDF77ABC10BD00002A
:103FB00000540040080F0020A08601000C4810B5F6
:103FC0000A49016042F2CF01416000216322C0E949
:103FD0000212016180218161FEF792FE002803D068
:103FE000BDE81040FDF75CBC10BD0000001C0040A7
:103FF000341000200C4810B50A490160532141607B
:1040000000214CF24F32C0E902120161802181612E
:10401000FEF776FE002803D0BDE81040FDF740BC57
:1040200010BD0000002000407C10002010B58CB0B6
:1040300024216846FCF710F9002416480994144915
:104040000A94C0E900144FF6FF71C0E9024104610F
:1040500084610320CDE9000401200A21CDE9020496
:104060000491CDE90540079469460A480894FEF793
:1040700061FF08B1FDF714FC099409A905480A94E9
:10408000FEF7F6FD002801D0FDF70AFC0CB010BDCC
:10409000000400405C0F002010B58EB0002407948F
:1040A000089409940A940B941C2168460C94FCF71C
:1040B000D3F82348214901600121C0E9011441F2EC
:1040C0006701C0E9031480218161FEF719FE08B180
:1040D000FDF7E6FB4FF48050079007A91848FEF75C
:1040E000BBFE08B1FDF7DCFB1548FFF730F908B15E
:1040F000FDF7D6FB0B940BA911480C94FEF7B8FD05
:1041000008B1FDF7CDFB6020CDE900040294002248
:1041100069460B480494FFF7B4F808B1FDF7C0FBFB
:10412000042269460648FFF7ACF808B1FDF7B8FB72
:104130000348FFF77BF80EB010BD000000080040F8
:10414000A40F002010B58CB024216846FCF784F839
:1041500000241548099413490A94C0E90014611E0B
:10416000C0E90241046184610320CDE9000401201B
:10417000CDE902040494CDE90540079469460A4854
:104180000894FEF7D7FE08B1FDF78AFB099409A948
:1041900005480A94FEF76CFD002801D0FDF780FB6E
:1041A0000CB010BD000C0040EC0F00200C4810B506
:1041B0000A4901604FF4E1314160002181600C2225
:1041C000C160C0E904128161C161FFF745FB0028AD
:1041D00003D0BDE81040FDF763BB10BD00100140E7
:1041E000C41000200C4810B50A4901604FF4E131B9
:1041F0004160002181600C22C160C0E9041281612C
:10420000C161FFF729FB002803D0BDE81040FDF78E
:1042100047BB10BD004400400C1100200C4810B5F5
:104220000A4901604FF4E1314160002181600C22B4
:10423000C160C0E904128161C161FFF70DFB002874
:1042400003D0BDE81040FDF72BBB10BD0048004077
:10425000541100200C4810B50A4901604FF4E131B7
:104260004160002181600C22C160C0E904128161BB
:10427000C161FFF7F1FA002803D0BDE81040FDF757
:104280000FBB10BD001401409C110020FEE7000090
:1042900010B51548134B042141F268020361C0E9CF
:1042A000051212494FF480440160848064008160EB
:1042B00084811C30036100230160C0E905328A1447
:1042C000828081605100818101220948FDF7E3FF6E
:1042D000054800F01DFC0448BDE810401C3000F00B
:1042E00017BC0000A40F0020300200200004024090
:1042F0000008024003460DE002782A2A03D0202A53
:1043000001D37A2A01D9FF2070472C2A01D1491EF6
:10431000C9B2401C0029EFD1C01AC0B270470000DA
:1043200030B50A462DED028B054681B017A1104627
:10433000FBF79DFF040025D00921FFF7DBFFFF28D5
:1043400014D02044694600F057F900EE100A9DF899
:1043500000100A20B8EEC08A00F046F900EE100AFC
:10436000B8EE400AC8EE000AC5ED220A0721204631
:10437000FFF7C0FFFF2805D02044694600F03CF954
:1043800085F8790001B0BDEC028B30BD4747410094
:104390002DE9F0410A462DED048B044682B08FA131
:1043A0001046FBF764FF05007DD00121FFF7A2FF57
:1043B00042F210774FF06408FF281BD0284469466A
:1043C00000F01AF906469DF800100A2000F00CF9DA
:1043D000B6FBF0F1B1FBF7F020714046B1FBF0F213
:1043E000B2FBF0F308FB13226271B1FBF8F208FB99
:1043F0001210A07103212846FFF77CFF9FED789AE9
:10440000FF2848D02844694600F0F6F806469DF893
:104410000000801CC1B20A2000F0E6F8B6FBF0F004
:10442000FCF75FF8C4E916019DF80000801CC1B2DA
:104430000A2000F0D9F8B6FBF0F100FB116000EEA5
:10444000100A9DF80000C0F10500C1B2B8EE408A24
:104450000A2000F0C9F800EE100AB8EE400A60EE3B
:10446000080A80EE890A10EE100AFCF747F841ECC2
:10447000180B05210A2000F0B7F8FCF732F894ED8C
:10448000161B53EC112BFBF7BAFF53EC182BFBF761
:104490000FFFC4E9160104212846FFF72BFFFF2870
:1044A00004D0285C00E094E084F8600005212846F0
:1044B000FFF720FFFF2848D02844694600F09CF809
:1044C00006469DF80000801CC1B20A2000F08CF85E
:1044D000B6FBF0F0FCF705F8C4E91A019DF80000FE
:1044E000801CC1B20A2000F07FF8B6FBF0F100FB9F
:1044F000116000EE100A9DF80000C0F10500C1B285
:10450000B8EE408A0A2000F06FF800EE100AB8EE0C
:10451000400A60EE080A80EE890A10EE100AFBF7E6
:10452000EDFF41EC180B05210A2000F05DF8FBF7C8
:10453000D8FF94ED1A1B53EC112BFBF760FF53ECE3
:10454000182BFBF7B5FEC4E91A0106212846FFF730
:10455000D1FEFF2802D0285C84F87000072128468D
:10456000FFF7C8FEFF2818D02844694600F044F839
:1045700008EE100A9DF800100A2000F035F800EE51
:10458000100AB8EE481AB8EE400AC1EE000A9FEDD4
:10459000150A20EE800A84ED1D0A09212846FFF73E
:1045A000A9FEFF2815D02844694600F025F8B0FB85
:1045B000F7F1E1704146B0FBF1F2B2FBF1F308FB19
:1045C0001322A270B0FBF8F208FB120000F5FA60AB
:1045D000208002B0BDEC048BBDE8F081524D430059
:1045E00000007042560EED3F0246012000E05043AD
:1045F000491EC9B2FBD270472DE9F05F4FF0000AA7
:104600008B468046D14655465446564601782D295C
:1046100002D146F00206401C01782C2908D02A2934
:1046200006D02E290AD030390A290AD300252C4673
:10463000B00701D508F10108002718E046F001068F
:10464000401CF10702D0641CE4B201E06D1CEDB225
:10465000401CDBE7E81B401EC1B20A20FFF7C4FF85
:1046600018F80710303900FB01AA7F1CFFB2AF42D7
:10467000F0D3052C00D905248BF8004000270EE06C
:10468000E01B401EC1B20A20FFF7AEFFEA1902EBA1
:1046900008014978303900FB01997F1CFFB2A7421D
:1046A000EED321460A20FFF79FFF0AFB0090B107D7
:1046B00000D54042BDE8F09FFEE7000070B504461B
:1046C00000200D4BB0F1010503EB0016767A1EB108
:1046D000401C0828F8DB0CE0461C0AD04CB103EB68
:1046E0000013C3E900411A72012159720021D960F7
:1046F00070BD284670BD0000B0000020002801D029
:1047000000F002B87047000000280BD0064A11687C
:10471000082907D2054B03EB0111C8600420487239
:10472000401F10607047000008000020B00000200B
:104730000021094B084600BF03EB0112491C106021
:10474000506010725072D0600829F5DB03494FF0B9
:10475000FF30086070470000B00000200800002013
:104760002DE9F04100264FF0FF3515492C46334620
:10477000304600BF01EB0012577A012F06D113B16A
:10478000177AB74202D9167A04460123401C08283A
:10479000F0DB601C12D00B4F01EB041602203C60D2
:1047A0007072316809B1706888473868A04205D1D5
:1047B000707A022802D1012070723D60BDE8F0815C
:1047C000B000002008000020FFF7CAFFFCE700004F
:1047D00010B50020084B012403EB00114A7A042A8B
:1047E00005D1CA681AB1521ECA6000D14C72401C71
:1047F0000828F1DB10BD0000B0000020F8B5214C06
:10480000002162783AB1012A0AD0022A0BD0002591
:10481000032A34D10AE0AA2832D1012060702FE0A7
:10482000A0700220FAE7E0700320F7E7552826D1B0
:104830001448A178801D0170E17841701248E18828
:10484000ADF80010027D00EB42021180017D0A22CA
:10485000491CB1FBF2F302FB1311437D8B4207D1DC
:10486000437D5B1CB3FBF2F602FB1632427502E09D
:10487000827D521C82750175FCF750FA012165702A
:104880000846F8BD68000020BC08002010B50028CC
:1048900016D00C4CA060C16B29B14FF48072CA6174
:1048A000C06BFDF79DFAA0680168CA6842F010026B
:1048B000CA60BDE810404FF400720349FFF7DEB84C
:1048C00010BD000068000020D30800202DE9F0474B
:1048D000154C2078002824D000212170A268D26BCA
:1048E00012685268A08892B2C2F5007296B20D4664
:1048F000B04216D00D4F4FF400788946A088385C3E
:10490000FFF77CFFA088401C80B2A080404501D307
:10491000A4F804906D1CA088ADB2B04201D0FF2D68
:10492000ECD9BDE8F087000068000020D308002023
:104930000F4810B5017D427D914203D11420FFF74D
:10494000DDFE0FE0417D417D0A22491CB1FBF2F3FF
:1049500002FB1311417572B6817D11B1817D491E33
:10496000817562B61420BDE81040FFF7C7BE000095
:10497000BC080020064908B5886800680268D206AD
:1049800004D50268406800900120087008BD00004E
:104990006800002080ED030A30EE600AC0ED040AD2
:1049A00080ED050AD0ED070A70EE800AC0ED070A17
:1049B00090ED0A1AF4EEC10AF1EE10FA06DCB1EE3F
:1049C000411AF4EEC10AF1EE10FA01D280ED071A95
:1049D000D0ED060AD0ED011A90ED072A30EE601AEC
:1049E000D0ED000A60EE800A41EE820AD0ED021A94
:1049F00041EE810AC0ED080A90ED091AF4EEC10AF1
:104A0000F1EE10FA06DCB1EE411AF4EEC10AF1EE55
:104A100010FA01D280ED081A80ED060A90ED080A1E
:104A20007047C0ED091A80ED0A2A80EC030A00F0F5
:104A300001B800009FED070A80ED030A80ED040A2B
:104A400080ED050A80ED060A80ED070A80ED080A70
:104A500070470000000000007047704710B5FFF776
:104A6000B7FEBDE81040FDF7B1BD000030B593B012
:104A700030216846FBF7F0FB14210CA8FBF7ECFB98
:104A80001D480025016841F080510160006800F078
:104A9000805011901948016841F48041016000681C
:104AA000022400F480401190012003901020049013
:104AB000009406940820CDE90750A820CDE9090408
:104AC00004200B906846FDF707FF08B172B6FEE7B9
:104AD0000CA90F2081E831004FF4A0500F904FF443
:104AE0008050109005210CA8FDF70AFE002801D087
:104AF00072B6FEE713B030BD40380240007000408F
:104B00000248016841F470010160704788ED00E0DF
:104B100010B504000BD02069002808D06169FEF7A9
:104B200045FC2046BDE81040002100F001B810BD52
:104B300010B504003CD0A069884200DA014640422A
:104B4000884200DD0146002901DB084600E04842BA
:104B5000626992B1042A14D0082A2269126814D01A
:104B60001064002913DDA1884FF000022068FDF7D2
:104B700092FBA1890122A06816E0226912685063A5
:104B8000EFE7226912689063EBE7D063E9E7A18859
:104B9000206802DA4FF0010201E04FF00002FDF759
:104BA0007AFBA189A0680022BDE81040FDF773BB25
:104BB00010BD00000148FEF7A1BA00007C100020E3
:104BC0000148FEF79BBA000034100020F0B50268DF
:104BD000274B284D284E294F294C4FF0804C9842A6
:104BE00009D0604507D0A84205D0B04203D0B842F2
:104BF00001D0A04204D122F0700E4A6842EA0E02AF
:104C000098421BD0604519D0A84217D0B04215D0A9
:104C1000B84213D0A04211D01A4DA8420ED01A4D5E
:104C2000A8420BD0194DA84208D0194DA84205D072
:104C3000184DA84202D0184DA84203D122F4407565
:104C4000CA682A434D6922F080022A438D68C562F2
:104C50000D688562984201D0A04201D109690163C3
:104C6000016841F004010160012141610260F0BD71
:104C7000000001400004004000080040000C00401B
:104C80000004014000400140004401400048014050
:104C900000180040001C00400020004010B501F04A
:104CA0001F030121046A99408C430462016A9A40FF
:104CB0001143016210BD10B5846842EA032224F456
:104CC0007F440A432243826010BD826822F0700252
:104CD0000A4342F00701816070470000F0B5036AA3
:104CE000026A22F00102026242688469124E24F0D4
:104CF00073050C682C4323F002058B682B430D4D84
:104D0000A84201D0B04205D123F00807CB683B434D
:104D100023F00403A84201D0B04205D14D6922F42A
:104D2000407215438A692A4342608461496841633D
:104D30000362F0BD0000014000040140F0B5026ACA
:104D4000036A23F010030362436884690D6824F446
:104D5000E64444EA05248D6822F0200242EA051266
:104D60000F4D104EA84201D0B04206D1CF6822F0BC
:104D7000800242EA071222F04002A84201D0B0426B
:104D800007D14D6923F4406343EA85038D6943EA03
:104D9000850343608461496881630262F0BD00005D
:104DA0000000014000040140F0B5026A036A23F4E8
:104DB000807303624368C46922F4007224F07305AF
:104DC0000C68124E2C438D6842EA05220E4DA84213
:104DD00001D0B04206D1CF6822F4006242EA072235
:104DE00022F48062A84201D0B04207D14D6923F479
:104DF000405343EA05138D6943EA05134360C461D8
:104E00004968C1630262F0BD000001400004014036
:104E100030B5046A026A22F4805202624268C369B1
:104E20000D6823F4E64343EA05238D6824F4005417
:104E300044EA0534084DA84202D0084DA84204D1E6
:104E40004D6922F4804242EA85124260C36149689A
:104E50000164046230BD0000000001400004014014
:104E600010B5036A046A24F001040462846924F022
:104E7000F00444EA021423F00A020A438461026245
:104E800010BD10B5036A046A24F01004046284693A
:104E900023F0A00324F4704444EA023243EA0111EF
:104EA0008261016210BD10B5FBF7ECFCBDE810405B
:104EB0000A20FFF723BC000070B5214C00252078A4
:104EC00090B1012817D0022822D003282AD02570BB
:104ED0002078401CC0B22070042800D32570BDE8A3
:104EE0007040C820FFF70ABC0020FCF7DBF8012067
:104EF000FCF7C8F805E00020FCF7C4F80120FCF737
:104F0000D1F80220FCF7BEF80320FCF7BBF8DFE77E
:104F10000020FCF7B7F80120FCF7B4F80220FCF7FA
:104F2000C1F8F1E70020FCF7ADF80120FCF7AAF882
:104F30000220FCF7A7F80320FCF7B4F8C8E700004C
:104F40000000002010B5FBF7EDFFBDE81040322057
:104F5000FFF7D4BB10B50C4B0C4A0D490D4801F0BE
:104F600071F80C49782081F82400084601F0B9FB5B
:104F70000021084801F0C5FB064800F054FFBDE8D9
:104F80001040044801F00CB8196B0008A567000830
:104F9000087700087807002010B5806B0021C185D4
:104FA000FEF70AFB10BD70B5846B2068406994F869
:104FB0004110C0F3C0100025212904D118B1E584A7
:104FC000204600F08EF82068406994F84210C0F343
:104FD0008010222904D118B1E585204600F05AF846
:104FE000606C40F0100060642046FEF7E5FA70BD8A
:104FF00010B50146806B096809684FF00002C905C9
:105000002ED4C28501680C3151E8003F23F480732F
:1050100041E80034002CF5D10168143151E8003F1B
:1050200023F0010341E80034002CF5D1016814316C
:1050300051E8003F23F0400341E80034002CF5D153
:10504000202180F84210016B012909D101680C313F
:1050500051E8003F23F0100341E80034002CF5D163
:105060004263016B012902D0FEF716FD10BD818D50
:10507000FEF748FA10BD10B5806B01214163016B4A
:10508000012902D0FEF709FD10BD818D4908FEF708
:1050900039FA10BD01680C3151E8002F22F49072EA
:1050A00041E80023002BF5D10168143151E8002FAD
:1050B00022F0010241E80023002BF5D1016B012908
:1050C00009D101680C3151E8002F22F0100241E8AB
:1050D0000023002BF5D1202180F84210002101632C
:1050E000704701680C3151E8002F22F0C00241E8FE
:1050F0000023002BF5D1202180F84110704708B51E
:1051000090F84210222901D0022008BD82684FF495
:1051100080539A4201D1016921B1816A9A421BD020
:105120004AB10AE00268816A5268C2F308020A8042
:10513000816A891C08E0026972B10268526802F053
:105140007F020A70816A491C8162C18D491E09046F
:10515000090CC18503D01BE002685268F1E70168C1
:10516000CA6822F02002CA600168CA6822F480720C
:10517000CA6001684A6922F001024A61202180F870
:10518000421000214163026B012A03D0FEF784FC28
:10519000002008BD016301680C3151E8002F22F0A6
:1051A000100241E80023002BF5D101680A68D206FD
:1051B00002D50A6849680091818DFEF7A3F9E7E7F7
:1051C00070B5044600680169E26821F4405111435A
:1051D00001612169A068E2690843616911430843DC
:1051E0002168CA6849F20C639A430243CA60206886
:1051F0004169A26921F4407111434161314920683C
:10520000884202D03049884202D1FDF723FB01E0F9
:10521000FDF710FBE2690023192164253226B2F55F
:10522000004F626828D0A0FB0101930F9200FAF7AB
:10523000C9FF0146B0FBF5F06FF01802504301EBD7
:10524000800006EB0010B0FBF5F000F0F002B1FBBF
:10525000F5F002EB0012B1FBF5F06FF018035843C4
:1052600001EB800006EB0010B0FBF5F000F00F0042
:1052700021681044886070BDA0FB010192185B4159
:10528000FAF7A0FF0146B0FBF5F00201B1FBF5F023
:105290006FF01803584301EB800006EBC000B0FB31
:1052A000F5F000F0F80002EB4002B1FBF5F05843D6
:1052B00001EB800006EBC000B0FBF5F000F007004A
:1052C000D6E70000001001400014014038B58162AB
:1052D00004468285002013466064222284F842201E
:1052E000E56B1F4AEA63E56B1E4A2A64E56B1E4ABA
:1052F000EA64E26B10650A462168E06B091DFCF761
:10530000D9FD30B110206064202084F842000120D3
:1053100038BD2068016840680090206948B1206865
:105320000C3050E8001F41F4807140E80012002A60
:10533000F5D12068143050E8001F41F0010140E829
:105340000012002AF5D12068143050E8001F41F007
:10535000400140E80012002AF5D1002038BD0000CD
:10536000F14F000877500008A74F0008816282853E
:10537000C28500214164222180F84210016921B1D7
:105380000168CA6842F48072CA6001684A6942F0E2
:1053900001024A610068C16841F02001C16000203B
:1053A00070472DE9F843984617460D460446089E77
:1053B00024E0701C22D0FCF773FFA0EB0800B04281
:1053C0001AD8CEB12068C168490717D5802D15D0ED
:1053D000402D13D00168C94309070FD40168002587
:1053E000406800902046FFF755FE0820606484F86E
:1053F00040500120BDE8F8830320FBE720680068E7
:1054000035EA000004D00020B842D2D00020F1E7F5
:105410000120F9E70148FEF7DFB800000C11002079
:1054200010B5FCF77FFBBDE810400148FEF7D4B88B
:105430005411002010B5FFF79DFABDE81040014857
:10544000FEF7CAB89C110020FEE700000FB4054B20
:1054500010B503A9044A029800F004F910BC5DF8E5
:1054600014FB0000CD5D0008AC0000200FB47CB53B
:105470000C0009AD01D0611E00E00021CDE9000162
:10548000064B6A462946089800F0ECF8002C02D03A
:10549000009A002111707CBC5DF814FB6B5D000864
:1054A0000907090E002804DB00F1E02080F8001451
:1054B000704700F00F0000F1E02080F8141D7047E5
:1054C00002E008C8121F08C1002AFAD170477047CD
:1054D000002001E001C1121F002AFBD1704700002B
:1054E0002DE9FF5F82B00021DDE90430020DDDF817
:1054F00040B0034318D044F61050A2F2FF324243AA
:105500001514119801281FD0A5EB0B00401C5FEA71
:10551000000A4FF000064E4FDFF83891B046504673
:1055200015D5CAF1000413E0119801244AA30128FB
:1055300001D16FEA0B010298119AC0E90031C0E96C
:10554000024206B0BDE8F09FCBF10000DFE7044661
:105550000021404A491842EB0450CDE9001012E006
:10556000E00707D032463B4640464946FAF747FF38
:105570008046894632463B4610461946FAF73FFFB9
:1055800006460F466410002CEAD1DDE90401DDE98E
:105590000023BAF1000F06DAFAF731FF42464B4614
:1055A000FAF72DFF05E0FBF760F842464B46FBF7A4
:1055B0005CF804460E460022284BFBF7DDF803D8C2
:1055C0004FF0FF30014607E00022254B20463146D0
:1055D000FAF76EFEFBF7B8F8102409E0002C0ADB9E
:1055E0000A220023FAF7EEFD039B30321A55641E9F
:1055F00050EA0102F2D1641C039AC4F1110314446D
:10560000119A012A03D0012208430DD10AE0084370
:1056100004D000204FF0110B119072E7A3EB0B05A3
:105620006D1E0DE05B4504DD4FF0000205F1010544
:1056300004E003DA4FF00002A5F10105002AECD0E6
:1056400002981199C0E90231C0E9004579E70000EC
:10565000000014400000F03F300000000000F04364
:105660000000E03F2DE9FF4F95B09A468846064678
:105670000025EEE1252877D100242746F94A0121AB
:10568000039400E0044316F8013F203B01FA03F0C5
:105690001042F7D130782A2811D06FF02F033078DC
:1056A000A0F13002092A16D8039A44F0020402EB52
:1056B000820203EB42021044761C0390EFE758F895
:1056C000042B0392002A03DA504244F4005403905E
:1056D00044F00204761C30782E2816D116F8010FFB
:1056E00044F004042A280DD06FF02F023078A0F186
:1056F0003003092B09D807EB870302EB4303C718D4
:10570000761CF3E758F8047B761C30786C280FD0B1
:1057100006DC4C2817D068280DD06A2814D104E084
:10572000742810D07A280FD10DE044F400140AE058
:1057300044F4801401E044F440147278824202D1AF
:1057400004F58014761C761C307866280BD013DCA8
:10575000582877D009DC002875D04528F6D046288F
:10576000F4D047281AD193E118E0632835D0642893
:1057700079D0652812D18BE1702873D008DC6728B6
:10578000F1D069286FD06E280DD06F2806D1ACE01B
:1057900073282CD0752874D0782853D05246179986
:1057A00090476D1C54E1C4F30250022809D003282D
:1057B0000DD0D8F8001004280DD00D6008F10408B1
:1057C00046E1D8F80010EA17C1E90052F6E7D8F828
:1057D00000100D80F2E70D70F0E718F8041B8DF84B
:1057E000001000208DF80100EB46012003E058F87E
:1057F00004BB4FF0FF3061074FF0000102D40DE011
:1058000009F101018946B9420FDA8145F8DB1BF83D
:1058100009100029F4D108E009F10101894681420B
:10582000FADB1BF809100029F6D103985346A0EBC8
:10583000090721463846179A00F080FA284400EB01
:10584000090507E044E008E10DE01BF8010B5246B2
:1058500017999047B9F10109F7D2534621463846C6
:10586000179AF2E039E00A21C4F302524FF0000B1C
:105870000091022A06D058F8040BC117032A09D058
:105880000AE023E008F1070020F00702F2E8020135
:10589000904605E000B2C117042A01D140B2C117F9
:1058A000002906DA0A460021404261EB02012D225E
:1058B00002E0220504D52B228DF80420012203E00A
:1058C000E20701D02022F7E7914657E00A2100E0E5
:1058D00010214FF0000B00910BE010214FF0000B56
:1058E00044F004040827009103E008204FF0000B67
:1058F0000090C4F30252022A05D058F8040B00218C
:10590000032A08D008E008F1070020F00702F2E8B7
:105910000201904603E080B2042A00D1C0B24FF0E9
:10592000000922072AD53278702A07D0DDF800C096
:105930008CF0100C5CEA0B0C05D00EE040228DF8C8
:105940000420012208E050EA010306D030238DF83C
:1059500004308DF8052002229146009B83F0080355
:1059600053EA0B030AD150EA010201D1620705D5BF
:1059700030228DF804204FF001097F1E3278582A1A
:1059800004D039A20C920CAA02920BE03BA2F9E7D8
:105990005B46009AFAF716FC0C9B9B5C029A521E1F
:1059A0000292137050EA0102F2D1029804A9081A77
:1059B00000F1200B600702D524F4803400E00127B9
:1059C0005F4502DDA7EB0B0000E0002000EB0B01C0
:1059D000009003984944401A0390E00306D45346CC
:1059E0002146179A039800F0A9F90544002706E01C
:1059F00001A85246C05D179990476D1C7F1C4F450A
:105A0000F6DBE0030CD553462146179A039800F0C5
:105A100095F9054404E030205246179990476D1CD3
:105A20000099481E00900029F5DC08E002980299D0
:105A300052460078491C0291179990476D1CBBF1A2
:105A40000001ABF1010BF1DC5BE100F065F905440D
:105A5000761C307800287FF40DAE19B02846BDE8DA
:105A6000F08F0000092801003031323334353637E9
:105A7000383961626364656600000000303132339A
:105A8000343536373839414243444546000000003A
:105A9000600700D4062708F1070020F00700F0E8AF
:105AA0000223804603F0004C5FEA0C0001D097A06F
:105AB00009E0200501D596A005E0E00701D095A0FA
:105AC00001E0AFF24C001390307823F000436528DA
:105AD0000CD006DC452809D046281DD047287FD1A8
