:020000040800F2
:10000000C009002029020008D9210008D51D0008D8
:10001000752100081F0400084528000800000000A2
:10002000000000000000000000000000DD210008CA
:10003000E904000800000000DB210008DF210008BF
:10004000430200084302000843020008430200087C
:10005000430200084302000843020008430200086C
:10006000430200084302000843020008430200085C
:100070005504000843020008430200084302000838
:10008000430200084302000843020008430200083C
:10009000430200084302000843020008430200082C
:1000A000430200084302000843020008430200081C
:1000B000430200084302000843020008430200080C
:1000C00043020008430200084302000843020008FC
:1000D00043020008430200083928000843020008D0
:1000E00043020008430200084302000843020008DC
:1000F00043020008292300084302000843020008C5
:1001000043020008430200084302000843020008BB
:1001100043020008430200084302000843020008AB
:10012000430200086104000843020008430200087B
:10013000430200084302000843020008430200088B
:10014000430200084302000843020008430200087B
:10015000430200084302000843020008430200086B
:10016000430200084302000843020008430200085B
:100170004302000843020008430200080000000098
:10018000430200084302000800F002F800F03CF8C7
:100190000AA090E8000C82448344AAF10107DA45E2
:1001A00001D100F031F8AFF2090EBAE80F0013F0F8
:1001B000010F18BFFB1A43F0010318471027000076
:1001C00030270000103A24BF78C878C1FAD8520707
:1001D00024BF30C830C144BF04680C6070470000C1
:1001E0000023002400250026103A28BF78C1FBD840
:1001F000520728BF30C148BF0B6070471FB502F0DF
:100200004FFB1FBD10B510BD00F0CFF81146FFF732
:10021000F5FF02F028FB00F0EDF803B4FFF7F2FF62
:1002200003BC00F0F5F80000094880470948004782
:10023000FEE7FEE7FEE7FEE7FEE7FEE7FEE7FEE796
:10024000FEE7FEE704480549054A064B70470000F3
:100250007922000889010008C0030020C00900209D
:10026000C0050020C005002053EA020C00F06980A0
:100270002DE9F04B4FF00006002B1FBFB3FA83F5BA
:1002800003FA05F424FA05F65E4012BF1643B2FAEB
:1002900082F502FA05F4C5F120051EBF22FA05FC1D
:1002A00044EA0C04203556EA044C4FEA144418BFC3
:1002B000641C4FF000084FF00009904271EB030CF2
:1002C00039D3002919BFB1FA81F701FA07F6B0FA5C
:1002D00080F700FA07F6C7F120071EBF20FA07FCD7
:1002E00046EA0C062037B6FBF4FCA7EB0507103FE7
:1002F00007F01F0BCBF120060CFA0BFB2CFA06F6CD
:1003000044BFB3460026202FA4BF5E464FF0000B2B
:100310005BEA060C08BF4FF0010B19EB0B09ABFBB6
:10032000027C48EB0608C01B06FB02CC0BFB03CC8F
:1003300071EB0C01C1E70B46024641464846BDE859
:10034000F08B13B54FF000004FF00001AFF30080C9
:10035000BDE81C4070474FF0000200B513469446BC
:100360009646203922BFA0E80C50A0E80C50B1F10D
:100370002001BFF4F7AF090728BFA0E80C5048BF21
:100380000CC05DF804EB890028BF40F8042B08BFBF
:10039000704748BF20F8022B11F0804F18BF00F8BB
:1003A000012B7047704770477047754600F02CF876
:1003B000AE4605006946534620F00700854618B052
:1003C00020B5FFF73FFFBDE820404FF000064FF09B
:1003D00000074FF000084FF0000B21F00701AC467A
:1003E000ACE8C009ACE8C009ACE8C009ACE8C00999
:1003F0008D46704710B50446AFF300802046BDE837
:100400001040FFF70ABF000000487047600300205B
:1004100001491820ABBEFEE7260002007047FEE748
:1004200010B501F0A9FEBDE8104000F05FB8000073
:1004300010B540F634042146044801F035FF21464A
:10044000BDE81040024801F02FBF00002800002046
:1004500044000020014800F0E7B80000A00200209E
:10046000014800F0E1B800000003002001681823F3
:10047000CAB2103AB2FBF3F2054B6FF30901032A3B
:100480009B5CC36500D9091D816508467047000063
:10049000AA28000810B5014600208B698A6A4FF02F
:1004A000C07453B1B3F5005F15D072B1012A0CD0FE
:1004B000022A0AD0032A09D104E01AB1012A06D07F
:1004C000022A03D1C96AC90100D5012010BDC96A39
:1004D000A142FAD010BD002AF7D0012AF2D0022A98
:1004E000F3D0032AF3D010BD7047000010B53C21B3
:1004F000054801F013F83C21044801F00FF8BDE86D
:100500001040034800F0C0BE60000020F000002052
:100510003801002002681268526A0B6812B21B6828
:100520005B6A00EE902A9FED101A9FED0E0AF8EE1E
:10053000E00A1BB2002260EE810AC0EE801A00EED3
:10054000903AF8EEE00A60EE810A80EE801AC0ED83
:10055000021A81ED021A00680068426208680068A9
:10056000426270470000DC420000704272B6FEE753
:100570002DE9F0410446876D00F08EFA064694F8A6
:1005800035000025022806D08020606584F83450AC
:100590000120BDE8F0812068016821F016010160AA
:1005A0002068416921F080014161206C08B9A06C8C
:1005B00020B12068016821F008010160206801680D
:1005C00021F0010101600CE000F066FA801B0528B3
:1005D00007D920206065032084F8350084F8345062
:1005E000D7E720680068C007EED194F85C103F2080
:1005F0008840B860012084F8350084F83450002029
:10060000C7E790F83510022903D080214165012009
:100610007047052180F835100068016821F001015C
:1006200001600020704700002DE9F84304464FF0B8
:100630000009CDF8009063484FF41651A56D00688D
:10064000B0FBF1F72E6894F85C10082000FA01F175
:1006500031420FD021680A6852070BD50A6822F090
:1006600004020A6094F85C108840A860606D40F055
:100670000100606594F85C104FF0010808FA01F081
:10068000304208D021684969090604D5A860606D28
:1006900040F00200606594F85C100420884030420D
:1006A00008D021680968890704D5A860606D40F00A
:1006B0000400606594F85C1010208840304218D027
:1006C00021680968090714D5A860206801684903F2
:1006D00004D50068000308D5A16C07E00168C905CE
:1006E00003D4016821F008010160216C09B12046A2
:1006F000884794F85C1020208840304231D021682F
:100700000968C9062DD5A86094F835000528206829
:10071000016806D0490347D5006800031DD4616C09
:100720001CE021F0160101602068416921F0800180
:100730004161206C08B9A06C20B12068016821F0EB
:100740000801016094F85C103F208840A86084F89C
:10075000358084F83490216D1FE0E16B09B12046AB
:100760008847606D00282BD0606DC00714D005202D
:1007700084F835002068016821F0010101600098CB
:10078000401C0090B84203D820680068C007F6D12A
:1007900084F8358084F83490E16C002910D001B0E1
:1007A0002046BDE8F04308470168C905D5D4016873
:1007B00021F01001016084F8358084F83490CCE792
:1007C000BDE8F883240000202DE9F041044600F044
:1007D00063F906465CB1022084F83500002584F8F0
:1007E00034502068016821F0010101600DE0012012
:1007F000BDE8F08100F050F9801B052805D92020C4
:100800006065032084F83500F2E720680068C007BF
:10081000F0D12268116820480140D4E9010318434F
:10082000D4E903363343184363691843A369184373
:10083000E3691843236A18430843616A042903D112
:10084000D4E90B1319430843106020684069666AB5
:1008500020F0070130460E43012704280CD1A06A7E
:100860000643E06A40B12046FFF714FE20B1402065
:10087000606584F83570BAE7206846612046FFF766
:10088000F5FD94F85C203F2191408160656584F816
:1008900035700020ACE700003F8010F02DE9F84FE4
:1008A000DFF8BCA10022012503264FF00F090AF151
:1008B000040BAAF1040E00BF0B6805FA02F42340F2
:1008C000A34270D10F7907F00307012F01D0022F47
:1008D00016D187684FEA420806FA08FC27EA0C0797
:1008E000D1F80CC00CFA08FC4CEA070CC0F808C0A0
:1008F0004768A7430C79C4F3001494403C43446018
:100900000C79E443A4070AD0C4684FEA420C06FA03
:100910000CF7BC438F6807FA0CF72743C7600C79C4
:1009200004F00304022C12D1D40800EB840CDCF890
:1009300020405707FF0E09FA07F824EA0804D1F807
:10094000108008FA07F848EA0408CCF82080046808
:100950004FEA420C06FA0CF7BC430F7907F0030785
:1009600007FA0CF7274307604C6814F4403F70D037
:100970003C4C276847F480472760246822F003072F
:1009800004F480440094384C07EB040CDCF808486D
:1009900097074FEA177809FA08F7BC43334FB84274
:1009A00002D1002724E054E0314FB84201D10127A1
:1009B0001EE0304FB84201D1022719E02E4FB84255
:1009C00001D1032714E02D4FB84201D104270FE0D5
:1009D0002B4FB84201D105270AE02A4FB84201D176
:1009E000062705E0284FB84201D1072700E0082775
:1009F00007FA08F72743CCF80878DAF8004057469A
:100A0000D1F804C09C435FEACC2C00D51C433C6069
:100A1000DBF800405F46D1F804C09C435FEA8C2CB1
:100A200000D51C433C60DEF800407746D1F804C096
:100A30009C435FEA8C3C00D51C433C60084F083F58
:100A40003C68D1F804C09C435FEACC3C00D51C4311
:100A50003C60521C102AFFF42FAFBDE8F88F000055
:100A6000083C014044380240003001400000024090
:100A70000004024000080240000C02400010024046
:100A80000014024000180240001C02400AB18161BB
:100A900070470904FBE700000148806870470000C8
:100AA0001800002002488168027811448160704774
:100AB000180000200B4810B5016841F40071016076
:100AC000016841F480610160016841F48071016056
:100AD000032000F06FF80F2000F006F800F024F873
:100AE000002010BD003C024070B50D4D04464FF48F
:100AF0007A712878B1FBF0F00A490968B1FBF0F08F
:100B000000F00CFB48B9102C07D200222146501EE1
:100B100000F030F800206C6070BD012070BD000056
:100B200018000020240000200A4808B5016841F49C
:100B300080410160006800F4804000900548001F7B
:100B4000016841F080510160006800F08050009021
:100B500008BD000044380240002809DB00F01F02F5
:100B6000012191404009800000F1E020C0F800110F
:100B700070470000F0B40E4B1B680C46C3F3022311
:100B8000C3F10705042D00D90425191D072901D239
:100B9000002300E0DB1E012606FA05F1491E214074
:100BA00099409E40761E16403143F0BC01F04BBE8A
:100BB0000CED00E0064900F0070208684FF6FF035D
:100BC000184040EA0220034A1043086070470000C2
:100BD0000CED00E00000FA052DE9F0470E46050097
:100BE00065D0DFF81481D8F80000F7B200F00700F4
:100BF000B04207D288F80070D8F8000000F0070073
:100C0000B04254D128683D4C810712D5400703D526
:100C1000206840F4E05020602878000703D5206861
:100C200040F4604020602068A96820F0F00008438C
:100C300020602878C0072DD030496868083901281D
:100C400012D0022813D0032811D00968890700297F
:100C50002DDA216821F0030101432160FFF71CFF19
:100C6000814641F2883A0EE009688903EFE7096896
:100C70008901ECE7FFF710FFA0EB0901514502D90C
:100C80000320BDE8F0872068696800F00C00B0EB35
:100C9000810FEFD1D8F80010404601F00701B142B2
:100CA00007D90770006800F00700B04201D00120AA
:100CB000E7E72878400705D52068E96820F4E05088
:100CC000084320602878000706D52068296920F4A9
:100CD000604040EAC100206000F038F82168084A0E
:100CE000C1F30311515CC84006490860064800681A
:100CF000FFF7FAFE0020C4E7003C0240083802403B
:100D0000B2280008240000201C00002004480549E7
:100D100000680968044AC1F38221515CC8407047E9
:100D20002400002008380240C22800080448054971
:100D300000680968044AC1F34231515CC8407047F9
:100D40002400002008380240C2280008154810B5C9
:100D5000006810F00C02144813D01449042A0FD074
:100D6000082A0ED10F4C241F2268236802F03F028C
:100D70005B0207D52068C0F38810A0FB010106E0E4
:100D8000084610BD2168C1F38811A1FB00010023B2
:100D9000FFF76AFA2168C1F30141491C4900B0FB21
:100DA000F1F010BD083802400024F40040787D01C5
:100DB0002DE9F84F04006ED02078DFF84C93C0077F
:100DC000A9F104054AD009F104000168C1F38101C9
:100DD000012908D00068C0F3810002280AD1D9F89F
:100DE0000000400206D52868800337D560680028D7
:100DF000E1D033E06068B0F5803F10D0B0F5A02FAF
:100E0000286810D020F480302860286820F48020E2
:100E100028606068A8B1FFF73FFE06460DE028682D
:100E200040F48030F4E740F480202860F7E700BF0A
:100E3000FFF732FE801B642873D828688003F7D53B
:100E40000CE0FFF729FE064605E000BFFFF724FE91
:100E5000801B6428F0D828688003F7D42078DFF856
:100E6000AC8280074FF0000A3ED5A748001D0168FC
:100E700011F00C0F08D00068C0F3810002280BD1DC
:100E8000D9F80000400207D42868800716D5E0682A
:100E9000012800D112E033E1E068B8B10120C8F8C0
:100EA0000000FFF7F9FD064605E000BFFFF7F4FD7F
:100EB000801B0228C0D828688007F7D528682169D8
:100EC00020F0F80040EAC10028600DE0C8F800A05A
:100ED000FFF7E2FD064604E0FFF7DEFD801B022877
:100EE0001FD828688007F7D42078000722D5864FBE
:100EF00087486169703771B101210160FFF7CCFD4E
:100F0000064604E0FFF7C8FD801B022809D83868B0
:100F10008007F7D50EE0C0F800A0FFF7BDFD06463C
:100F200005E082E0FFF7B8FD801B02287DD8386815
:100F30008007F7D42078400768D5DFF8CCB10027C8
:100F40000BF13C0BDBF80000C0000BD4DBF8001009
:100F500041F08051CBF80010DBF80000012700F0D1
:100F6000805000906B4E3068C00510D4306840F45B
:100F700080703060FFF790FD009005E0FFF78CFD7A
:100F80000099401A022850D83068C005F6D55E4E48
:100F9000A0686C3601280FD00528306810D020F0EA
:100FA00001003060306820F004003060A068B8B103
:100FB000FFF772FD00900FE0306840F00100F4E7A9
:100FC00040F004003060F7E7FFF766FD0099411A32
:100FD00041F28830814266D830688007F4D50EE04F
:100FE000FFF75AFD009007E0FFF756FD0099411A00
:100FF00041F28830814256D830688007F4D42FB14E
:10100000DBF8001021F08051CBF80010A069C8B3C4
:101010003D49091D0968C1F3810102294AD002280E
:10102000504607D0C8F8600000E03CE0FFF734FD10
:1010300004463BE04746C8F86000FFF72DFD064632
:1010400005E000BFFFF728FD801B02282BD8286889
:101050008001F7D4D4E907010843A16A2E4A490860
:1010600002EB0141626A41EA8211084394F82C10B4
:1010700040EA0161C9F8001001203866FFF70CFD55
:10108000044606E03EE000BFFFF706FD001B022815
:1010900009D828688001F7D534E000BFFFF7FCFCD1
:1010A000001B022802D90320BDE8F88F28688001C0
:1010B000F4D427E00128F7D0D9F80000E26900F461
:1010C000800191421CD1226A00F03F01914217D168
:1010D00047F6C071626A0140B1EB821F10D1A26A6B
:1010E0004FF0FF3300F4403103EB5202B1EB024FFB
:1010F00006D194F82C1000F07060B0EB016F01D0B5
:101100000120D1E70020CFE7043802400000474229
:10111000800E4742007000400000FFFF10B5401EE7
:10112000B0F1807F01D3012010BD4FF0E024606159
:101130000F21601701F087FB0020A06107202061CC
:10114000002010BD7047704770B590F83C20012A10
:1011500032D0012480F83C40022280F83D20036810
:101160005A689D6822F070060A6832435A60134B31
:1011700002689A4214D0B2F1804F11D0104B9A42BB
:101180000ED0104B9A420BD00F4B9A4208D00F4B07
:101190009A4205D00E4B9A4202D00E4B9A4204D18D
:1011A000496825F080031943916080F83D40002193
:1011B00080F83C10084670BD022070BD0000014060
:1011C0000004004000080040000C00400004014002
:1011D000004001400018004010B5040003D094F80E
:1011E0003D0010B107E0012010BD002084F83C0054
:1011F000204600F01FF8022084F83D00211D2068E1
:1012000001F098F8012084F8460084F83E0084F844
:101210003F0084F8400084F8410084F8420084F8DC
:10122000430084F8440084F8450084F83D00002021
:1012300010BD000008B5114A01681148914208D15B
:10124000016841F004010160006800F004000090B2
:1012500008BD0C4A9142FBD1016841F480710160E4
:101260000068002200F48070009011462D20FFF7E6
:1012700081FCBDE808402D20FFF76EBC000800404F
:10128000403802400020004090F83D10012901D074
:1012900001207047022180F83D100168CA6842F0C1
:1012A0000102CA6000681149884214D0B0F1804F31
:1012B00011D00F4988420ED00E4988420BD00E49FA
:1012C000884208D00D49884205D00D49884202D095
:1012D0000C49884204D1816801F00701062903D036
:1012E000016841F0010101600020704700000140E9
:1012F0000004004000080040000C004000040140D1
:10130000004001400018004070B5044690F83C00D1
:101310000025012817D0012684F83C60022084F8BB
:101320003D002068826822F0770222F47F428260CA
:101330000868502838D00DDC20284FD005DC90B349
:10134000102811D14AE0022070BD302846D0402834
:101350000AD13BE060282FD070280DD0B0F5805F17
:1013600003D0B0F5005F12D0012584F83D60002065
:1013700084F83C00284670BDCB68D1E90121206883
:1013800001F04DF82068816841F0770109E0CB68F1
:10139000D1E90121206801F042F82068816841F418
:1013A00080418160E1E719E0CA684968206801F07E
:1013B0000BF95021206806E0CA684968206801F0EE
:1013C00014F96021206801F034F8CEE7CA68496852
:1013D000206801F0F9F840212068F4E7226801460E
:1013E0001046F0E72DE9F0410D46040003D094F8D3
:1013F0003D0018B108E00120BDE8F081002084F82C
:101400003C00204600F040F8022084F83D002068AF
:10141000816844F2070291438160211D206800F039
:1014200089FF226890689169166A2B68AF69034347
:1014300040F20330814341EA0721A868EF6908437D
:101440004FF6FC418843E96840EA072001432869D8
:101450002F6A000140EA0730084369686D6926F089
:10146000AA0646EA0515294393602268906154F85C
:10147000460B0162012004F81F09E0752076E07632
:101480002077A0750020B7E770B586B00446142118
:101490006846FEF760FF1E491C4E256800231C4A63
:1014A000103902241B48B54211D1156845F00205D8
:1014B0001560126802F0020205920A6842F0010209
:1014C0000A60096801F001010591C02113E0124E84
:1014D000B54218D1156845F008051560126802F08C
:1014E000080205920A6842F001020A60096801F0E8
:1014F0000101059103210091CDE90143CDE90334B8
:101500006946FFF7CBF906B070BD0000000400404B
:101510004038024000000240000C004070B590F8D6
:101520003E60044690F83F5090F8423090F84320D7
:10153000022021B104290ED0012E1BD114E0012E6E
:1015400018D1012B16D184F83E0084F84200012204
:101550000021206820E0012D0CD1012A0AD184F855
:101560003F0084F8430014E0012D03D1012B01D189
:10157000012A01D0012070BD84F83E0084F83F00AC
:1015800084F8420084F8430001220021206800F022
:1015900039FF01220421206800F034FF206801682F
:1015A00041F001010160002070BD70472DE9F0415C
:1015B00004460068C66805694FF00007A90713D5FF
:1015C000B10711D5F91E01610120207720688069DB
:1015D0008007204602D0FFF7E8FF04E000F0A8F8FB
:1015E000204600F03AF92777680716D5700714D51A
:1015F00021686FF00400086102202077206880696C
:1016000010F4407F204602D0FFF7CFFF04E000F047
:101610008FF8204600F021F92777280715D53007E5
:1016200013D521686FF00800086104202077206836
:10163000C0698007204602D0FFF7B7FF04E000F042
:1016400077F8204600F009F92777E80616D5F00666
:1016500014D521686FF010000861082020772068F9
:10166000C06910F4407F204602D0FFF79EFF04E0DF
:1016700000F05EF8204600F0F0F82777E80708D081
:10168000F00706D021686FF001000861204600F0E5
:1016900049F9280608D5300606D521686FF0800084
:1016A00008612046FFF74EFD680608D5700606D58E
:1016B00021686FF040000861204600F043F9A80659
:1016C0000AD5B00608D521686FF0200008612046D1
:1016D000BDE8F041FFF737BDBDE8F08110B586B039
:1016E000044614216846FEF736FE0E4920688842FB
:1016F00015D10D480021026842F00802026000681E
:1017000000F0080005904FF4405000900220CDE911
:101710000101CDE9031069460448FFF7BFF806B0A0
:1017200010BD00000008004030380240000C0240AC
:10173000704770B5044690F83C0000260D4601281D
:101740000FD0012084F83C006AB1042A1DD0082A79
:101750002FD00C2A3FD00126002084F83C003046D0
:1017600070BD022070BD206800F06CFE20688169A9
:1017700041F0080181612068816921F004018161E3
:10178000206881692A69114311E0206800F08AFE0F
:101790002068816941F4006181612068816921F4D8
:1017A00080618161206881692A6941EA0221816141
:1017B000D2E7206800F0ACFE2068C16941F0080162
:1017C000C1612068C16921F00401C1612068C1695B
:1017D0002A69114311E0206800F0CEFE2068C1693B
:1017E00041F40061C1612068C16921F48061C16177
:1017F0002068C1692A6941EA0221C161ACE710B5DC
:10180000040003D094F83D0010B107E0012010BDA2
:10181000002084F83C00204600F01EF8022084F8E6
:101820003D00211D206800F085FD012084F8460060
:1018300084F83E0084F83F0084F8400084F84100BA
:1018400084F8420084F8430084F8440084F845009A
:1018500084F83D00002010BD7047704710B5044665
:10186000022249B104290ED0082913D094F841006E
:10187000012816D0012010BD94F83E000128F9D1AE
:1018800084F83E200FE094F83F000128F2D184F85C
:101890003F2008E094F840000128EBD184F8402074
:1018A00001E084F841200122206800F0ABFD1649D8
:1018B0002068164A884201D0904203D1436C43F419
:1018C000004343642068884213D0B0F1804F10D0A9
:1018D0000F4988420DD00F4988420AD00E498842EC
:1018E00007D0904205D00D49884202D00C49884269
:1018F00004D1816801F00701062903D0016841F095
:1019000001010160002010BD000001400004014001
:101910000004004000080040000C0040004001406E
:101920000018004000680449884203D10349044874
:10193000FEF7F0BD70470000002000400C000020C2
:10194000000000207047704770470000F8B501683C
:1019500004460868CA684B6910F00F0F4FF0000585
:1019600059D003F0010602F49077374365D0C107E0
:1019700005D0D10503D5616C41F0010161644107D7
:1019800005D5D90703D0616C41F00201616481077C
:1019900005D5D90703D0616C41F0040161640107EA
:1019A00007D502F02001314303D0616C41F00801FA
:1019B0006164616C00293AD0800604D5900602D596
:1019C000204600F052FE20684069616CC0F3801030
:1019D000090700D460B3204600F020FE206840696B
:1019E000400621D52068143050E8001F21F0400146
:1019F00040E80012002AF5D1E06BA8B172490165F8
:101A0000E06BFEF7FEFD002811D0E06B016D01B028
:101A1000BDE8F040084783060FD593060DD5204654
:101A2000BDE8F84000F021BE2046FFF78DFFF8BD6D
:101A30002046FFF789FF6564F8BD266B2023012E41
:101A40007ED1C6067CD5D6067AD50868486800904F
:101A500048694FF0020640064DD5E26B10684068B9
:101A60004FF480770004000C3AD0A18D814237D921
:101A7000E085D069B8422DD020680C3050E8001FB6
:101A800021F4807140E80012002AF5D1206814305A
:101A900050E8001F21F0010140E80012002AF5D1B2
:101AA0002068143050E8001F21F0400140E8001287
:101AB000002AF5D184F84230256320680C3050E8C4
:101AC000001F21F0100140E80012002AF5D1E06B60
:101AD000FEF74EFD6663A08DE18D401A81B206E0EF
:101AE000A18D8142A8D1D069B842A5D166632046B4
:101AF000FFF729FFF8BDA08DE18D401A81B2E08D7E
:101B00000028F7D00029F5D020680C3050E8002FCD
:101B100022F4907240E80027002FF5D1206814309D
:101B200050E8002F22F0010240E80027002FF5D1F5
:101B300084F84230256320680C3050E8002F00E024
:101B400006E022F0100240E80023002BF3D1CDE79D
:101B500005062BD5150629D594F841002128C9D1B1
:101B6000A068B0F5805F01D12069B0B1206A411C46
:101B70002162216800784860E08C401E0004000C5F
:101B8000E084B7D12068C16821F08001C16020687D
:101B9000C16841F04001C160F8BD206A0088C0F30F
:101BA00008004860206A801C2062E5E74006F3D503
:101BB0005006F1D5CA68204622F04002CA6084F877
:101BC000413000F006F9F8BD0F26000870B504009A
:101BD00004D094F84100002510B106E0012070BD4A
:101BE00084F84050204600F023F8242084F8410077
:101BF0002068C16821F40051C160204600F096FDC4
:101C00002068016921F4904101612068416921F057
:101C10002A0141612068C16841F40051C1606564D6
:101C2000202084F8410084F842006563002070BDE4
:101C30002DE9F04387B0054614216846FEF78BFB7B
:101C40005949584AD5F800C000245748143902238E
:101C500003260727DFF85491944519D1026842F012
:101C600010020260006800F010000590086840F063
:101C7000010008600868694600F0010005907002E4
:101C80008DE8D9004846FEF709FE07B0BDE8F083AD
:101C9000454ADFF81C81121FC4451FD1106840F46B
:101CA00000301060106800F400300590086840F0C3
:101CB000010008600868694600F0010005900C20EA
:101CC0008DE8D9004846FEF7E9FD0022114626209E
:101CD000FEF750FF2620FEF73FFFD6E7DFF8D4805F
:101CE0004FF48069C4452AD1106840F48020106008
:101CF000106800F480200590086840F00200086039
:101D00000868694600F0020005904FF440608DE8D5
:101D1000D9002948FEF7C2FD294E284830604FF00F
:101D20000060C6E90104C6E903497461B461F46165
:101D30003462304674622DE0EE63B563A5E7214A54
:101D40009445A2D1026842F020020260006800F0CF
:101D500020000590086840F00400086008686946A3
:101D600000F004000590C0208DE859000820049080
:101D70001548FEF793FD124E14486036306080051A
:101D8000C6E90104C6E903497461B461F4613462CF
:101D900030467462FEF718FD0028CDD0FEF7E6FB52
:101DA000CAE7000000100140443802400000024031
:101DB0000044004000480040000402402860024007
:101DC000A0020020001401400008024028640240E4
:101DD00070477047FEE70000114808B5016841F4FC
:101DE00000110160016801F400110091016841F4E3
:101DF000800101600068002200F48000009011461C
:101E00000C20FEF7B7FE0C20FEF7A6FE00221146BE
:101E10003920FEF7AFFEBDE808403920FEF79CBE32
:101E2000303802402DE9F04186B014216846FEF7B3
:101E300092FA27480024016841F00401016001681A
:101E400001F004010591016841F080010160016821
:101E500001F080010591016841F001010160016814
:101E600001F001010591016841F002010160016882
:101E700001F002010591016841F00801016000686C
:101E8000144F00F008004FF4005505900022294639
:101E90003846FEF7FBFDDFF840804FF47046002225
:101EA00031464046FEF7F2FD00950125CDE901548B
:101EB000694638460394FEF7F1FC0096CDE90154DB
:101EC000694640460394FEF7E9FC06B0BDE8F081A0
:101ED0003038024000080240000402400C4810B5AF
:101EE0000A4901605321416000214CF24F32C0E9A0
:101EF0000212016180218161FFF76EF9002803D091
:101F0000BDE81040FEF732BB10BD000000200040CD
:101F10003801002010B58CB024216846FEF71BFA6A
:101F200000241648099414490A94C0E900144FF695
:101F3000FF71C0E90241046184610320CDE900041E
:101F400001200A21CDE902040491CDE9054007945E
:101F500069460A480894FFF745FA08B1FEF706FB00
:101F6000099409A905480A94FFF7EEF8002801D062
:101F7000FEF7FCFA0CB010BD000400406000002029
:101F800010B58EB000240794089409940A940B9419
:101F90001C2168460C94FEF7DEF9234821490160B4
:101FA0000121C0E9011441F26701C0E90314802155
:101FB0008161FFF711F908B1FEF7D8FA4FF48050AC
:101FC000079007A91848FFF79FF908B1FEF7CEFA66
:101FD0001548FFF714FC08B1FEF7C8FA0B940BA9DB
:101FE00011480C94FFF7B0F808B1FEF7BFFA602073
:101FF000CDE900040294002269460B480494FFF7DF
:1020000098FB08B1FEF7B2FA042269460648FFF7CA
:1020100090FB08B1FEF7AAFA0348FFF75FFB0EB08A
:1020200010BD000000080040A800002010B58CB0D2
:1020300024216846FEF78FF90024154809941349B6
:102040000A94C0E90014611EC0E902410461846180
:102050000320CDE900040120CDE902040494CDE978
:102060000540079469460A480894FFF7BBF908B190
:10207000FEF77CFA099409A905480A94FFF764F869
:10208000002801D0FEF772FA0CB010BD000C004021
:10209000F00000200C4810B50A4901604FF4E1310E
:1020A0004160002181600C22C160C0E9041281619D
:1020B000C161FFF78BFD002803D0BDE81040FEF79B
:1020C00055BA10BD00100140800100200C4810B529
:1020D0000A4901604FF4E1314160002181600C2226
:1020E000C160C0E904128161C161FFF76FFD002882
:1020F00003D0BDE81040FEF739BA10BD00440040DF
:10210000C80100200C4810B50A4901604FF4E131C4
:102110004160002181600C22C160C0E9041281612C
:10212000C161FFF753FD002803D0BDE81040FEF762
:102130001DBA10BD00480040100200200C4810B528
:102140000A4901604FF4E1314160002181600C22B5
:10215000C160C0E904128161C161FFF737FD002849
:1021600003D0BDE81040FEF701BA10BD00140140D5
:1021700058020020FEE7000010B51448124C144A23
:102180000461002141F268030260C0E90513911463
:1021900081804900826081811C30046104240260D6
:1021A000C0E905434B00838082608A00828101225E
:1021B0000848FEF76BFC054800F066F80348BDE8E8
:1021C00010401C3000F060B8A8000020280000205B
:1021D0000004024000080240FEE770477047FEF727
:1021E00061BC000030B593B030216846FEF7B3F80B
:1021F00014210CA8FEF7AFF81D480025016841F036
:1022000080510160006800F0805011901948016809
:1022100041F4804101600068022400F48040119084
:102220000120039010200490009406940820CDE92A
:102230000750A820CDE9090404200B906846FEF75A
:10224000B7FD08B172B6FEE70CA90F2081E8310096
:102250004FF4A0500F904FF48050109005210CA81F
:10226000FEF7BAFC002801D072B6FEE713B030BD0D
:1022700040380240007000400248016841F470019B
:102280000160704788ED00E010B504000BD02069B4
:10229000002808D06169FFF7E1FA2046BDE8104048
:1022A000002100F001B810BD10B504003AD0A069BB
:1022B000884200DA01464042884200DD014600299A
:1022C00001DB084600E048426269B2B1042A18D036
:1022D000082A2269126818D01064002917DDA18825
:1022E0004FF00102D4F80000FEF7D0FBA189A068EE
:1022F0000022BDE81040FEF7C9BB22691268506396
:10230000EBE7226912689063E7E7D063E5E7A1880D
:1023100020684FF00002E7DAFEF7B8FBA18901223E
:10232000A068E6E710BD00000148FFF73FB90000D4
:1023300038010020F0B50268274B284D284E294F60
:10234000294C4FF0804C984209D0604507D0A842F4
:1023500005D0B04203D0B84201D0A04204D122F04F
:10236000700E4A6842EA0E0298421BD0604519D0AE
:10237000A84217D0B04215D0B84213D0A04211D015
:102380001A4DA8420ED01A4DA8420BD0194DA842A2
:1023900008D0194DA84205D0184DA84202D0184DBA
:1023A000A84203D122F44075CA682A434D6922F03D
:1023B00080022A438D68C5620D688562984201D00B
:1023C000A04201D109690163016841F00401016083
:1023D000012141610260F0BD0000014000040040A5
:1023E00000080040000C0040000401400040014093
:1023F000004401400048014000180040001C00401B
:102400000020004010B501F01F030121046A99402B
:102410008C430462016A9A401143016210BD10B5F9
:10242000846842EA032224F47F440A432243826000
:1024300010BD826822F070020A4342F007018160F9
:1024400070470000F0B5036A026A22F001020262DE
:1024500042688469124E24F073050C682C4323F003
:1024600002058B682B430D4DA84201D0B04205D127
:1024700023F00807CB683B4323F00403A84201D0B4
:10248000B04205D14D6922F4407215438A692A434E
:1024900042608461496841630362F0BD000001400D
:1024A00000040140F0B5026A036A23F010030362DE
:1024B000436884690D6824F4E64444EA05248D6881
:1024C00022F0200242EA05120F4D104EA84201D020
:1024D000B04206D1CF6822F0800242EA071222F011
:1024E0004002A84201D0B04207D14D6923F44063B5
:1024F00043EA85038D6943EA850343608461496843
:1025000081630262F0BD0000000001400004014050
:10251000F0B5026A036A23F4807303624368C469F6
:1025200022F4007224F073050C68124E2C438D685F
:1025300042EA05220E4DA84201D0B04206D1CF6832
:1025400022F4006242EA072222F48062A84201D00B
:10255000B04207D14D6923F4405343EA05138D6916
:1025600043EA05134360C4614968C1630262F0BD78
:10257000000001400004014030B5046A026A22F400
:10258000805202624268C3690D6823F4E64343EA5D
:1025900005238D6824F4005444EA0534084DA8420C
:1025A00002D0084DA84204D14D6922F4804242EA8B
:1025B00085124260C36149680164046230BD000055
:1025C000000001400004014010B5036A046A24F0D1
:1025D00001040462846924F0F00444EA021423F044
:1025E0000A020A438461026210BD10B5036A046ADC
:1025F00024F010040462846923F0A00324F47044DE
:1026000044EA023243EA01118261016210BD10B551
:10261000806B0021C185FFF797F910BD01680C316F
:1026200051E8002F22F4907241E80023002BF5D1ED
:102630000168143151E8002F22F0010241E8002323
:10264000002BF5D1016B012909D101680C3151E84A
:10265000002F22F0100241E80023002BF5D12021A9
:1026600080F8421000210163704708B590F84210CD
:10267000222901D0022008BD82684FF480539A427B
:1026800001D1016921B1816A9A421BD04AB10AE0A5
:102690000268816A5268C2F308020A80816A891C52
:1026A00008E0026972B10268526802F07F020A70A3
:1026B000816A491C8162C18D491E0904090CC185CA
:1026C00003D01BE002685268F1E70168CA6822F093
:1026D0002002CA600168CA6822F48072CA60016878
:1026E0004A6922F001024A61202180F8421000214B
:1026F0004163026B012A03D0FFF76AFB002008BD8B
:10270000016301680C3151E8002F22F0100241E80A
:102710000023002BF5D101680A68D20602D50A68A9
:1027200049680091818DFFF70EF9E7E770B504461F
:1027300000680169E26821F4405111430161216997
:10274000A068E26908436169114308432168CA68C7
:1027500049F20C639A430243CA6020684169A26946
:1027600021F440711143416131492068884202D00F
:102770003049884202D1FEF7D9FA01E0FEF7C6FAE5
:10278000E2690023192164253226B2F5004F626800
:1027900028D0A0FB0101930F9200FDF765FD0146D3
:1027A000B0FBF5F06FF01802504301EB800006EB30
:1027B0000010B0FBF5F000F0F002B1FBF5F002EB19
:1027C0000012B1FBF5F06FF01803584301EB8000E5
:1027D00006EB0010B0FBF5F000F00F00216810448C
:1027E000886070BDA0FB010192185B41FDF73CFDC4
:1027F0000146B0FBF5F00201B1FBF5F06FF01803F4
:10280000584301EB800006EBC000B0FBF5F000F090
:10281000F80002EB4002B1FBF5F0584301EB8000F9
:1028200006EBC000B0FBF5F000F00700D6E70000B3
:1028300000100140001401400148FFF787B8000074
:10284000C8010020FEE70907090E002804DB00F19B
:10285000E02080F80014704700F00F0000F1E02045
:1028600080F8141D7047FEF725F9FFF7BBFCFFF752
:10287000D9FAFFF7B1FAFFF783FBFFF7D7FBFFF7B2
:1028800049FBFFF72BFBFFF705FCFFF71FFCFFF7EA
:1028900039FCFFF753FCFDF7C3FDFDF7C9FDFCE76D
:1028A0004FF04070E1EE100A704700061016000667
:1028B00010160000000000000000010203040607DB
:1028C000080900000000010203040000EC280008D1
:1028D0000000002028000000C4010008142900089E
:1028E0002800002098090000E00100086000002096
:1028F0000000000000000000F000002000000000C8
:1029000000000000010000001000000000000000B6
:042910000024F400AB
:040000050800018965
:00000001FF
