:020000040800F2
:1000000068130020A10100085D3800081B2D0008BE
:1000100031340008390A00081545000800000000C6
:10002000000000000000000000000000673A000827
:10003000A10D000800000000653A0008693A0008B8
:10004000BB010008BB010008BB010008BB010008A0
:10005000BB010008BB010008BB010008BB01000890
:10006000BB010008BB010008BB010008BB01000880
:10007000E50C0008BB010008BB010008BB0100083B
:10008000BB010008BB010008BB010008BB01000860
:10009000BB010008BB010008BB010008BB01000850
:1000A000BB010008BB010008BB010008BB01000840
:1000B000BB010008BB010008BB010008BB01000830
:1000C000BB010008BB010008BB010008BB01000820
:1000D000BB010008BB010008F54400080145000809
:1000E000BB010008BB010008BB010008BB01000800
:1000F000BB010008C13B0008BB010008BB010008B0
:10010000BB010008BB010008BB010008BB010008DF
:10011000BB010008BB010008BB010008BB010008CF
:10012000BB010008F10C0008BB010008BB0100087E
:10013000BB010008BB010008BB010008BB010008AF
:10014000BB010008BB010008BB010008BB0100089F
:10015000BB010008BB010008BB010008BB0100088F
:10016000BB010008BB010008BB010008BB0100087F
:10017000BB010008BB010008BB0100080000000033
:10018000BB010008BB010008DFF810D000F00CFB39
:1001900000480047B14E0008AFF30080681300200C
:1001A0000648804706480047FEE7FEE7FEE7FEE711
:1001B000FEE7FEE7FEE7FEE7FEE7FEE70D3B000891
:1001C000890100082DE9F05F0546002092469B4614
:1001D00088460646814640241BE02846414647465D
:1001E000224600F0C3F953465A46C01A914110D333
:1001F00011461846224600F0AAF92D1A67EB0108AD
:100200004F4622460120002100F0A1F917EB00091A
:100210004E41201EA4F10104DFDC484631462A4647
:100220004346BDE8F09F40EA01039B0703D009E085
:1002300008C9121F08C0042AFAD203E011F8013BD2
:1002400000F8013B521EF9D27047D2B201E000F82B
:10025000012B491EFBD270470022F6E710B513466A
:100260000A4604461946FFF7F0FF204610BD30B598
:1002700005462A460B4612F8010B13F8014B08B14C
:10028000A042F8D01CB1002802D06D1CF1E728462E
:1002900030BD30B505460020034600E05B1C9342AC
:1002A00005D2EC5CC85C201A01D1002CF6D130BD1F
:1002B0002DE9FE4F804681EA0300C00F0C460090F6
:1002C00021F0004123F00045B8EB0200A94105D21E
:1002D0004046214690461C460B46024623F000400D
:1002E000104347D0270DC7F30A00C3F30A51029009
:1002F000401A019040286BDAC3F3130040F4801BCE
:100300000098924620B10023D2EB030A63EB0B0B5B
:1003100001985946C0F14002504600F018F90646CF
:100320000D4650465946019A00F030F910EB08008E
:100330006141002487EA115284EAE7731A4340D0EE
:10034000009A62B3019A012A4FEA075215DC001B9A
:1003500061EB02014FF0004202EA0752CDE9004290
:10036000001C41F5801132462B4600F030F903B0F5
:10037000BDE8F08F40462146F9E7001B61EB020122
:10038000001C41F5801300185B412018A2F50017EE
:1003900047EB030140EAD570B6196D4111E06D08D5
:1003A0004FEA360645EAC0754FEA0752001B61EB7B
:1003B0000201001C41F5801149084FEA3000001984
:1003C000514132462B4603B0BDE8F04F00F0F0B883
:1003D0000098012240000023D0EB020263EBE0739F
:1003E000009821464FEAE074B8EB000061EB04018D
:1003F000E9E783F000435BE781F0004158E72DE92E
:10040000FE4F81EA030404F0004421F0004100940F
:100410004FF0000B23F0004350EA01045ED052EA93
:1004200003045BD0C3F30A54C1F30A552C44A4F26D
:10043000F3340194A0FB0254C1F3130141F4801181
:10044000C3F3130343F4801301FB024400FB034E88
:10045000840A970A44EA815447EA8357A4FB076851
:1004600002958D0A05FB07854FEA932C04FB0C547B
:100470002705029D4FEA065847EA1637B5EB0805EF
:100480006EEB070C870E920E47EA811742EA831241
:10049000A7FB0201B6EB0B0164EB00042B0D43EA52
:1004A0000C335E1844EB1C50DA465146E7FB020160
:1004B000C5F313044FEA0B3343EA14534FEA0432F3
:1004C000019C43EA0603A4F10C040294009CCDE9CC
:1004D00000B400F07CF803B0BDE8F08F00200146C6
:1004E000F9E70EB540F2334102910021CDE9001148
:1004F0000A460B4600F06BF803B000BD00F0004266
:1005000030F000400AD0C10D01F56071C0F3160053
:1005100042EA0151C20840071143704700200146DA
:10052000704730B50B46014600202022012409E027
:1005300021FA02F59D4205D303FA02F5491B04FA9C
:1005400002F52844151EA2F10102F1DC30BD202A7B
:1005500004DB203A00FA02F1002070479140C2F11A
:10056000200320FA03F3194390407047202A04DB4C
:10057000203A21FA02F00021704721FA02F3D0401C
:10058000C2F120029140084319467047202A06DB39
:10059000CB17203A41FA02F043EAE07306E041FA51
:1005A00002F3D040C2F1200291400843194670473F
:1005B00010B5141E73F1000408DA401C41F100016B
:1005C00092185B411A4301D120F0010010BD2DE9C2
:1005D000F04D92469B4611B1B1FA81F202E0B0FAB9
:1005E00080F220329046FFF7B2FF04460F4640EA01
:1005F0000A0041EA0B0153465A46084313D01146FC
:1006000053EA010019D0C8F140025046FFF7AEFF8F
:1006100005460E46504659464246FFF798FF0843A6
:1006200005D0012004E020463946BDE8F08D0020C9
:10063000054346EAE0762C4337430A986305E40A0B
:10064000A0EB08000022FD0A44EA47540A3002D514
:1006500000200146E9E7010510196941DDE9084577
:1006600000196941BDE8F04DA2E72DE9F04D81EA9E
:10067000030404F0004B21F0004514464FF0000A3B
:1006800023F0004150EA050220D054EA01021DD0B7
:10069000C5F30A570246C5F31303C1F31300C1F3B0
:1006A0000A5640F4801543F48013A7EB0608101B8C
:1006B000D64608F2FD3873EB050002D308F10108B5
:1006C00001E092185B41B8F1000F03DA0020014607
:1006D000BDE8F08D00204FF48011064684460EE000
:1006E000171B73EB050705D3121B63EB05030643CA
:1006F0004CEA010C49084FEA300092185B4150EA7D
:100700000107EDD152EA030012D082EA040083EA25
:100710000501084305D0101BAB4106D2012200237E
:1007200006E000224FF0004302E06FF00102531098
:100730001AEB06004CEB085110EB0A0041EB0B01E1
:10074000BDE8F04DFFF734BFC1F30A52C1F3130106
:1007500040F2FF3341F480119A4202DA0020014650
:10076000704740F233439A42A2F2334202DC5242D3
:10077000FFF7FCBEFFF7EBBE30B5041E71F10004BD
:1007800004DB4FF00044404264EB0101141E73F19E
:10079000000405DB1C464FF00043524263EB0403A8
:1007A000994208BF904230BD064C074D06E0E06814
:1007B00040F0010394E8070098471034AC42F6D3A8
:1007C000FFF7E6FC7468000894680008802202497C
:1007D000024801F064BF000038010020D00D002065
:1007E0002DE9F0410546802900D37F2100266E5473
:1007F00005221BA1FFF74DFD1B4C0127A8B10522C7
:100800001AA12846FFF745FD002817D1042219A197
:10081000681DFFF73EFD00B3062218A1681DFFF713
:1008200038FD00280AD166700EE068794C280FD098
:1008300006DC42280AD0462800D12770BDE8F081A6
:10084000522807D05328F9D12670F7E7022002E09A
:10085000032000E004202070F0E76770EEE700005E
:100860004D4F56453A000000080000204D4F4445CA
:100870003A0000004155544F000000004D414E55D4
:10088000414C000010B5054CA078002805D0A18887
:100890000348FFF7A5FF0020A07010BD080000204E
:1008A000B801002010B503F0C5FBBDE810400249B7
:1008B000024804F0E2BB00004A5C00088007002008
:1008C00010B504468CB02C4804F011FB2B492A4883
:1008D00004F0D3FB2AA30C220021274804F0A4FB38
:1008E00080230E220021244804F042FB274922489D
:1008F00004F0C3FB94F87800012801D924A300E098
:1009000025A394F87900009025A2202103A803F0E4
:1009100013FE03AB1C220021174804F085FB94F85A
:10092000600000B92D20029094ED160B20A28DEDF1
:10093000000B202103A803F0FFFD03AB2A220021B6
:100940000D4804F071FB94F8700000B92D2002905E
:1009500094ED1A0B1AA28DED000B202103A803F0D1
:10096000EBFD03AB38220021034804F05DFB024895
:1009700004F07AFB0CB010BD80070020D86000089E
:100980004750532053746174757300004A5C00082B
:1009900046495845440000004E4F20464958000043
:1009A00053746174653A202573202825642900005A
:1009B0004C61743A20252E35662025630000000026
:1009C0004C6F6E3A20252E3566202563000000000E
:1009D00070B5084D002405F1080600BF35F8141065
:1009E00056F82400012200F06DFD641C042CF5DB98
:1009F00070BD000014000020032809D80549054AED
:100A0000083231F8101052F82000012200F05ABDCF
:100A10007047000014000020032809D80549054A42
:100A2000083231F8101052F82000002200F04ABDC0
:100A30007047000014000020FEE7000010B538A049
:100A40002DED048B03F068FD02F0F4FC3BA003F0F5
:100A500063FD00F0A7F942A003F05EFD04F0F6F993
:100A600049A003F059FDFFF7B1FE51A003F054FD7A
:100A700000F0DEF957A003F04FFDFFF7A9FF5EA0DD
:100A800003F04AFD9FED658AB0EE482ADFED648AE7
:100A9000F0EE681A9FED639AF6EE000AB2EE040AD1
:100AA000B0EE491A604802F0C2FF5F48B0EE482A33
:100AB000F0EE681AB0EE491AF6EE000AB2EE080A35
:100AC0002C3002F0B4FF59A003F026FDFFF7EAFE38
:100AD0005FA003F021FD02F0FDFE66A003F01CFD07
:100AE000022200216C4802F0BBFE012200216B486B
:100AF00002F0B6FE01220021694802F0B1FE002298
:100B00001146684802F0ACFE03220021664802F05C
:100B1000A7FEBDEC048B65A0BDE8104003F0FCBC53
:100B20005B436F72655F4D61696E5F496E69745DAD
:100B30002053746172742E2E2E0D0A005B436F7267
:100B4000655F4D61696E5F496E69745D204D6F74BC
:100B50006F7220496E697420646F6E652E0D0A00F5
:100B60005B436F72655F4D61696E5F496E69745D6D
:100B700020456E636F64657220496E697420646FEE
:100B80006E652E0D0A0000005B436F72655F4D615C
:100B9000696E5F496E69745D204457542044656CEA
:100BA000617920496E697420646F6E652E0D0A00AC
:100BB0005B436F72655F4D61696E5F496E69745D1D
:100BC00020436F6D6D20496E697420646F6E652ED1
:100BD0000D0A00005B436F72655F4D61696E5F498E
:100BE0006E69745D2047505320496E697420646FAC
:100BF0006E652E0D0A0000005B436F72655F4D61EC
:100C0000696E5F496E69745D204C454420496E6988
:100C10007420646F6E652E0D0A0000000000FA4417
:100C20000040834500000000600000205B436F72BD
:100C3000655F4D61696E5F496E69745D205049441E
:100C400020496E697420646F6E652E0D0A000000E5
:100C50005B436F72655F4D61696E5F496E69745D7C
:100C600020554920496E697420646F6E652E0D0A07
:100C7000000000005B436F72655F4D61696E5F4904
:100C80006E69745D204F5320496E697420646F6EE5
:100C9000652E0D0A00000000453F00081D400008B9
:100CA000650E0008B93E0008A73E00085B436F725E
:100CB000655F4D61696E5F496E69745D20416C6C62
:100CC000207461736B7320637265617465642E2098
:100CD00053797374656D2052656164792E0D0A0035
:100CE00002F044BE014800F071B90000A80E0020D7
:100CF000014800F06BB90000080F002001681823BC
:100D0000CAB2103AB2FBF3F2054B6FF30901032AA2
:100D10009B5CC36500D9091D8165084670470000CA
:100D20005468000810B5014600208B698A6A4FF0AC
:100D3000C07453B1B3F5005F15D072B1012A0CD065
:100D4000022A0AD0032A09D104E01AB1012A06D0E6
:100D5000022A03D1C96AC90100D5012010BDC96AA0
:100D6000A142FAD010BD002AF7D0012AF2D0022AFF
:100D7000F3D0032AF3D010BD30B50468256825F4FC
:100D800080252560046863608368402B036803D076
:100D900099600068C26030BD9A600068C16030BD73
:100DA0007047000010B53C21054801F063FA3C2172
:100DB000044801F05FFABDE81040034801F010B9A3
:100DC000680C0020F80C0020400D0020026812681A
:100DD000526A0B6812B21B685B6A00EE902A9FEDA4
:100DE000111A9FED0F0AF8EEE00A1BB2002260EE26
:100DF000810A80EE801A00EE903AF8EEE00A80ED6B
:100E0000021A9FED091A60EE810A80EE801A81EDC8
:100E1000021A00680068426208680068426270470F
:100E20000000DC42000070C20000704272B6FEE7B3
:100E300010B5012254022146074800F043FB224628
:100E40000649074801F008FF05480068C16841F0FD
:100E50001001C16010BD00000010024070020020AF
:100E6000180E002010B50C48017879B100210170EE
:100E70000A490BA003F050FB084901F5007002F08D
:100E800059FB064901F5007002F01CFBBDE810405B
:100E9000C82002F005BD00000E00002070040020F4
:100EA0005B4750535F5241575D2025730D0A000088
:100EB00038B5144C20680168C90622D501680025A0
:100EC00040680090204601F033FCE06B0068406809
:100ED000C0F500700404240C0BD00B49224601F528
:100EE0000070FFF7A0F90948055509484480012121
:100EF0000170BDE838404FF400720349014801F029
:100F0000ABBE38BD180E0020700200207004002017
:100F10000E0000202DE9F0410446876D00F0D8FA5C
:100F2000064694F835000025022806D0802060652A
:100F300084F834500120BDE8F0812068016821F078
:100F4000160101602068416921F080014161206C37
:100F500008B9A06C20B12068016821F00801016087
:100F60002068016821F0010101600CE000F0B0FA96
:100F7000801B052807D920206065032084F83500F0
:100F800084F83450D7E720680068C007EED194F8A1
:100F90005C103F208840B860012084F8350084F858
:100FA00034500020C7E790F83510022903D0802183
:100FB000416501207047052180F8351000680168FF
:100FC00021F0010101600020704700002DE9F84385
:100FD00004464FF00009CDF8009063484FF41651D5
:100FE000A56D0068B0FBF1F72E6894F85C1008203E
:100FF00000FA01F131420FD021680A6852070BD57F
:101000000A6822F004020A6094F85C108840A86024
:10101000606D40F00100606594F85C104FF00108CD
:1010200008FA01F0304208D021684969090604D560
:10103000A860606D40F00200606594F85C100420C8
:101040008840304208D021680968890704D5A86023
:10105000606D40F00400606594F85C1010208840DA
:10106000304218D021680968090714D5A8602068A3
:101070000168490304D50068000308D5A16C07E0A6
:101080000168C90503D4016821F008010160216CE1
:1010900009B12046884794F85C10202088403042EF
:1010A00031D021680968C9062DD5A86094F83500AB
:1010B00005282068016806D0490347D50068000369
:1010C0001DD4616C1CE021F01601016020684169AB
:1010D00021F080014161206C08B9A06C20B120682A
:1010E000016821F00801016094F85C103F208840FD
:1010F000A86084F8358084F83490216D1FE0E16B9E
:1011000009B120468847606D00282BD0606DC0076C
:1011100014D0052084F835002068016821F0010111
:1011200001600098401C0090B84203D82068006815
:10113000C007F6D184F8358084F83490E16C00293A
:1011400010D001B02046BDE8F04308470168C9054A
:10115000D5D4016821F01001016084F8358084F84D
:101160003490CCE7BDE8F883580000202DE9F04129
:10117000044600F0ADF906465CB1022084F8350063
:10118000002584F834502068016821F001010160D5
:101190000DE00120BDE8F08100F09AF9801B0528E0
:1011A00005D920206065032084F83500F2E7206827
:1011B0000068C007F0D12268116820480140D4E9D6
:1011C00001031843D4E903363343184363691843D2
:1011D000A3691843E3691843236A18430843616A03
:1011E000042903D1D4E90B13194308431060206884
:1011F0004069666A20F0070130460E430127042843
:101200000CD1A06A0643E06A40B12046FFF78AFD90
:1012100020B14020606584F83570BAE720684661E7
:101220002046FFF76BFD94F85C203F2191408160E0
:10123000656584F835700020ACE700003F8010F051
:101240002DE9F0410446866D90F834000025012810
:101250000DD0012084F8340094F835700020012F5F
:1012600007D084F8340002252846BDE8F08102202A
:10127000FBE7022784F8357060652046FFF77CFDA8
:1012800094F85C103F208840B0602068016841F00D
:1012900016010160206C20B12068016841F008014E
:1012A00001602068016841F001010160DCE7000095
:1012B00070B5044600F00CF90546601C02D00448E5
:1012C0000078044400F004F9401BA042FAD370BD3A
:1012D0004C0000202DE9F84FDFF8BCA100220125C9
:1012E00003264FF00F090AF1040BAAF1040E00BF08
:1012F0000B6805FA02F42340A34270D10F7907F07E
:101300000307012F01D0022F16D187684FEA420848
:1013100006FA08FC27EA0C07D1F80CC00CFA08FC06
:101320004CEA070CC0F808C04768A7430C79C4F31F
:10133000001494403C4344600C79E443A4070AD071
:10134000C4684FEA420C06FA0CF7BC438F6807FAF0
:101350000CF72743C7600C7904F00304022C12D168
:10136000D40800EB840CDCF820405707FF0E09FA84
:1013700007F824EA0804D1F8108008FA07F848EAC8
:101380000408CCF8208004684FEA420C06FA0CF7F7
:10139000BC430F7907F0030707FA0CF727430760F0
:1013A0004C6814F4403F70D03C4C276847F48047A9
:1013B0002760246822F0030704F480440094384C2A
:1013C00007EB040CDCF8084897074FEA177809FA8E
:1013D00008F7BC43334FB84202D1002724E054E061
:1013E000314FB84201D101271EE0304FB84201D140
:1013F000022719E02E4FB84201D1032714E02D4FE8
:10140000B84201D104270FE02B4FB84201D1052784
:101410000AE02A4FB84201D1062705E0284FB8421A
:1014200001D1072700E0082707FA08F72743CCF87F
:101430000878DAF800405746D1F804C09C435FEAC8
:10144000CC2C00D51C433C60DBF800405F46D1F853
:1014500004C09C435FEA8C2C00D51C433C60DEF842
:1014600000407746D1F804C09C435FEA8C3C00D52D
:101470001C433C60084F083F3C68D1F804C09C43C3
:101480005FEACC3C00D51C433C60521C102AFFF4A0
:101490002FAFBDE8F88F0000083C014044380240FF
:1014A00000300140000002400004024000080240F9
:1014B000000C0240001002400014024000180240DC
:1014C000001C02400AB1816170470904FBE700007B
:1014D00001488068704700004C00002070B504008F
:1014E00025D094F83D00002520B984F83C502046D2
:1014F00000F04EF9242084F83D002068016821F0B6
:10150000010101602068016841F400410160206828
:10151000016821F40041016000F0A4FA4D4A6168BD
:10152000914201D84C4900E04C49884201D2012047
:1015300070BD4B492368B0FBF1F15E6826F03F06B1
:101540000E435E606368934206D94FF49673594325
:101550004FF47A73B1FBF3F12368491C1E6A26F03D
:101560003F06314319626168914210D84900401E1C
:10157000B0FBF1F2521CC2F30B02042A01D2042088
:1015800022E0B0FBF1F0401CC0F30B001CE0A268AD
:10159000F2B301EBC10303EB0116431EB3FBF6F3F9
:1015A0005B1C43F480431B0549D092B301EBC1029D
:1015B00002EB0111401EB0FBF1F0401CC0F30B0028
:1015C00040F4804040F400402168CA694CF6FF7343
:1015D0009A431043C861D4E90710014320680268A8
:1015E00022F0C00211430160D4E9030101432068E5
:1015F000826848F2FF339A4311438160D4E90501C0
:1016000008432168CA6822F0FF021043C86001E065
:101610000EE016E02068016841F0010101602564D8
:10162000202084F83D00256384F83E50002070BDE2
:1016300001EB4106431EB3FBF6F35B1CB3E701204D
:10164000C2E701EB4101401EB0FBF1F0401CC0F3CA
:101650000B00B7E7A086010080841E0000093D0052
:1016600040420F002DE9F84F1F4690468A46044637
:10167000DDF82890FFF72CFF054694F83D00202860
:101680007FD11923012240492046009501F0D8FB63
:10169000002876D194F83C00012872D0012084F80B
:1016A0003C0020680168C90703D1016841F00101CD
:1016B00001602068016821F400610160212084F844
:1016C0003D00102084F83E0000262664C4F82480E3
:1016D0006785608D20852D48E0622B464A4651463D
:1016E000204601F033FB90B9206841698069009081
:1016F00036E02A464946204601F048FC50B1206CAD
:10170000042804D12068016841F4007101600120BF
:10171000BDE8F88F606A216800780861606A401C43
:101720006062618D491E6185218D491E89B22185C6
:1017300022685369DB435B070BD451B10078106119
:10174000606A401C6062608D401E6085208D401E76
:1017500020852A464946204601F046FB0028CED186
:10176000208D0028C5D154F83D0B016841F400716B
:101770000160202004F81E09E67766770020C7E79D
:10178000FFE70220C4E70000020010000000FFFF96
:1017900010B586B0044614216846FEF75DFD144975
:1017A0002068884221D113480021026842F00202D9
:1017B0000260006800F0020005904FF44070009055
:1017C0001220CDE901010320039004200490694612
:1017D0000948FFF77FFD07481030016841F4001108
:1017E0000160006800F40010059006B010BD000014
:1017F0000054004030380240000402400248816832
:1018000002781144816070474C0000200B4810B5ED
:10181000016841F400710160016841F48061016078
:10182000016841F480710160032000F06FF80F201F
:1018300000F006F800F024F8002010BD003C024043
:1018400070B50D4D04464FF47A712878B1FBF0F075
:101850000A490968B1FBF0F000F00CFB48B9102C04
:1018600007D200222146501E00F030F800206C60A4
:1018700070BD012070BD00004C0000205800002009
:101880000A4808B5016841F480410160006800F42D
:10189000804000900548001F016841F080510160C0
:1018A000006800F08050009008BD000044380240FD
:1018B000002809DB00F01F0201219140400980004F
:1018C00000F1E020C0F8001170470000F0B40E4BAA
:1018D0001B680C46C3F30223C3F10705042D00D98E
:1018E0000425191D072901D2002300E0DB1E012673
:1018F00006FA05F1491E214099409E40761E164089
:101900003143F0BC02F032BE0CED00E0064900F0BD
:10191000070208684FF6FF03184040EA0220034A16
:1019200010430860704700000CED00E00000FA056D
:101930002DE9F0470E46050065D0DFF81481D8F890
:101940000000F7B200F00700B04207D288F800703C
:10195000D8F8000000F00700B04254D128683D4C90
:10196000810712D5400703D5206840F4E05020607D
:101970002878000703D5206840F460402060206884
:10198000A96820F0F000084320602878C0072DD017
:10199000304968680839012812D0022813D003287A
:1019A00011D00968890700292DDA216821F0030187
:1019B00001432160FFF78CFD814641F2883A0EE039
:1019C00009688903EFE709688901ECE7FFF780FD03
:1019D000A0EB0901514502D90320BDE8F08720683A
:1019E000696800F00C00B0EB810FEFD1D8F800105F
:1019F000404601F00701B14207D90770006800F0C6
:101A00000700B04201D00120E7E72878400705D55C
:101A10002068E96820F4E050084320602878000737
:101A200006D52068296920F4604040EAC1002060A2
:101A300000F038F82168084AC1F30311515CC8402E
:101A40000649086006480068FFF7FAFE0020C4E770
:101A5000003C0240083802405C6800085800002042
:101A6000500000200448054900680968044AC1F391
:101A70008221515CC840704758000020083802405D
:101A80006C6800080448054900680968044AC1F305
:101A90004231515CC840704758000020083802406D
:101AA0006C680008154810B5006810F00C02144866
:101AB00013D01449042A0FD0082A0ED10F4C241F2A
:101AC0002268236802F03F025B0207D52068C0F35A
:101AD0008810A0FB010106E0084610BD2168C1F393
:101AE0008811A1FB00010023FEF76CFB2168C1F304
:101AF0000141491C4900B0FBF1F010BD083802401B
:101B00000024F40040787D012DE9F84F04006ED0E8
:101B10002078DFF84C93C007A9F104054AD009F1F9
:101B200004000168C1F38101012908D00068C0F3F5
:101B3000810002280AD1D9F80000400206D52868A1
:101B4000800337D560680028E1D033E06068B0F5E5
:101B5000803F10D0B0F5A02F286810D020F480303E
:101B60002860286820F4802028606068A8B1FFF70A
:101B7000AFFC06460DE0286840F48030F4E740F4FE
:101B800080202860F7E700BFFFF7A2FC801B6428D5
:101B900073D828688003F7D50CE0FFF799FC064658
:101BA00005E000BFFFF794FC801B6428F0D828688C
:101BB0008003F7D42078DFF8AC8280074FF0000A6A
:101BC0003ED5A748001D016811F00C0F08D0006831
:101BD000C0F3810002280BD1D9F80000400207D4DD
:101BE0002868800716D5E068012800D112E033E1AB
:101BF000E068B8B10120C8F80000FFF769FC0646AC
:101C000005E000BFFFF764FC801B0228C0D82868ED
:101C10008007F7D52868216920F0F80040EAC10064
:101C200028600DE0C8F800A0FFF752FC064604E06B
:101C3000FFF74EFC801B02281FD828688007F7D4C6
:101C40002078000722D5864F87486169703771B1C7
:101C500001210160FFF73CFC064604E0FFF738FC79
:101C6000801B022809D838688007F7D50EE0C0F835
:101C700000A0FFF72DFC064605E082E0FFF728FCF8
:101C8000801B02287DD838688007F7D42078400769
:101C900068D5DFF8CCB100270BF13C0BDBF8000076
:101CA000C0000BD4DBF8001041F08051CBF80010DD
:101CB000DBF80000012700F0805000906B4E306888
:101CC000C00510D4306840F480703060FFF700FC2D
:101CD000009005E0FFF7FCFB0099401A022850D85D
:101CE0003068C005F6D55E4EA0686C3601280FD06E
:101CF0000528306810D020F001003060306820F0F6
:101D000004003060A068B8B1FFF7E2FB00900FE07C
:101D1000306840F00100F4E740F004003060F7E77D
:101D2000FFF7D6FB0099411A41F28830814266D80C
:101D300030688007F4D50EE0FFF7CAFB009007E09B
:101D4000FFF7C6FB0099411A41F28830814256D80C
:101D500030688007F4D42FB1DBF8001021F08051F7
:101D6000CBF80010A069C8B33D49091D0968C1F34B
:101D7000810102294AD00228504607D0C8F86000E5
:101D800000E03CE0FFF7A4FB04463BE04746C8F810
:101D90006000FFF79DFB064605E000BFFFF798FBDC
:101DA000801B02282BD828688001F7D4D4E90701CA
:101DB0000843A16A2E4A490802EB0141626A41EADE
:101DC0008211084394F82C1040EA0161C9F8001010
:101DD00001203866FFF77CFB044606E03EE000BFCA
:101DE000FFF776FB001B022809D828688001F7D589
:101DF00034E000BFFFF76CFB001B022802D9032070
:101E0000BDE8F88F28688001F4D427E00128F7D0D6
:101E1000D9F80000E26900F4800191421CD1226AE5
:101E200000F03F01914217D147F6C071626A01404C
:101E3000B1EB821F10D1A26A4FF0FF3300F44031A2
:101E400003EB5202B1EB024F06D194F82C1000F0D4
:101E50007060B0EB016F01D00120D1E70020CFE727
:101E60000438024000004742800E474200700040A4
:101E70000000FFFF10B5401EB0F1807F01D30120AC
:101E800010BD4FF0E02460610F21601702F06EFB7F
:101E90000020A06107202061002010BD704770471E
:101EA00070B590F83C20012A32D0012480F83C40E3
:101EB000022280F83D2003685A689D6822F070066F
:101EC0000A6832435A60134B02689A4214D0B2F146
:101ED000804F11D0104B9A420ED0104B9A420BD02B
:101EE0000F4B9A4208D00F4B9A4205D00E4B9A42A4
:101EF00002D00E4B9A4204D1496825F08003194361
:101F0000916080F83D40002180F83C10084670BD8B
:101F1000022070BD000001400004004000080040A5
:101F2000000C004000040140004001400018004047
:101F300010B5040003D094F83D0010B107E0012073
:101F400010BD002084F83C00204600F01FF802205D
:101F500084F83D00211D206801F038FE012084F83E
:101F6000460084F83E0084F83F0084F8400084F87E
:101F7000410084F8420084F8430084F8440084F867
:101F8000450084F83D00002010BD000008B5114A4E
:101F900001681148914208D1016841F004010160D3
:101FA000006800F00400009008BD0C4A9142FBD18B
:101FB000016841F4807101600068002200F48070C3
:101FC000009011462D20FFF781FCBDE808402D2030
:101FD000FFF76EBC0008004040380240002000407F
:101FE00090F83D10012901D001207047022180F8AE
:101FF0003D100168CA6842F00102CA6000681149D8
:10200000884214D0B0F1804F11D00F4988420ED0D1
:102010000E4988420BD00E49884208D00D498842AB
:1020200005D00D49884202D00C49884204D181680C
:1020300001F00701062903D0016841F001010160A8
:1020400000207047000001400004004000080040EC
:10205000000C004000040140004001400018004016
:1020600070B5044690F83C000025012817D00126E1
:1020700084F83C60022084F83D002068826822F0E9
:10208000770222F47F4282600868502838D00DDC45
:1020900020284FD005DC90B3102811D14AE002204F
:1020A00070BD302846D040280AD13BE060282FD0B0
:1020B00070280DD0B0F5805F03D0B0F5005F12D06E
:1020C000012584F83D60002084F83C00284670BD5E
:1020D000CB68D1E90121206801F0EDFD206881681D
:1020E00041F0770109E0CB68D1E90121206801F0D6
:1020F000E2FD2068816841F480418160E1E719E0F8
:10210000CA684968206801F0ABFE5021206806E0EB
:10211000CA684968206801F0B4FE6021206801F0B7
:10212000D4FDCEE7CA684968206801F099FE4021D5
:102130002068F4E7226801461046F0E72DE9F041F7
:102140000D46040003D094F83D0018B108E00120CA
:10215000BDE8F081002084F83C00204600F040F803
:10216000022084F83D002068816844F20702914310
:102170008160211D206801F029FD22689068916925
:10218000166A2B68AF69034340F20330814341EA8A
:102190000721A868EF6908434FF6FC418843E968C6
:1021A00040EA0720014328692F6A000140EA07300E
:1021B000084369686D6926F0AA0646EA05152943B1
:1021C00093602268906154F8460B0162012004F884
:1021D0001F09E0752076E0762077A0750020B7E72C
:1021E00070B586B0044614216846FEF735F81E49DE
:1021F0001C4E256800231C4A103902241B48B54296
:1022000011D1156845F002051560126802F002024E
:1022100005920A6842F001020A60096801F00101B2
:102220000591C02113E0124EB54218D1156845F052
:1022300008051560126802F0080205920A6842F06B
:1022400001020A60096801F0010105910321009172
:10225000CDE90143CDE903346946FFF73BF806B009
:1022600070BD000000040040403802400000024001
:10227000000C004070B590F83E60044690F83F5066
:1022800090F8423090F84320022021B104290ED06A
:10229000012E1BD114E0012E18D1012B16D184F888
:1022A0003E0084F8420001220021206820E0012D38
:1022B0000CD1012A0AD184F83F0084F8430014E0CD
:1022C000012D03D1012B01D1012A01D0012070BDC4
:1022D00084F83E0084F83F0084F8420084F843000C
:1022E00001220021206801F0D9FC0122042120688C
:1022F00001F0D4FC2068016841F001010160002078
:1023000070BD70472DE9F04104460068C668056954
:102310004FF00007A90713D5B10711D5F91E0161C8
:1023200001202077206880698007204602D0FFF7CF
:10233000E8FF04E000F0A8F8204600F03AF927771B
:10234000680716D5700714D521686FF0040008617E
:10235000022020772068806910F4407F204602D058
:10236000FFF7CFFF04E000F08FF8204600F021F9DE
:102370002777280715D5300713D521686FF0080097
:102380000861042020772068C0698007204602D0B9
:10239000FFF7B7FF04E000F077F8204600F009F9F6
:1023A0002777E80616D5F00614D521686FF01000DF
:1023B0000861082020772068C06910F4407F20461B
:1023C00002D0FFF79EFF04E000F05EF8204600F028
:1023D000F0F82777E80708D0F00706D021686FF0FB
:1023E00001000861204600F049F9280608D53006AA
:1023F00006D521686FF0800008612046FFF74EFD8A
:10240000680608D5700606D521686FF0400008619F
:10241000204600F043F9A8060AD5B00608D5216881
:102420006FF0200008612046BDE8F041FFF737BD9E
:10243000BDE8F08110B586B0044614216846FDF76A
:102440000BFF0E492068884215D10D480021026813
:1024500042F008020260006800F0080005904FF4A6
:10246000405000900220CDE90101CDE903106946FA
:102470000448FEF72FFF06B010BD00000008004022
:1024800030380240000C0240704770B5044690F8A6
:102490003C0000260D4601280FD0012084F83C00A6
:1024A0006AB1042A1DD0082A2FD00C2A3FD0012659
:1024B000002084F83C00304670BD022070BD2068CA
:1024C00001F00CFC2068816941F0080181612068FD
:1024D000816921F004018161206881692A691143C1
:1024E00011E0206801F02AFC2068816941F4006154
:1024F00081612068816921F480618161206881693E
:102500002A6941EA02218161D2E7206801F04CFC8E
:102510002068C16941F00801C1612068C16921F0EA
:102520000401C1612068C1692A69114311E0206872
:1025300001F06EFC2068C16941F40061C16120684E
:10254000C16921F48061C1612068C1692A6941EAD9
:102550000221C161ACE710B5040003D094F83D003E
:1025600010B107E0012010BD002084F83C00204697
:1025700000F01EF8022084F83D00211D206801F0C3
:1025800025FB012084F8460084F83E0084F83F00D3
:1025900084F8400084F8410084F8420084F8430045
:1025A00084F8440084F8450084F83D00002010BD04
:1025B0007047704710B50446022249B104290ED075
:1025C000082913D094F84100012816D0012010BD2D
:1025D00094F83E000128F9D184F83E200FE094F8E9
:1025E0003F000128F2D184F83F2008E094F8400031
:1025F0000128EBD184F8402001E084F84120012239
:10260000206801F04BFB16492068164A884201D029
:10261000904203D1436C43F40043436420688842F2
:1026200013D0B0F1804F10D00F4988420DD00F4920
:1026300088420AD00E49884207D0904205D00D4901
:10264000884202D00C49884204D1816801F0070118
:10265000062903D0016841F001010160002010BD8E
:102660000000014000040140000400400008004058
:10267000000C004000400140001800400068044980
:10268000884203D103490448FEF7A0BB704700000D
:1026900000200040380000202C000020704718B5B2
:1026A000034690F84200202801D0022018BD61B1F5
:1026B0005AB10120186300205863184601F0C6FE85
:1026C0000028F3D1196B012901D0012018BD196828
:1026D0000A684968009119680C3151E8002F42F0EE
:1026E000100241E80024002CF5D118BD10B50C46AD
:1026F0000C4900680968884213D1802C00D98024D5
:102700000949224601F18000FDF78DFD07488480CC
:1027100001218170BDE81040802203490148FFF784
:10272000BEBF10BDD00D00203801002008000020E1
:1027300010B504460068406994F84110C0F3C01019
:10274000212911D180B12068143050E8001F21F0F8
:10275000800140E80012002AF5D1A06B08B1FEF715
:10276000D9FB204601F02DFD2068406994F8421005
:10277000C0F38010222911D180B12068143050E8B4
:10278000001F21F0400140E80012002AF5D1E06B63
:1027900008B1FEF7BFFB204601F0ECFC002010BDA5
:1027A000054900680968884204D18022034902482B
:1027B000FFF775BF70470000D00D002038010020E2
:1027C000F8B5016804460868CA684B6910F00F0F35
:1027D0004FF0000559D003F0010602F4907737431B
:1027E00065D0C10705D0D10503D5616C41F0010169
:1027F0006164410705D5D90703D0616C41F002013E
:102800006164810705D5D90703D0616C41F00401EB
:102810006164010707D502F02001314303D0616CE8
:1028200041F008016164616C00293AD0800604D54A
:10283000900602D5204601F0D2FC20684069616C08
:10284000C0F38010090700D460B3204601F092FC69
:1028500020684069400621D52068143050E8001FE8
:1028600021F0400140E80012002AF5D1E06BA8B148
:1028700072490165E06BFEF796FB002811D0E06B12
:10288000016D01B0BDE8F040084783060FD59306FF
:102890000DD52046BDE8F84001F0A1BC2046FFF769
:1028A0007FFFF8BD2046FFF77BFF6564F8BD266B10
:1028B0002023012E7ED1C6067CD5D6067AD508689F
:1028C0004868009048694FF0020640064DD5E26B1B
:1028D000106840684FF480770004000C3AD0A18D56
:1028E000814237D9E085D069B8422DD020680C30BC
:1028F00050E8001F21F4807140E80012002AF5D151
:102900002068143050E8001F21F0010140E8001257
:10291000002AF5D12068143050E8001F21F0400152
:1029200040E80012002AF5D184F84230256320687F
:102930000C3050E8001F21F0100140E80012002A7E
:10294000F5D1E06BFEF7E6FA6663A08DE18D401AE3
:1029500081B206E0A18D8142A8D1D069B842A5D14B
:1029600066632046FFF7C2FEF8BDA08DE18D401AD8
:1029700081B2E08D0028F7D00029F5D020680C3016
:1029800050E8002F22F4907240E80027002FF5D184
:102990002068143050E8002F22F0010240E80027A0
:1029A000002FF5D184F84230256320680C3050E8C0
:1029B000002F00E006E022F0100240E80023002B88
:1029C000F3D1CDE705062BD5150629D594F841009E
:1029D0002128C9D1A068B0F5805F01D12069B0B1CC
:1029E000206A411C2162216800784860E08C401E0A
:1029F0000004000CE084B7D12068C16821F0800198
:102A0000C1602068C16841F04001C160F8BD206A22
:102A10000088C0F308004860206A801C2062E5E757
:102A20004006F3D55006F1D5CA68204622F0400290
:102A3000CA6084F8413000F06FF9F8BD79400008B1
:102A400070B5040004D094F84100002510B106E0F0
:102A5000012070BD84F84050204600F023F8242067
:102A600084F841002068C16821F40051C16020460B
:102A700001F016FC2068016921F490410161206891
:102A8000416921F02A0141612068C16841F4005187
:102A9000C1606564202084F8410084F842006563C9
:102AA000002070BD2DE9F04387B00546142168462B
:102AB000FDF7D2FB5E495D4AD5F800C000245C48B2
:102AC0001439022303260727DFF86891944519D1AA
:102AD000026842F010020260006800F010000590E9
:102AE000086840F0010008600868694600F00100CD
:102AF000059070028DE8D9004846FEF7EBFB07B061
:102B0000BDE8F0834A4ADFF83081121FC4451DD169
:102B1000106840F400301060106800F40030059038
:102B2000086840F0010008600868694600F001008C
:102B300005900C208DE8D9004846FEF7CBFB00221B
:102B400011462620FEF7C2FE262039E0DFF8EC8091
:102B50004FF48069C44536D1106840F4802010607D
:102B6000106800F480200590086840F002000860BA
:102B70000868694600F0020005904FF440608DE857
:102B8000D9002F48FEF7A6FB2F4E2E4830604FF09D
:102B90000060C6E90104C6E903497461B461F461E7
:102BA000346230467462FEF7E1FA08B1FEF73EF98E
:102BB000EE63002211462720B563FEF787FE27202B
:102BC000FEF776FE9BE7214A944598D1026842F0D1
:102BD00020020260006800F020000590086840F0C4
:102BE000040008600868694600F004000590C020F1
:102BF0008DE85900082004901548FEF76BFB124E33
:102C00001448603630608005C6E90104C6E903490E
:102C10007461B461F461346230467462FEF7A6FAFE
:102C200008B1FEF703F9EE63B56368E700100140F1
:102C30004438024000000240004400400048004088
:102C40000004024028600240A80E00200014014049
:102C5000000802402864024090F84230202B01D046
:102C60000220704721B11AB10023036301F09EBB1B
:102C700001207047704770472DE9F843044690F8EB
:102C80004100984616460D46202802D00220BDE895
:102C9000F88385B17EB100206064212084F8410072
:102CA000FEF716FCA6848146E684A0682027B0F5CE
:102CB000805F02D003E00120E9E7206910B12E46D1
:102CC00000250EE000260CE08021204601F0D9FB13
:102CD000A8B9C6B116F8010B21684860E08C401E07
:102CE000E084E08C4B464FF00002CDF800800028D5
:102CF000EAD14FF04001204601F0C3FB40B184F817
:102D000041700320C3E735F8020BC0F30800E3E786
:102D100084F841700020BAE77047FEE701684A690D
:102D2000D24352050FD46FF480624A61002140F80B
:102D3000301F202242738173026942F00402026153
:102D4000017301207047002070470000F8B5044669
:102D5000C06A1E460D461746082807D0012805D030
:102D600010F5803F02D0206B122804D12068016842
:102D700041F480710160134600224FF0011120469A
:102D8000009600F05DF840B120680068C00502D5EB
:102D90004FF4007020640320F8BD2069B0F5804F27
:102DA0000ED00620216800EAD51040F0F00008613E
:102DB00033463A460B49204600F08AF878B902E0DB
:102DC00005F0FE0000E0E8B22168086105493346DD
:102DD0003A46891F204600F07BF80028DCD001200D
:102DE000F8BD00000800010070B516460D46044607
:102DF0001EE02046FFF792FF08B1012070BD681C5D
:102E000016D0FEF765FB801BA84200D885B9206864
:102E10004069C04340070BD5002044F8300F202103
:102E20006173A073216941F0200121612073E4E7FF
:102E300020684069C0434007DBD4002070BD00001B
:102E40002DE9F047984617460D460446C1F307465C
:102E5000DDF820902AE000BFB8F1FF3F26D0FEF752
:102E600037FBA0EB0901414502D8B8F1000F1DD195
:102E70002068012E16D0806925EA00000004000CAD
:102E800012D00020B84211D1002044F8300F202188
:102E90006173A073216941F0200121612073012039
:102EA000BDE8F0874069E7E70120EBE72068012EE5
:102EB0000AD0806925EA00000004000C06D000203A
:102EC000B842C9D00020EBE74069F3E70120F7E7FB
:102ED0002DE9F047984616460D4604464FF0000986
:102EE0004FF0200AC1F3074723E020684069C04340
:102EF000400515D42068016841F400710160216823
:102F00006FF480604861C4F8309084F83DA084F884
:102F10003E90216C41F00401216484F83C9021E052
:102F2000701C06D0FEF7D4FAA0EB0800B04203D81C
:102F300016B1012F1FD021E02068012F15D0806924
:102F400025EA00000004000C18D000BF44F8309FB0
:102F500084F80DA084F80E90216941F020012161D0
:102F600084F80C900120BDE8F087406925EA000054
:102F70000004000CEAD12068406901E02068806903
:102F800025EA00000004000CAFD1ECE770B516464E
:102F90000D4604461EE02046FFF7C0FE08B10120A2
:102FA00070BD681C16D0FEF793FA801BA84200D8AB
:102FB00085B920684069C04300060BD5002044F85D
:102FC000300F20216173A073216941F0200121613C
:102FD0002073E4E720684069C0430006DBD400208A
:102FE00070BD0000114808B5016841F4001101608E
:102FF000016801F400110091016841F48001016051
:103000000068002200F48000009011460C20FEF7BA
:103010005DFC0C20FEF74CFC002211463920FEF727
:1030200055FCBDE808403920FEF742BC303802406C
:103030002DE9F04F87B014216846FDF70DF941489E
:103040000024016841F010010160016801F01001E5
:103050000591016841F004010160016801F004017B
:103060000591016841F080010160016801F0800173
:103070000591016841F001010160016801F0010161
:103080000591016841F002010160016801F002014F
:103090000591016841F0080101600068DFF8A8901F
:1030A00000F008004FF40C550590002229464846D0
:1030B000FEF708FADFF894A04FF4007600223146BC
:1030C0005046FEF7FFF9DFF888B04FF47047002252
:1030D00039465846FEF7F6F94FF44048002241467B
:1030E0001C48FEF7EFF94FF4D870CDE900046946AB
:1030F00050460294FEF7EEF800950125CDE9015403
:10310000694648460394FEF7E5F80096CDE9015478
:10311000694650460394FEF7DDF80097CDE9015467
:10312000694658460394FEF7D5F8CDF80080CDE9FE
:103130000154694607480394FEF7CCF807B0BDE890
:10314000F08F0000303802400008024000100240BA
:1031500000040240000C02400D4810B50B4901600C
:103160000C49416000214FF480428160C0E90312A4
:1031700041618161C1610162FEF7B0F9002803D0AD
:10318000BDE81040FDF752BE10BD000000540040E5
:10319000140C0020A08601000C4810B50A490160FB
:1031A0005321416000214CF24F32C0E9021201610B
:1031B00080218161FEF7BCFE002803D0BDE81040ED
:1031C000FDF734BE10BD000000200040400D00207F
:1031D00010B58CB024216846FDF73EF8002416484F
:1031E000099414490A94C0E900144FF6FF71C0E92C
:1031F0000241046184610320CDE9000401200A2119
:10320000CDE902040491CDE90540079469460A48D6
:103210000894FEF793FF08B1FDF708FE099409A989
:1032200005480A94FEF73CFE002801D0FDF7FEFD9C
:103230000CB010BD00040040680C002010B58EB02A
:1032400000240794089409940A940B941C2168465E
:103250000C94FDF701F82348214901600121C0E9E0
:10326000011441F26701C0E9031480218161FEF776
:103270005FFE08B1FDF7DAFD4FF48050079007A913
:103280001848FEF7EDFE08B1FDF7D0FD1548FFF731
:1032900062F908B1FDF7CAFD0B940BA911480C9413
:1032A000FEF7FEFD08B1FDF7C1FD6020CDE9000489
:1032B0000294002269460B480494FFF7E6F808B12F
:1032C000FDF7B4FD042269460648FFF7DEF808B1B1
:1032D000FDF7ACFD0348FFF7ADF80EB010BD0000E0
:1032E00000080040B00C002010B58CB024216846C6
:1032F000FCF7B2FF00241548099413490A94C0E969
:103300000014611EC0E90241046184610320CDE91B
:1033100000040120CDE902040494CDE9054007949E
:1033200069460A480894FEF709FF08B1FDF77EFDDB
:10333000099409A905480A94FEF7B2FD002801D0B6
:10334000FDF774FD0CB010BD000C0040F80C00201F
:103350000C4810B50A4901604FF4E1314160002189
:1033600081600C22C160C0E904128161C161FFF774
:1033700067FB002803D0BDE81040FDF757BD10BD26
:1033800000100140880D00200C4810B50A4901606A
:103390004FF4E1314160002181600C22C160C0E93D
:1033A00004128161C161FFF74BFB002803D0BDE827
:1033B0001040FDF73BBD10BD00440040D00D002083
:1033C0000C4810B50A4901604FF4E1314160002119
:1033D00081600C22C160C0E904128161C161FFF704
:1033E0002FFB002803D0BDE81040FDF71FBD10BD26
:1033F00000480040180E00200C4810B50A49016032
:103400004FF4E1314160002181600C22C160C0E9CC
:1034100004128161C161FFF713FB002803D0BDE8EE
:103420001040FDF703BD10BD00140140600E0020E8
:10343000FEE7000010B51548134B042141F2680265
:103440000361C0E9051212494FF480440160848091
:103450006400816084811C30036100230160C0E945
:1034600005328A14828081605100818101220948DD
:10347000FEF728F8054800F051FB0448BDE810406D
:103480001C3000F04BBB0000B00C002038020020C4
:10349000000402400008024003460DE002782A2A98
:1034A00003D0202A01D37A2A01D9FF2070472C2A81
:1034B00001D1491EC9B2401C0029EFD1C01AC0B2C7
:1034C0007047000030B50A462DED028B054681B0ED
:1034D00017A11046FCF7CBFE040025D00921FFF709
:1034E000DBFFFF2814D02044694600F057F900EEB6
:1034F000100A9DF800100A20B8EEC08A00F046F9C4
:1035000000EE100AB8EE400AC8EE000AC5ED220A25
:1035100007212046FFF7C0FFFF2805D02044694659
:1035200000F03CF985F8790001B0BDEC028B30BDAC
:10353000474741002DE9F0410A462DED048B044632
:1035400082B08FA11046FCF792FE05007DD00121CC
:10355000FFF7A2FF42F210774FF06408FF281BD05C
:103560002844694600F01AF906469DF800100A2022
:1035700000F00CF9B6FBF0F1B1FBF7F0207140461A
:10358000B1FBF0F2B2FBF0F308FB13226271B1FB66
:10359000F8F208FB1210A07103212846FFF77CFF08
:1035A0009FED789AFF2848D02844694600F0F6F845
:1035B00006469DF80000801CC1B20A2000F0E6F823
:1035C000B6FBF0F0FCF78DFFC4E916019DF8000092
:1035D000801CC1B20A2000F0D9F8B6FBF0F100FB64
:1035E000116000EE100A9DF80000C0F10500C1B2A4
:1035F000B8EE408A0A2000F0C9F800EE100AB8EED2
:10360000400A60EE080A80EE890A10EE100AFCF704
:1036100075FF41EC180B05210A2000F0B7F8FCF704
:1036200060FF94ED161B53EC112BFCF7E8FE53ECF6
:10363000182BFCF73DFEC4E9160104212846FFF7CC
:103640002BFFFF2804D0285C00E094E084F86000A1
:1036500005212846FFF720FFFF2848D02844694667
:1036600000F09CF806469DF80000801CC1B20A20BC
:1036700000F08CF8B6FBF0F0FCF733FFC4E91A0158
:103680009DF80000801CC1B20A2000F07FF8B6FB54
:10369000F0F100FB116000EE100A9DF80000C0F18F
:1036A0000500C1B2B8EE408A0A2000F06FF800EEC3
:1036B000100AB8EE400A60EE080A80EE890A10EEA1
:1036C000100AFCF71BFF41EC180B05210A2000F043
:1036D0005DF8FCF706FF94ED1A1B53EC112BFCF779
:1036E0008EFE53EC182BFCF7E3FDC4E91A0106210A
:1036F0002846FFF7D1FEFF2802D0285C84F870002E
:1037000007212846FFF7C8FEFF2818D0284469463D
:1037100000F044F808EE100A9DF800100A2000F0AE
:1037200035F800EE100AB8EE481AB8EE400AC1EEBD
:10373000000A9FED150A20EE800A84ED1D0A09217A
:103740002846FFF7A9FEFF2815D02844694600F057
:1037500025F8B0FBF7F1E1704146B0FBF1F2B2FBA6
:10376000F1F308FB1322A270B0FBF8F208FB120081
:1037700000F5FA60208002B0BDEC048BBDE8F0815A
:10378000524D430000007042560EED3F02460120AC
:1037900000E05043491EC9B2FBD270472DE9F05FEB
:1037A0004FF0000A8B468046D14655465446564651
:1037B00001782D2902D146F00206401C01782C29FF
:1037C00008D02A2906D02E290AD030390A290AD34E
:1037D00000252C46B00701D508F10108002718E0A4
:1037E00046F00106401CF10702D0641CE4B201E07F
:1037F0006D1CEDB2401CDBE7E81B401EC1B20A2085
:10380000FFF7C4FF18F80710303900FB01AA7F1C2E
:10381000FFB2AF42F0D3052C00D905248BF800404D
:1038200000270EE0E01B401EC1B20A20FFF7AEFFEA
:10383000EA1902EB08014978303900FB01997F1C35
:10384000FFB2A742EED321460A20FFF79FFF0AFBF3
:103850000090B10700D54042BDE8F09FFEE70000B0
:1038600070B5044600200D4BB0F1010503EB0016C6
:10387000767A1EB1401C0828F8DB0CE0461C0AD002
:103880004CB103EB0013C3E900411A7201215972D4
:103890000021D96070BD284670BD0000B80000202E
:1038A000002801D000F002B87047000000280BD0BB
:1038B000064A1168082907D2054B03EB0111C860BD
:1038C00004204872401F1060704700000400002070
:1038D000B80000200021094B084600BF03EB01128D
:1038E000491C1060506010725072D0600829F5DBDE
:1038F00003494FF0FF30086070470000B800002017
:10390000040000202DE9F04100264FF0FF35154955
:103910002C463346304600BF01EB0012577A012F88
:1039200006D113B1177AB74202D9167A0446012399
:10393000401C0828F0DB601C12D00B4F01EB041672
:1039400002203C607072316809B17068884738683D
:10395000A04205D1707A022802D1012070723D6028
:10396000BDE8F081B800002004000020FFF7CAFF86
:10397000FCE7000010B50020084B012403EB001108
:103980004A7A042A05D1CA681AB1521ECA6000D107
:103990004C72401C0828F1DB10BD0000B80000206C
:1039A00080ED030A30EE600AC0ED040A80ED050ADE
:1039B000D0ED070A70EE800AC0ED070A90ED0A1AF2
:1039C000F4EEC10AF1EE10FA06DCB1EE411AF4EEA3
:1039D000C10AF1EE10FA01D280ED071AD0ED060A05
:1039E000D0ED011A90ED072A30EE601AD0ED000AF2
:1039F00060EE800A41EE820AD0ED021A41EE810AA1
:103A0000C0ED080A90ED091AF4EEC10AF1EE10FAC1
:103A100006DCB1EE411AF4EEC10AF1EE10FA01D261
:103A200080ED081A80ED060A90ED080A7047C0ED97
:103A3000091A80ED0A2A80EC030A00F001B80000A0
:103A40009FED070A80ED030A80ED040A80ED050A68
:103A500080ED060A80ED070A80ED080A7047000035
:103A6000000000007047704710B5FFF783FFBDE806
:103A70001040FDF7C3BE000030B593B0302168465A
:103A8000FCF7EAFB14210CA8FCF7E6FB1D48002517
:103A9000016841F080510160006800F08050119091
:103AA0001948016841F4804101600068022400F473
:103AB00080401190012003901020049000940694FF
:103AC0000820CDE90750A820CDE9090404200B9077
:103AD0006846FEF719F808B172B6FEE70CA90F2088
:103AE00081E831004FF4A0500F904FF480501090B7
:103AF00005210CA8FDF71CFF002801D072B6FEE7D7
:103B000013B030BD403802400070004002480168E8
:103B100041F470010160704788ED00E010B50400C9
:103B20000BD02069002808D06169FEF743FD2046CC
:103B3000BDE81040002100F001B810BD10B5040030
:103B40003CD0A069884200DA01464042884200DD4C
:103B50000146002901DB084600E04842626992B153
:103B6000042A14D0082A2269126814D0106400298B
:103B700013DDA1884FF000022068FDF7A3FCA189A6
:103B80000122A06816E0226912685063EFE72269FB
:103B900012689063EBE7D063E9E7A188206802DA56
:103BA0004FF0010201E04FF00002FDF78BFCA1890C
:103BB000A0680022BDE81040FDF784BC10BD0000E5
:103BC0000148FEF79FBB0000400D0020F0B50268E1
:103BD000274B284D284E294F294C4FF0804C9842B6
:103BE00009D0604507D0A84205D0B04203D0B84202
:103BF00001D0A04204D122F0700E4A6842EA0E02BF
:103C000098421BD0604519D0A84217D0B04215D0B9
:103C1000B84213D0A04211D01A4DA8420ED01A4D6E
:103C2000A8420BD0194DA84208D0194DA84205D082
:103C3000184DA84202D0184DA84203D122F4407575
:103C4000CA682A434D6922F080022A438D68C56202
:103C50000D688562984201D0A04201D109690163D3
:103C6000016841F004010160012141610260F0BD81
:103C7000000001400004004000080040000C00402B
:103C80000004014000400140004401400048014060
:103C900000180040001C00400020004010B501F05A
:103CA0001F030121046A99408C430462016A9A400F
:103CB0001143016210BD10B5846842EA032224F466
:103CC0007F440A432243826010BD826822F0700262
:103CD0000A4342F00701816070470000F0B5036AB3
:103CE000026A22F00102026242688469124E24F0E4
:103CF00073050C682C4323F002058B682B430D4D94
:103D0000A84201D0B04205D123F00807CB683B435D
:103D100023F00403A84201D0B04205D14D6922F43A
:103D2000407215438A692A4342608461496841634D
:103D30000362F0BD0000014000040140F0B5026ADA
:103D4000036A23F010030362436884690D6824F456
:103D5000E64444EA05248D6822F0200242EA051276
:103D60000F4D104EA84201D0B04206D1CF6822F0CC
:103D7000800242EA071222F04002A84201D0B0427B
:103D800007D14D6923F4406343EA85038D6943EA13
:103D9000850343608461496881630262F0BD00006D
:103DA0000000014000040140F0B5026A036A23F4F8
:103DB000807303624368C46922F4007224F07305BF
:103DC0000C68124E2C438D6842EA05220E4DA84223
:103DD00001D0B04206D1CF6822F4006242EA072245
:103DE00022F48062A84201D0B04207D14D6923F489
:103DF000405343EA05138D6943EA05134360C461E8
:103E00004968C1630262F0BD000001400004014046
:103E100030B5046A026A22F4805202624268C369C1
:103E20000D6823F4E64343EA05238D6824F4005427
:103E300044EA0534084DA84202D0084DA84204D1F6
:103E40004D6922F4804242EA85124260C3614968AA
:103E50000164046230BD0000000001400004014024
:103E600010B5036A046A24F001040462846924F032
:103E7000F00444EA021423F00A020A438461026255
:103E800010BD10B5036A046A24F01004046284694A
:103E900023F0A00324F4704444EA023243EA0111FF
:103EA0008261016210BD10B5FCF7ECFCBDE810406A
:103EB0000A20FFF7F5BC000070B5214C00252078E2
:103EC00090B1012817D0022822D003282AD02570CB
:103ED0002078401CC0B22070042800D32570BDE8B3
:103EE0007040C820FFF7DCBC0020FCF795FD0120E6
:103EF000FCF782FD05E00020FCF77EFD0120FCF7C9
:103F00008BFD0220FCF778FD0320FCF775FDDFE751
:103F10000020FCF771FD0120FCF76EFD0220FCF78C
:103F20007BFDF1E70020FCF767FD0120FCF764FD55
:103F30000220FCF761FD0320FCF76EFDC8E70000DE
:103F40000000002010B52D48DFED2B0A2DED028B6F
:103F50009FED288A0078F0EE488A20B32848B0EE1A
:103F6000608A90ED020A2748D0ED020A2648FFF742
:103F700017FDF0EE408A00BFBDEEC80A10EE100A31
:103F800001B22248FFF7DAFDBDEEE80A10EE100A92
:103F900001B21F48FFF7D2FDBDEC028B0A20BDE83D
:103FA0001040FFF77DBC1B480078012808D002288C
:103FB0009FED190A09D003280AD0042811D10CE07A
:103FC000B0EE608AF0EE488A0BE0B0EE408A06E080
:103FD000B0EE408AF0EE608A03E0B0EE608AF0EE68
:103FE000408A09482C38FFF72BFD0748FFF728FDCA
:103FF000C2E70000000000000000FA4309000020B2
:104000002C000020380000208C0000203802002006
:1040100054020020080000200000FAC310B5044834
:10402000FCF74EFCBDE81040C820FFF739BC00008B
:104030007006002010B50C4B0C4A0D490D4801F0DC
:1040400065F80C49782081F82400084601F0ADFBA2
:104050000021084801F0B9FB064800F048FFBDE820
:104060001040044801F000B8E15B00086D580008FA
:10407000F06600088007002010B5806B0021C18524
:10408000FEF78EFB10BD70B5846B2068406994F814
:104090004110C0F3C0100025212904D118B1E584D6
:1040A000204600F08EF82068406994F84210C0F372
:1040B0008010222904D118B1E585204600F05AF875
:1040C000606C40F0100060642046FEF769FB70BD34
:1040D00010B50146806B096809684FF00002C905F8
:1040E0002ED4C28501680C3151E8003F23F480735F
:1040F00041E80034002CF5D10168143151E8003F4B
:1041000023F0010341E80034002CF5D1016814319B
:1041100051E8003F23F0400341E80034002CF5D182
:10412000202180F84210016B012909D101680C316E
:1041300051E8003F23F0100341E80034002CF5D192
:104140004263016B012902D0FEF794FD10BD818D01
:10415000FEF7CCFA10BD10B5806B01214163016BF5
:10416000012902D0FEF787FD10BD818D4908FEF7B9
:10417000BDFA10BD01680C3151E8002F22F4907295
:1041800041E80023002BF5D10168143151E8002FDC
:1041900022F0010241E80023002BF5D1016B012937
:1041A00009D101680C3151E8002F22F0100241E8DA
:1041B0000023002BF5D1202180F84210002101635B
:1041C000704701680C3151E8002F22F0C00241E82D
:1041D0000023002BF5D1202180F84110704708B54D
:1041E00090F84210222901D0022008BD82684FF4C5
:1041F00080539A4201D1016921B1816A9A421BD050
:104200004AB10AE00268816A5268C2F308020A8071
:10421000816A891C08E0026972B10268526802F082
:104220007F020A70816A491C8162C18D491E09049E
:10423000090CC18503D01BE002685268F1E70168F0
:10424000CA6822F02002CA600168CA6822F480723B
:10425000CA6001684A6922F001024A61202180F89F
:10426000421000214163026B012A03D0FEF702FDD8
:10427000002008BD016301680C3151E8002F22F0D5
:10428000100241E80023002BF5D101680A68D2062C
:1042900002D50A6849680091818DFEF727FAE7E7A1
:1042A00070B5044600680169E26821F44051114389
:1042B00001612169A068E26908436169114308430B
:1042C0002168CA6849F20C639A430243CA602068B5
:1042D0004169A26921F4407111434161314920686B
:1042E000884202D03049884202D1FDF7CBFB01E081
:1042F000FDF7B8FBE2690023192164253226B2F5E7
:10430000004F626828D0A0FB0101930F9200FBF7D9
:1043100059FF0146B0FBF5F06FF01802504301EB76
:10432000800006EB0010B0FBF5F000F0F002B1FBEE
:10433000F5F002EB0012B1FBF5F06FF018035843F3
:1043400001EB800006EB0010B0FBF5F000F00F0071
:1043500021681044886070BDA0FB010192185B4188
:10436000FBF730FF0146B0FBF5F00201B1FBF5F0C1
:104370006FF01803584301EB800006EBC000B0FB60
:10438000F5F000F0F80002EB4002B1FBF5F0584305
:1043900001EB800006EBC000B0FBF5F000F0070079
:1043A000D6E70000001001400014014038B58162DA
:1043B00004468285002013466064222284F842204D
:1043C000E56B1F4AEA63E56B1E4A2A64E56B1E4AE9
:1043D000EA64E26B10650A462168E06B091DFCF790
:1043E0002FFF30B110206064202084F842000120AB
:1043F00038BD2068016840680090206948B1206895
:104400000C3050E8001F41F4807140E80012002A8F
:10441000F5D12068143050E8001F41F0010140E858
:104420000012002AF5D12068143050E8001F41F036
:10443000400140E80012002AF5D1002038BD0000FC
:10444000D1400008574100088740000881628285FA
:10445000C28500214164222180F84210016921B106
:104460000168CA6842F48072CA6001684A6942F011
:1044700001024A610068C16841F02001C16000206A
:1044800070472DE9F843984617460D460446089EA6
:1044900024E0701C22D0FDF71BF8A0EB0800B0420E
:1044A0001AD8CEB12068C168490717D5802D15D01C
:1044B000402D13D00168C94309070FD401680025B6
:1044C000406800902046FFF755FE0820606484F89D
:1044D00040500120BDE8F8830320FBE72068006816
:1044E00035EA000004D00020B842D2D00020F1E725
:1044F0000120F9E70148FEF763B90000D00D002064
:1045000010B5FCF7D5FCBDE810400148FEF758B9DE
:10451000180E0020FEE700000FB4054B10B503A9EC
:10452000044A029800F004F910BC5DF814FB000086
:10453000994E00085C0000200FB47CB50C0009AD5A
:1045400001D0611E00E00021CDE90001064B6A4662
:104550002946089800F0ECF8002C02D0009A0021BF
:1045600011707CBC5DF814FB374E00080907090E7A
:10457000002804DB00F1E02080F80014704700F010
:104580000F0000F1E02080F8141D704702E008C819
:10459000121F08C1002AFAD170477047002001E0BD
:1045A00001C1121F002AFBD1704700002DE9FF5FF7
:1045B00082B00021DDE90430020DDDF840B0034394
:1045C00018D044F61050A2F2FF324243151411984D
:1045D00001281FD0A5EB0B00401C5FEA000A4FF03A
:1045E00000064E4FDFF83891B046504615D5CAF157
:1045F000000413E0119801244AA3012801D16FEAB5
:104600000B010298119AC0E90031C0E9024206B0DC
:10461000BDE8F09FCBF10000DFE704460021404AEF
:10462000491842EB0450CDE9001012E0E00707D032
:1046300032463B4640464946FBF7E1FE8046894606
:1046400032463B4610461946FBF7D9FE06460F4652
:104650006410002CEAD1DDE90401DDE90023BAF1A0
:10466000000F06DAFBF7CBFE42464B46FBF7C7FED0
:1046700005E0FBF7FAFF42464B46FBF7F6FF044620
:104680000E460022284BFCF777F803D84FF0FF3096
:10469000014607E00022254B20463146FBF708FE85
:1046A000FCF752F8102409E0002C0ADB0A22002350
:1046B000FBF788FD039B30321A55641E50EA010255
:1046C000F2D1641C039AC4F111031444119A012A13
:1046D00003D0012208430DD10AE0084304D0002092
:1046E0004FF0110B119072E7A3EB0B056D1E0DE05F
:1046F0005B4504DD4FF0000205F1010504E003DA3B
:104700004FF00002A5F10105002AECD002981199A2
:10471000C0E90231C0E9004579E70000000014401B
:104720000000F03F300000000000F0430000E03FD8
:104730002DE9FF4F95B09A46884606460025EEE1E2
:10474000252877D100242746F94A0121039400E067
:10475000044316F8013F203B01FA03F01042F7D161
:1047600030782A2811D06FF02F033078A0F1300272
:10477000092A16D8039A44F0020402EB820203EBE2
:1047800042021044761C0390EFE758F8042B039282
:10479000002A03DA504244F40054039044F0020427
:1047A000761C30782E2816D116F8010F44F0040438
:1047B0002A280DD06FF02F023078A0F13003092B9A
:1047C00009D807EB870302EB4303C718761CF3E70E
:1047D00058F8047B761C30786C280FD006DC4C2807
:1047E00017D068280DD06A2814D104E0742810D09E
:1047F0007A280FD10DE044F400140AE044F4801448
:1048000001E044F440147278824202D104F580142D
:10481000761C761C307866280BD013DC582877D0AD
:1048200009DC002875D04528F6D04628F4D0472862
:104830001AD193E118E0632835D0642879D065282F
:1048400012D18BE1702873D008DC6728F1D0692879
:104850006FD06E280DD06F2806D1ACE073282CD015
:10486000752874D0782853D05246179990476D1CFC
:1048700054E1C4F30250022809D003280DD0D8F81F
:10488000001004280DD00D6008F1040846E1D8F8A6
:104890000010EA17C1E90052F6E7D8F800100D80C1
:1048A000F2E70D70F0E718F8041B8DF800100020F7
:1048B0008DF80100EB46012003E058F804BB4FF0EF
:1048C000FF3061074FF0000102D40DE009F1010152
:1048D0008946B9420FDA8145F8DB1BF80910002937
:1048E000F4D108E009F1010189468142FADB1BF8A5
:1048F00009100029F6D103985346A0EB0907214679
:104900003846179A00F080FA284400EB090507E0C2
:1049100044E008E10DE01BF8010B5246179990475F
:10492000B9F10109F7D2534621463846179AF2E009
:1049300039E00A21C4F302524FF0000B0091022A21
:1049400006D058F8040BC117032A09D00AE023E067
:1049500008F1070020F00702F2E80201904605E0A6
:1049600000B2C117042A01D140B2C117002906DAEA
:104970000A460021404261EB02012D2202E022059D
:1049800004D52B228DF80420012203E0E20701D098
:104990002022F7E7914657E00A2100E010214FF06E
:1049A000000B00910BE010214FF0000B44F00404C9
:1049B0000827009103E008204FF0000B0090C4F39B
:1049C0000252022A05D058F8040B0021032A08D00D
:1049D00008E008F1070020F00702F2E80201904623
:1049E00003E080B2042A00D1C0B24FF000092207D0
:1049F0002AD53278702A07D0DDF800C08CF0100C70
:104A00005CEA0B0C05D00EE040228DF80420012258
:104A100008E050EA010306D030238DF804308DF809
:104A2000052002229146009B83F0080353EA0B0302
:104A30000AD150EA010201D1620705D530228DF872
:104A400004204FF001097F1E3278582A04D039A281
:104A50000C920CAA02920BE03BA2F9E75B46009A8B
:104A6000FBF7B0FB0C9B9B5C029A521E02921370E8
:104A700050EA0102F2D1029804A9081A00F1200BB1
:104A8000600702D524F4803400E001275F4502DD91
:104A9000A7EB0B0000E0002000EB0B010090039857
:104AA0004944401A0390E00306D453462146179A1E
:104AB000039800F0A9F90544002706E001A8524632
:104AC000C05D179990476D1C7F1C4F45F6DBE003D6
:104AD0000CD553462146179A039800F095F90544E2
:104AE00004E030205246179990476D1C0099481EEB
:104AF00000900029F5DC08E00298029952460078FF
:104B0000491C0291179990476D1CBBF10001ABF154
:104B1000010BF1DC5BE100F065F90544761C3078AF
:104B200000287FF40DAE19B02846BDE8F08F0000D4
:104B30000928010030313233343536373839616273
:104B40006364656600000000303132333435363737
:104B5000383941424344454600000000600700D414
:104B6000062708F1070020F00700F0E8022380463E
:104B700003F0004C5FEA0C0001D097A009E020058B
:104B800001D596A005E0E00701D095A001E0AFF2C5
:104B90004C001390307823F0004365280CD006DCDD
:104BA000452809D046281DD047287FD13BE06628FC
:104BB00018D067287AD136E00021112F01DB1120AF
:104BC00000E0781CCDE9000104A90CA8FFF7EEFC79
:104BD000DDE90D010C9A4FF0000B07F1010910926D
:104BE00000914EE04FF000400097CDE9011004A97C
:104BF0000CA8FFF7DBFCDDE90D020C9B0F994FF0D1
:104C0000000B91461093009211B9791C00EB010939
:104C1000B7EB090003D4C0F1FF3B07F10109A9EB91
:104C20000700019042E0012F00DA01270021112F37
:104C300001DD112000E03846CDE9000104A90CA8EF
:104C4000FFF7B4FCDDE90D010C9A00914FF0000B69
:104C5000B946109221070FD4009A4A4503DA9146CB
:104C600001E0A9F10109B9F1010F05DD109AA9F1DF
:104C70000101515C3029F4D0B84202DA10F1040F7E
:104C800003DA0121CDE9011010E0002803DC8344A0
:104C9000A9EB000102E0411C494500DD8946A0EB7B
:104CA0000B00401C01904FF000400290200705D4FB
:104CB0000198484502DB4FF0FF30019000208DF84D
:104CC0004B0002980DF14B07B0F1004F25D00220A8
:104CD0000C902B200D90029800280CDA4042029094
:104CE0002D200D9007E00A210298FBF71AFC3031C5
:104CF000029007F8011D0C99481E0C900029F2DC67
:104D000002980028EFD1791E0D980870307800F0D5
:104D1000200040F0450007F8020D11A8C01BC01D7F
:104D200002901398007800B1012000EB090101986E
:104D300001EBE071029801440398401A401E039071
:104D4000E00306D453462146179A039800F05CF816
:104D500005441398007818B15246179990476D1C76
:104D6000E00323D553462146179A039800F04CF8E8
:104D700005441BE0BBF1000F07DB0098584504DD3C
:104D80001098179910F80B0001E01799302052463F
:104D9000904701980BF1010B401E05F101050190B0
:104DA00004D12E205246179990476D1CB9F100018D
:104DB000A9F10109DEDC05E017F8010B524617994D
:104DC00090476D1C0299481E02900029F4DC53465E
:104DD0002146179A03989EE62D0000002B00000044
:104DE000200000002DE9F041044600251E4617462C
:104DF000880404D405E039462020B0476D1C641EA9
:104E0000F9D52846BDE8F0812DE9F041044600259A
:104E10001E469046C80301D5302700E020278804AD
:104E200004D505E041463846B0476D1C641EF9D5EF
:104E30002846BDE8F0814A68002A06D00A68531C5B
:104E40000B6010704868401E486070470648016853
:104E500041F080710160054800214160016841F026
:104E60000101016070470000FCED00E0001000E06F
:104E7000064910B54A68064B064C1B68B3FBF4F3B1
:104E800058434B689B1A8342FBD310BD001000E0CF
:104E90005800002040420F0013B54FF6FF73012267
:104EA00069460248FDF7E8FE00981CBD880D002009
:104EB000FCF7ACFCFEF7E0FDFEF7BAF8FEF792F85F
:104EC000FEF7BCF9FEF710FAFEF782F9FEF764F977
:104ED000FEF73EFAFEF758FAFEF772FAFEF78CFA82
:104EE000FEF73AF9FBF7AAFDFBF7FAFEFCE70168CB
:104EF00090F83820097C12FB01F1C900406BFBF7E8
:104F0000ABB92DE9F041044690F870001F461546F4
:104F10000E4630B1012809D002280CD0032815D143
:104F20000FE0E16D20468847284408E0E16D204607
:104F30008847301A09E0E16D20468847281A85B273
:104F400004E0E16D20468847304486B239460027A8
:104F5000204600F0D1FAA4F864600100A4F866507D
:104F600003D0204600F0F8F987B23846BDE8F0815A
:104F700038B50024009400F001F838BD3FB581B089
:104F8000044690F88C00089900283AD0BDF810002B
:104F9000002836D0012811D9022902D0032907D0D0
:104FA0000CE0BDF80820101A401CADF8080005E020
:104FB000BDF80C20101A401CADF80C0011F00105D2
:104FC00021D0B4F84810BDF80800814219D8B4F8CF
:104FD0004A10814215D9B4F84E30B4F84C2004A9D7
:104FE0000DF10C0000F02AF900280AD00095206B82
:104FF000BDF81030BDF80C208568BDF808102046BB
:10500000A84705B030BDB4F84C10BDF80C00814283
:10501000F7D8B4F84E108142F3D9B4F84A30B4F856
:10502000482004A902A8DDE730B4024C446030BC3B
:1050300000F031B93158000870B50D461E460446DF
:10504000B0F84E10B0F84C00049B00F0B2FA002803
:1050500009D0B4F84A10B4F8480033462A46BDE8EF
:10506000704000F0A6BA70BD10B5044600F031FBE8
:105070002046BDE8104000F0A0BB10B50446806D8E
:10508000884209D004F17400A16500F0EDFA2046D1
:10509000BDE8104000F056B810BD00000149C165E0
:1050A000704700000D5300080021A0F85010A0F830
:1050B00054104FF6FF71A0F85210A0F85610016B73
:1050C0004968084770B5044600250498A565E36261
:1050D000616384F8382084F8395084F86D5084F87E
:1050E000915084F88D50012184F8921084F8931027
:1050F00020630168204688472046FFF7D5FF2046F9
:10510000FFF7CCFF84F8705070BD00007CB50C46F2
:10511000009313460546084A084900F05EFB01A8C3
:1051200000F09CFA0146064B00949DF804202846A6
:10513000FFF7C8FF7CBD0000B1590008D95A00082C
:10514000CD55000810B5816D00291AD090F9813035
:1051500080F88E3090F9822080F88F2090F88D10A2
:1051600000290ED001290DD090F97E4090F98010D1
:105170000C449C4201DD80F88E408A4201DD80F8BB
:105180008F1010BD90F983108B4201DA80F88E10D9
:1051900090F98410F1E72BB1012B05D0022B06D03A
:1051A000104402E0084400E0801A80B27047401AC0
:1051B000FBE72BB1012B05D0022B06D0401A02E0F1
:1051C000104400E0084480B27047801AFBE738B50D
:1051D0000446B0F856000090B4F85230B4F85420A9
:1051E000B4F850102046FFF727FF18B3012084F8C9
:1051F0008C00B4F84810B4F85000814201D2A4F8F1
:105200004800B4F84A10B4F85200814201D9A4F819
:105210004A00B4F84C10B4F85400814201D2A4F80A
:105220004C00B4F84E10B4F85600814201D9A4F8ED
:105230004E0038BD002084F88C0038BD30B504889D
:105240000D882544ADB2AC4205D99C4202D25D1E08
:10525000ADB200E014469C4201D2954201D8002034
:1052600030BD944200D214469D4200D91D460480B0
:10527000281B0880012030BD38B5C58F049C0094E0
:10528000521BC46A92B2A04738BD38B5049C009442
:10529000FFF7F2FF38BD2DE9F0471C4691468846DE
:1052A000064600F0CEFC00254FF6FF7772682178A5
:1052B000304690470346B84225D0641CA3F57F4092
:1052C000FE38F3D04A4641463046FFF71AFE96F8BC
:1052D000701031B1012907D0022908D003290FD15C
:1052E0000AE008EB000104E009EB000106E0A8EB8E
:1052F00000011FFA81F803E0A9EB00011FFA81F910
:10530000284485B2D2E72846BDE8F08700207047E0
:1053100010B50C4600F006F80122641EA240801A67
:1053200040B210BD30B50568047B2A78E2406318AE
:10533000DBB2082B09D36D1C05602D78C4F108047D
:10534000A5401543083BEAB2DBB201248C40641E41
:1053500014400373204630BD2DE9F843054600F1A3
:10536000600400F00CF915F96B6F2046E97BFFF73C
:10537000CFFF8146297C2046FFF7CAFF0746697C9C
:1053800020466B3DFFF7C4FF804694F90A000028D1
:1053900057DDF019404247B2237CA0883A4649467F
:1053A000FFF7F9FEA080237C3A46E0884946FFF7E4
:1053B00000FFE080A188277C02460B4637B1012F11
:1053C0000AD0022F40D0032F0FD146E094F90A7083
:1053D00030443B449BB207E0891B491C94F90A7096
:1053E0005B1C89B29BB2384480B200902846FFF71C
:1053F00023FE30B30020207284F8090095F876105F
:105400002046FFF78FFF814695F877102046FFF77B
:1054100089FF074600224946284600F027F8012266
:105420003946284600F022F801212046FFF77AFF8E
:105430000028EFD194F90900B042DFDBA07B85F8AA
:1054400092004046BDE8F88394F90A705B1CC91BC2
:10545000491C89B29BB2921B04E094F90A70334450
:105460009BB2D21B521C92B2401CBDE72DE9F74FF4
:1054700084B00D46049C94F8687094F86980603498
:10548000A07AC01BC6B20196B54200D201954FFA70
:1054900088F279B2A088B4F806B0237C9246894697
:1054A000FFF779FE0290237C524649465846FFF7A3
:1054B00080FE0246069808B1A17B02E0607B50B9ED
:1054C000E17B049880F89210207C0090DDE90131A6
:1054D0000498FFF753FDB54207D3A81BC5B208F1E6
:1054E0000100002700F0FF08CAE77819207284F84D
:1054F000098007B0BDE8F08F70B50D460146806D9C
:105500001730FF2D10D8612D02D3B1F8881003E0B9
:10551000412D02D3B1F886100844417819B30278BE
:10552000AA42F9D1801C70BDB1F88A100C18264629
:105530000021304600F019F804440221304600F002
:1055400014F8361DA842F3D34FF6FF72207802EA12
:1055500000216078084306D0A84201D1E01C70BD4C
:10556000A0780444F2E7002070BD08444FF6FF72B3
:105570000178407802EA0121084480B2704730B5D2
:10558000054600F1600401660020207315F8781FBD
:105590002046FFF7C7FEA07269782046FFF7C2FEDB
:1055A000E072A87EA07310B10020E07330BD01202E
:1055B000FBE78A4205D2834201D89A4203D90120EF
:1055C00070478342F9D8002070470000F0B502F020
:1055D00007060124B440002590F892E0E7B2DDF818
:1055E00014C02C46BEF1010F01D83D4600D03C4608
:1055F000076822F00702BCF1000F3F7C07FB02F7AF
:10560000BAB2476B3A44114409D108785B1E28436B
:1056100060401B0401F8010B1B0CF6D1F0BD0A78A9
:10562000761C2A436240A3F101030A7016F00706B4
:105630009BB206D06A06150E6206140E002BEED140
:10564000F0BD428F114490F89220012A03D800BF88
:105650004FF00105F2D04FF00104EFE7082101708F
:10566000004870471408002070B505460878287077
:10567000487868708878A870C878E87008792871C8
:105680004879687188790C46A871E079E871207AC8
:105690002872607A6872A07AA872E07AE872207B39
:1056A0002873607B6873A07BA873E07BE873207C21
:1056B000287411212046FFF758FF688213212046E5
:1056C000FFF753FFA88215212046FFF74EFFE8821F
:1056D00070BD2DE9F843064690F8387090F83950BF
:1056E000006800244FF6FF7890F81190316830463A
:1056F0002A460B7C716B04FB03FC1FFA8CFC08EA46
:10570000CC0C61440091002100F040F8641C6D1C39
:10571000E4B2EDB2BC4201D24D45E7D3BDE8F88317
:10572000F0B590F838204FF6FF75036805EAC2011E
:105730008187197C05EAC101418790F8394005EA63
:10574000C401C1875E7CA718B74201D9321B92B24F
:1057500005EAC20220F8401F11444180998A8180E5
:10576000D98AC180F0BDFFF7DBBF0021A0F8481047
:10577000B0F84410A0F84A10B0F84010A0F84C104F
:10578000B0F84210A0F84E10FFF721BD1CB58DF8FF
:1057900005108DF80620049C8DF804300094012239
:1057A00084686B460F21A0471CBD30B48468002379
:1057B000A44630BC1A460A21604730B484680023EE
:1057C000A44630BC1A461021604730B484680023D8
:1057D000A4460A4630BC0B2160472DE9F04115462E
:1057E0000E460446069F00F009F86761A660C4E90A
:1057F00003532046BDE8F04100F012B8002140F804
:10580000081B064A026042608260C260C1768177EE
:105810000161FF21017780F820107047DD5B0008EF
:1058200030B484680023A44630BC1A46092160477E
:10583000080001D00A2801D14FF6FF70704730B43C
:1058400004690023A44630BC1A461921604713B5E9
:105850000122046901AB1721A0471CBD30B40469C3
:105860000023A44630BC1A46182160472DE9F84FA2
:1058700015460746142937D0642000221B4E1729ED
:1058800006D0182902D019292BD120E032802BE034
:105890001C46DFF85C908046924614E0308814F88D
:1058A000012B09F80020401C83B23380802B0AD3DF
:1058B000CDF8008097F824100D4A0E48FBF7D2FE71
:1058C00078B9A6F800A06D1EEDB2E7D20CE03388DF
:1058D00053B1009097F82410054A0648FBF7C2FE22
:1058E00010B10020BDE8F88F0120FBE74400002044
:1058F00000070020140C002030B4C4680023A44624
:1059000030BC1A461921604730B4C4680023A4464D
:105910000A4630BC1621604730B4C4680023A44650
:105920000A4630BC1521604730B4C4681346A4460B
:105930000A4630BC17216047F8B50C464FEA00050F
:1059400014F8011B182924D00EDC152919D01629AA
:1059500017D0172923D120788DF800006A4601213D
:105960002846FFF7E1FF0AE0192912D0FE2916D1D7
:1059700022788DF800202921284600F046F9641C81
:10598000DEE722788DF80020EE6800232846B04735
:10599000F5E70023EE681A462846B047D0E7F8BD81
:1059A00030B4C4680023A44630BC1A4618216047AE
:1059B0002DE9F041DFF8B08014460646A1F114024B
:1059C000002798F800001D46062A4AD2DFE802F0B8
:1059D0002F03161B3E4310B13046FFF730FF304611
:1059E000FFF73CFF00213046FFF731FF21463046EC
:1059F000FFF72DFF012088F8000029E021463046FE
:105A0000FFF725FF24E050B13046FFF718FF06E00E
:105A10001821304600F0FFF8183CE4B21835182C75
:105A20002A46F5D82146304600F0F5F80EE096F803
:105A30002400FF2802D1782086F8240037692B46FD
:105A400022463046BC46BDE8F041604788F8007009
:105A50000120BDE8F0810028F8D03046FFF7EFFEC6
:105A6000F4E70020F5E700004600002070B50023B1
:105A7000456904461A462821A8470023E5681A46C6
:105A800014212046A84701224B21204600F0BDF8F2
:105A9000206829210279204600F0B7F800224B2126
:105AA000204600F0B2F8206829210279204600F053
:105AB000ACF801224B21204600F0A7F820682921EC
:105AC00042792046BDE8704000F09FB80160897CB3
:105AD00080F822107047000070B50C46054600F0B3
